:020000040000fa
:10000000f0ff03203d8e0100590802005d08020048
:1000100065080200690802006d0802000000000087
:100020000000000000000000000000007508020051
:100030006108020000000000750802007508020057
:1000400075080200750802007508020075080200b4
:1000500075080200750802007508020075080200a4
:100060007508020075080200750802007508020094
:100070007508020075080200750802007508020084
:100080007508020075080200750802007508020074
:100090007508020075080200750802007508020064
:1000a0007508020075080200750802007508020054
:1000b000750802007508020075080200fd070200bd
:1000c00005080200750802007508020075080200a4
:1000d0007508020075080200750802007508020024
:1000e0007508020075080200000000000000000012
:1000f0000000000075080200011401000114010055
:10010000011401000114010069c5010069c5010065
:1001100069c5010069c50100750802007508020083
:1001200075080200750802007508020075080200d3
:1001300075080200750802007508020075080200c3
:1001400075080200750802007508020075080200b3
:1001500075080200750802007508020075080200a3
:100160007508020075080200750802007508020093
:100170007508020075080200750802007508020083
:100180007508020075080200750802007508020073
:100190007508020075080200750802007508020063
:1001a0007508020075080200750802007508020053
:1001b0007508020075080200750802007508020043
:1001c0007508020075080200750802007508020033
:1001d0007508020075080200750802007508020023
:1001e000750802007508020075080200e5ed0100bf
:1001f0007508020075080200750802007508020003
:1002000075080200750802007508020075080200f2
:1002100075080200750802007508020075080200e2
:1002200075080200750802007508020075080200d2
:1002300075080200750802007508020075080200c2
:1002400075080200750802007508020075080200b2
:1002500075080200750802007508020075080200a2
:04026000750802001b
:020000040000fa
:10026400f8b500bff8bc08bc9e46704735d2010003
:10027400f8b500bff8bc08bc9e46704711d2010017
:020000040000fa
:0802840098b900000100000020
:020000040000fa
:10028c002de9f04f0f218fb00a201ef057ffc20747
:10029c0006d482461af0020f28d10fb0bde8f08fb9
:1002ac00029013e0e669337b1b09042b16d9b5ebde
:1002bc00830f13db226a12f40033039300f0c8801f
:1002cc006ff00e0120460a221ef0e8fb0a201ff0f8
:1002dc0077ff044628b1a58d132de3d86ff00d01df
:1002ec00f0e7ddf808a01af0020fd6d0dff8cc83c7
:1002fc00d8f80030002bd0d00025dff8c4932b4663
:10030c00d9f8002052f823400cb394f870300b2b22
:10031c001dd094f8843013f0c0061abfdf091026e4
:10032c00374658075bd419072bd494f87030052b3b
:10033c0017d096bb94f8841011f0020a38d194f8b7
:10034c0085305a0603d594f87030032b5fd00135f5
:10035c00d8f800202db295422b46d1d30fb0bde872
:10036c00f08f1ef045ff236bc01a0028e1db012241
:10037c001421204605f066fd2046002112f098fd60
:10038c00e5e71ef035ffe36ac01a0028cddb94f8d0
:10039c007030052b00f0ef811026314687f00102fa
:1003ac00204605f04ffd94f8841011f0020ac6d0d7
:1003bc001ef01eff636ac01a0028c8db94f8701088
:1003cc004b1e082b00f24682dfe813f019022d02b7
:1003dc000b0213004402dd014402440213001ef020
:1003ec0007ffa36ac01a002894f88430a8bf10260f
:1003fc0099e794f87230042b40f22082002f40f0e1
:10040c00fc8301221421204605f01cfde4e11ef0c2
:10041c00effe636ac01a002899db94f8732094f8f5
:10042c0080309a4200f09c8302221021204605f075
:10043c0009fd1ef0ddfe9f4bb4f86c101b689e4a44
:10044c0003fb01f3a2fb032300eb931060627ee736
:10045c0020f0aaf98246204620f0a2f9236a0790e0
:10046c009b0520d4daf800300b93079b039a1b688a
:10047c000c934ff4c0606bbaadf834000c210ba890
:10048c00adf8363018f00efa226ac043570783b223
:10049c0040f1da812a463146204617f0edfa10b1c8
:1004ac006ff009010ee730461ef048f8d4f81c80b6
:1004bc00337bb8f8022005921b099b000693002a97
:1004cc003ff4feaebaf800107c4abaf80230b8f825
:1004dc00000009900b441168059a034453409bb2e9
:1004ec00049300293ff4ecae754bd4f828e0d3f814
:1004fc0000c00895002213469146274606e0ae45fb
:10050c0013d001331bb28b421a464bd25cf822201b
:10051c00002af6d092f870000b28f2d092f87140b5
:10052c00012ceed8556c002de9d1b2f86eb010b399
:10053c0004985845e5d1d8f80040d06d8442e0d1fc
:10054c00d46bdaf800008442dbd1012382f87130dd
:10055c00079b089dc2f844e03c46002b00f0188431
:10056c0092f88730079943f004030968116482f804
:10057c00873091463de005985845c2d1b9f1000f3e
:10058c00bfd192f88700050600f19983400640f12f
:10059c009d83012cb5d1d46bdaf80000844208bfde
:1005ac009146aee73c46089db9f1000f3ff488ae8a
:1005bc00daf80030c9f83c30012389f87130079b18
:1005cc00c9f844e043b199f887201b68c9f840305a
:1005dc0042f0040389f88730049aa9f86e20099a2e
:1005ec00d9f80030a9f85c20059aa9f85e20c9f862
:1005fc00103022690698938999f8851096f80d8029
:10060c00d6f808b077681b1a93814b0607d599f872
:10061c00843000229b0789f8732040f13e8199f8c1
:10062c00863099f870106ff3861389f8863000299c
:10063c0048d118f0040540f0478118f0100f40f035
:10064c00d78218f0020100f03f817b1cc9f85430ae
:10065c00304618f04ff899f88530a9f86600c3f3c6
:10066c000113002b00f0208313f1ff3318bf01237b
:10067c0099f8872063f3451289f88720012212210b
:10068c00484605f0dffb022389f87030b9f8762074
:10069c00039b1a4000f06182d9f87850002d00f0cd
:1006ac005c82a16ad9f87c30b9f97400a8470221a0
:1006bc0008e600bfe43c0020d34d6210e03c002073
:1006cc00dc3c0020012900f0d180069b05f1140ac6
:1006dc00aaeb030a1ffa8afaaaf114039bb2049339
:1006ec0018f0010318bfaaf1130ad9e9075014bf77
:1006fc001ffa8afaddf810a0069318f0020f1cbf3f
:10070c000af1010a1ffa8afa8542c0f06c82d9e913
:10071c0005232d1a9b1a5d1babb20593d9f85430e7
:10072c00fd1abaf1000f00f05282059b002b00f06d
:10073c005582002dc0f2b382ab4207d8059a954280
:10074c00a2eb0a0302db9d4200f3488218f0060f6d
:10075c0040f0978218f0100f98d08b1e072b00f2e8
:10076c003381dfe813f0b500b500b500b500b50076
:10077c003101b500aa001ef03bfd236bc01a002806
:10078c00fff60aaef3e594f87230042b3ff636ae62
:10079c000133e26cdbb200271021d4e9036084f84a
:1007ac0072305200831bb042e2649bb204d2d4e993
:1007bc000002121a13449bb2b4f86000226d266139
:1007cc00d21a03442265a4f860300022204605f0ba
:1007dc0039fb002f3ff4bbad2046002112f068fb23
:1007ec00b5e594f87230042bd2d9042284f8702029
:1007fc0027bb20460122112105f024fba7e594f824
:10080c007230032b40f2cd81c94aca4b11684ff4a8
:10081c007a7202fb01f2a3fb023292091201052348
:10082c0000270221b9e794f87230022b00f2bf8145
:10083c000133dbb2e26c00271221aee70133dbb2ed
:10084c00e26c00271121a8e71a462946304618f019
:10085c0029f824e6002e3ff47aad002f40f06e8488
:10086c0031462046012205f0edfa70e518f0040f30
:10087c007ff40caf18f0100a00f0c481d9f8505076
:10088c00ab4500f0bf810a46c9f850b00421484678
:10089c0005f0d8fac9f85050f8e61ef0a9fca44ba4
:1008ac00b9f86c101b68a34a03fb01f3a2fb0323ea
:1008bc0000eb9310c9f82400b1e6d9f8503001339d
:1008cc009b457ff4e3ae0021484612f0f1fadde6d9
:1008dc00d9f8503007930229184600f0fe81d9f858
:1008ec0010c0d9f80820b2eb0c0105d5d9f80030ae
:1008fc00c91ad9f804301944079babeb0303591af6
:10090c00002911dd99f8863003f08400042840f0aa
:10091c00ec81012940f0e981079843f08003013014
:10092c00c9f8500089f88630d9f80ce00eeb0003ba
:10093c000993f445aceb0303079380f0e781d9e905
:10094c00003101eb0b00c01a0893079b0344002bea
:10095c00079340f32f82089b0798cb1a834280f0b1
:10096c00468299f883300133dbb2022b89f883304d
:10097c0000f2b083d9f83830002b40f0368396451e
:10098c0000f0f481d9f850300793f389b9f86a2054
:10099c0007999a4238bfa9f86a30b9f860205b44cd
:1009ac005b1a9bb232b92bb199f8842042f0400209
:1009bc0089f8842099f87010a9f86030042900f0a7
:1009cc00cc81062900f05e8318f0200f7ff45eae18
:1009dc00a1f10803012b7ff659ae06293ff456ae60
:1009ec00049900293fd0337bd9f81c0007901b09d0
:1009fc00002dd9f818204fea830340f3488204995c
:100a0c0001eb05080599884504dd491b89b2049161
:100a1c0001eb050807980146414433448a420a9386
:100a2c0080f07083531c1b1a5b1b014600f1428340
:100a3c0001269bb229440aaa00962046059316f07b
:100a4c007dfadde904230096d31a07909bb20aaa1b
:100a5c00d9f81410204616f071fa079b034498b28b
:100a6c00049b834238d0baf1000f14d099f870303f
:100a7c00033b022b84bfd9f81c30c9f8203099f8fd
:100a8c008430da0600f1fd8143f010031e0789f86b
:100a9c00843040f18182069b002b3ff4f7add9f8ee
:100aac0054200aeb07060132b2427ff4efad99f8fd
:100abc00851099f87030c9f8542041f0040203995c
:100acc00023b41f48061039189f88520032b28d8df
:100adc00dfe803f03a32201ad9f85830591c00f0ec
:100aec002183b9f86420ab421a4440f20f8390453d
:100afc0004d8984502d3521b93b20493049ba9f8d3
:100b0c006430c9f85850aee700221021484605f071
:100b1c0099f9d8e6d9f850309b45f5d0062389f8d9
:100b2c00703001221021484605f08cf9aee500bf6b
:100b3c00e43c0020d34d621099f8863008225d0603
:100b4c0089f87020edd5a1e5092389f870300122d0
:100b5c001121484605f076f998e50221fff7b2bb62
:100b6c0094f88460012120460e4016f09bfb94f80b
:100b7c00843043f00103514684f884304ff48052a2
:100b8c0020461bf0b9f9002e7ff4e1ab94f88430c9
:100b9c000a2266f3000384f8843084f87020fff78f
:100bac00d6bb0133e26cdbb200270221f5e594f8e9
:100bbc00842012f001027ff421ac002f40f08880d9
:100bcc0020460122022105f03df9fff7c0bb002da4
:100bdc003ff4bcad059bab423ff6b8ad18f0040f2b
:100bec007ff454ad9de7451b013dabb2059395e5f4
:100bfc00c9f850b02a46042188e70133dbb2e26c15
:100c0c001421cae518f0020f3ff440adf389a9f89e
:100c1c006a307a1ca9f86030c9f85420304617f0b5
:100c2c0069fd99f88530a9f86600c3f30113002b10
:100c3c0061d0a3f10103b3fa83f35b0999f8872020
:100c4c0083f0010363f3451289f887200122baf17e
:100c5c00000f3ff414ad1021484605f0f3f899f855
:100c6c00853003225d0689f8702000f1938099f895
:100c7c0084306ff3410389f884304ff4807303930d
:100c8c0004e518f0040f3ff41eae99f8853043f0dc
:100c9c00020389f885304ff40063039313e60aebe3
:100cac000503002b9add51e5d9e9002300eb400048
:100cbc009b1ab3eb500f34bf01230023d8e4b2f8d6
:100ccc005cb0099dab457ff41cac5fe4914618e425
:100cdc0001331746dbb2e26c5fe59b457cd1032305
:100cec0089f87030fd330393f9e500221021484652
:100cfc0005f0a8f8cae4d9e9002300eb40009b1ae0
:100d0c00b3eb500f2cbf0123002397e7079b5b44e9
:100d1c00002b1846079304ddd9e900135b1a98429f
:100d2c0065d9f4453ff42bae99f883300133dbb22f
:100d3c00022b89f883307ff61daed9f850307344fe
:100d4c00a3eb0c03c9f8503099f88430c9f810e0c3
:100d5c0043f0800389f8843011e6079b9b4500f033
:100d6c00798118f0200f3ff43bae8fe499f8853071
:100d7c00d80700f1f380590600f1b48199f884305a
:100d8c00d9f8502007926ff3410389f88430fce5c1
:100d9c0091462ee41ef02cfad14bb9f86c201b684e
:100dac0003fb02f34ff47a72b3fbf2f30344c9f87a
:100dbc0024305ce799f883300133dbb2022b89f8dd
:100dcc0083307ff6d7ad099ba3eb0c0c089b591a0b
:100ddc006144c9f85010b7e7c9f850b0012204219a
:100dec00484605f02ff8079bc9f850304ee440f206
:100dfc00dc53c9f834301ef0fbf9b94bd9f80ce0d0
:100e0c001a68d9f83430b9f88310d9f810c002fb3d
:100e1c0003f34ff47a72b3fbf2f2079b024421f412
:100e2c000351c9f838207246734421f03f016245e2
:100e3c00a9f88310c9f80c309e4600f2c5806345b2
:100e4c0000f22881d9f804108b4206d3d9f800207f
:100e5c008a1a9b1ac9f80c309e468c4506d3d9f8d1
:100e6c000030cb1aaceb0303c9f8103099f8703092
:100e7c00032b00f0a480082b00f0a180d9f80820e7
:100e8c007de501221021484604f0dcff03e62944ed
:100e9c001ffa81fc0599614528bf614688465b1b9a
:100eac00411833448a420a936ad2561c331a0125dc
:100ebc009bb201460aaa00952046049316f03ef810
:100ecc00049b0095a8eb030305909bb20aaad9f8e2
:100edc001410204616f032f8079b0599d9f8142007
:100eec009b1b0144434488b2134480457ff4bbad43
:100efc0099f87020d9f85410c9f81c30033a4144c1
:100f0c00022ac9f8541003d8039a42f400720392cf
:100f1c00d9f85820501c3ff4a6adb9f86400a2ebe8
:100f2c0008028018c9f8582013d4002a3ff79bad4b
:100f3c00d9f81820034401449342c9f85410c9f855
:100f4c001c3006d9d9f81410521ad2431344c9f8dc
:100f5c001c304ff0ff33c9f8583084e5d9f85030c5
:100f6c0007939b457ff411ad99f886305a077ff5ae
:100f7c000cadb9f8843023f48173a9f8843004e5fe
:100f8c0001230093079943460aaa204615f0d6ff81
:100f9c00d9f81c304344a8e743f0080289f88420b0
:100fac001ef026f94e4b1a68642303fb02f34ff430
:100fbc007a72b3fbf2f30344c9f82c306be5039b54
:100fcc0043f00403039359e7d9e900218a1a6244d8
:100fdc0093427ff639afd9f85000c9f81030821a15
:100fec001a44c9f850209c462ee71ef001f9d9f896
:100ffc003830c31a002b4adbd9f834305b00b3f518
:10100c007a4f28bf4ff47a43c9f834301ef0f0f809
:10101c00334bd9f850101a68d9f83430d9f80ce0a1
:10102c000893d9f8103007930eeb010c089b079925
:10103c0002fb03f3aceb010c4ff47a728e45b3fb5d
:10104c00f2f30344c9f83830c9f850c070d8d9f855
:10105c00082079e699f886305b077ff582ae1ef0a2
:10106c00c7f81f4b1a6841f2883303fb02f34ff4a5
:10107c007a72b3fbf2f305220344c9f8303089f8d5
:10108c0070206ee6079b9b457ff400ab1be4d9e90f
:10109c00022e74e4d9f85020d9f80410c9f8103095
:1010ac00a2eb0c021a448b42c9f85020fff4deaebe
:1010bc009c46cbe6d9f81410511a691a079a0139d3
:1010cc0001230a44114600930aaa049b204615f0fa
:1010dc0035ffc5e4d9f850307344a3eb0c0c75e61e
:1010ec00e43c00201ef084f8194bb9f86c201b6806
:1010fc0003fb02f34ff47a72b3fbf2f30344c9f827
:10110c0024303be6079a01232a44dbe790457ff61f
:10111c00aaacaa42fff4a7ac049aeb1a1a44a9f899
:10112c006420a0e4049bc9f85850a9f864309ae4f0
:10113c00d9e90031d9f80820089347e694f87230c1
:10114c00e26c01333146dbb20027fff726bb00bf50
:04115c00e43c00204f
:020000040000fa
:101160002de9f04f2ded028b0f219bb01f201df0bc
:10117000ebff002800f0a580dff86c83d8f8003082
:10118000002b00f09e80dff864b39fedcd8b5c46b2
:10119000002700bf94f8da30012b00f08a80023b70
:1011a000102b00f2c586dfe813f0d502a503260256
:1011b0006402380217031302a3016a01000200014e
:1011c000de00cc00b9001100a1009100d4f8d030ad
:1011d000618a5d6804f1440201201ff00bfb421c90
:1011e000a08704f1da0600f02f85b74a4ff480712a
:1011f00000231df01df8e268b4f93c00052109f058
:10120000e9f830b9d4f8d030b0491b6828461b68db
:10121000984702220621b4f93c0009f0dbf830b906
:10122000d4f8d030aa491b6828461b689847d4f8e0
:10123000d410b4f93c0019f0dffa5422002105a8bb
:101240001ff032f805a9b4f93c0015f015fdd4f8eb
:10125000d030bdf85a201b689e49a4f87e2028464d
:101260001b689847d4f8d030608a94f847101b6800
:1012700094f846200092cde90110284694f84420c5
:101280005d68954994f84530a847112130461bf018
:101290007bf81df0b3ffd4f8903002461344c4f835
:1012a00094208e48c4f89c304ff4c86255211ef03b
:1012b000fbffd8f8003001379f4204f1e804fff447
:1012c00069af1bb0bdec028bbde8f08f204614f077
:1012d000b3ffb4f93c001af03bfcd8f800300137fa
:1012e0009f4204f1e804fff455afeae7227db4f928
:1012f0003c000b2109f06ef8204609f011fa012894
:1013000000f06d850228d4d1122104f1da001bf01f
:101310003bf81df073ffc4f89800cae7204614f0ac
:101320008bffb4f93a001af0dffa4ff6ff736387c8
:10133000d8f8003001379f4204f1e804fff42aafe7
:10134000bfe7204609f0ecf9012800f0718502287a
:10135000afd10f2104f1da001bf016f81df04eff9b
:10136000c4f89800a5e794f8db30002b40f03d84ea
:10137000d4f8d030b4f93a005d681cf0b7fa002810
:1013800000f01984b4f93a001cf00cfc1df036ff93
:10139000d4f89030c4f8940003440e2104f1da002c
:1013a000c4f89c301af0f0ff83e7d4f8d030618a9b
:1013b0005d68002201201ef06bf8431c608704f179
:1013c000da0600f02c840023454a4ff400711bf02c
:1013d00071fbd4f88030002b40f0f78404f1440313
:1013e00000220121b4f93a0019f0aeffd4f8d03050
:1013f00038491b684ff480621b68a4f87e20284699
:101400009847d4f8d030608a94f847101b6894f855
:1014100046200092cde90110324994f84420d3f8d7
:10142000049094f845302846c84730460d211af0fc
:10143000abffd4f8c420b4f93a00032111f0b2fc98
:1014400030b9d4f8d03021491b6828461b6898472a
:10145000b4f93a001bf038f81df0d0fe4ff4c86222
:10146000c4f8b80054211d481ef01effd8f8003003
:1014700001379f4204f1e804fff48cae21e7d4f871
:10148000d4001ef095f8032805d004f14401d4f8e7
:10149000d4001bf07dff04f1da000b211af074ff79
:1014a0001df0acfed8f80030c4f8b80001379f42f8
:1014b00004f1e804fff46eae03e700bfaff3008071
:1014c0000000000000000000b5000200989f00002e
:1014d000c09f0000cce40000e89f0000e819002055
:1014e000a100020020a00000b43c0020b030002089
:1014f000237cd4f8d010012b4d6800f0bc83022b64
:1015000008d1b4f938001af0eff94ff6ff73d4f8a8
:10151000d0102387a4eb0b03db10c3ebc31203eb48
:10152000c202c2eb82320868a349d0f8049003ebf0
:10153000021303eb830632462846c84794f8dd20a1
:10154000002340f2b45040f2be51c4e90a33c4e96a
:101550000c33c4f8a03084f8d930c4e92533c4e989
:101560002933c4e92b33c4f8b43084f8dc30c4f830
:10157000c03084ed088ba4f8de00e16004f1da09e4
:10158000d4f8d030002a00f063821b6894f8db2086
:101590005b68002a40f05e822846324687499847b9
:1015a000484602211af0f0fe83e6d4f8d03094f8d1
:1015b000db505e68002d00f0e2821b6880491b68ea
:1015c00030469847012104f1da001af0ddfe70e69a
:1015d00094f8d930002b00f0558304f1da0009218a
:1015e0001af0d2fed8f8003001379f4204f1e80427
:1015f000fff4d0ad65e6b4f93c001bf0a3fd002874
:1016000040f0af8294f8db3004f1da00002b00f0f8
:10161000f38209211af0b8fe4be694f8db50002d56
:10162000dbd1b4f938001cf061f900283ff441ae79
:101630002946382205a81ef037fe05ad05a9b4f9e4
:10164000380014f07ff80fcd04f140060fc60fcd1f
:101650000fc60fcd0fc695e8030086e8030004f11e
:10166000da0007211af090feb4f938001cf09afa5b
:101670001fe694f8d930002b00f00c83b4f93c003d
:101680001bf060fd0546002840f06b8294f8d830ce
:101690005a1c0a2b84f8d8209fd88021b4f93c002a
:1016a0001ff0fcf800283ff404aee26a454e5342b6
:1016b0001bba33608023d4e90801c6e90335c6e9c3
:1016c000015592fa82f91df0cffd3f4ad4f89830c7
:1016d000c6f828901168d4f894209fed3c6af56212
:1016e0009b1ab3fbf1f201fb123307ee903a07eebf
:1016f000101af8ee677af8ee476a67ee867a636b3f
:10170000356387eea67a01ba206b716100ba1bba05
:10171000c6e9080312ba3146b261b4f93c0034227a
:1017200067ee067afceee77a17ee903a1bbaf361a1
:101730001df01cfb294605a84c221ef0b5fd05a98d
:101740004c22b4f93c001df011fbb4f93c000cf044
:1017500011fdaee5d4f8d03094f8dd20d3f8049034
:1017600004f1da06002a00f07382257c012d00f0d6
:101770001683022d40f01083b4f93800431c00f0aa
:10178000ed82134a4ff4007100231bf093f9d4f853
:10179000c820b4f93800022111f004fb30b9d4f8a4
:1017a000d0300c491b6848461b68984730460621d4
:1017b0001af0eafd7de500bf889e0000b89e00009b
:1017c0000c9f00001c390020b83c002000007a4427
:1017d000a1000200749d0000d4f8d030b4f93800a4
:1017e0005e681bf043f90546002800f05b82a36a9f
:1017f000002b4ad1a4eb0b03db10c3ebc312d4f8cc
:10180000d000c649006803ebc202c2eb823203eb90
:10181000021202eb82024368304698471df0eefc4c
:10182000a26ac4f8a8200346c4f89430c4f8b430bf
:10183000b4f938001df04afa1ef078fcd4f8d03024
:10184000628a1b680292010ec0f30742cde90021b3
:10185000c2b2d3f80490b249c0f307233046c84758
:10186000d4f8d030b4f8640094f847101b6894f8aa
:1018700046200092cde90110304694f844205e687d
:10188000a84994f84530b047a36ad4f8a020a64ee2
:1018900001330132c4e90a33c4f8a02028461ef0ff
:1018a0008df902460b46d4e908010bf0effdc4e9bf
:1018b000080100bf4ff4c862b4f938309542314690
:1018c000184680f01a812a4697491ef09dfea36aa9
:1018d000002b40f0538294f8db30002b3ff4e9ac4e
:1018e000082104f1da001af04ffd1df087fcc4f85e
:1018f0009800dee4a4eb0b03db10c3ebc31203eb95
:10190000c202d4f8d010c2eb823203eb0213d1f83a
:10191000049003eb830a00bfb4f93c001bf012fcf7
:101920000b28054640f28480804eb4f93c003146d5
:101930000c2212f055ff0c2840f063813668d4f871
:10194000a03036baa662002b40f09580002ec0f27f
:101950000881d4f8d03071491b6801225b68c4f853
:10196000a020484652469847a36a63b1d4f8d020d5
:101970006f4910681a46436848469847226ba36a25
:10198000013a1a4422635422e362002105a81ef0a2
:101990008bfc05a9b4f93c0015f06ef9b4f93c00d4
:1019a0001df056fe1ef0c2fbd4f8d030628a1b68d0
:1019b0000292010ec0f30742cde90021c2b25e6877
:1019c0005749069dc0f307234846b047d4f8d030a6
:1019d000bdf858201b680292290ec5f30742cde9d5
:1019e00000214846eab24f495e68c5f30723b04775
:1019f000bdf85830a4f8643065641df0fffba16a9f
:101a0000d4f8a020236bc4f8ac300546c4f8945039
:101a1000c4f8b450c4e92921b4f93c001bf0b8fd66
:101a2000b4f93c001bf08efb0b2805463ff67caf5b
:101a3000d4f8a030002b40f06f8194f8db30002bfd
:101a40003ff437ac042104f1da001af09dfc30e4d5
:101a50001b685b683749324628469847484601214b
:101a60001af092fcd8f8003001379f4204f1e804e4
:101a7000fff490ab25e40133c4f8a03028461ef0f3
:101a80009df802460b46d4e908010bf0fffc002e3e
:101a9000c4e9080155dbe36a5a1cb2424ed0b34296
:101aa00034db636b03f1010363630ad1d4f8d030f4
:101ab00021491b6848461b689847d4e90a639e423f
:101ac00029dc0c3dadb2002d3ff426af164e00bf11
:101ad000b4f93c304ff4c86295423146184604d2fe
:101ae0002a46114912f07cfe16e7a5f5c865adb28d
:101af00012f076fe002debd10ee7a5f5c865adb26c
:101b00001ef082fd002d7ff4d5aee0e6226b013a97
:101b1000d31a33442363e662d3e700bf5c9e000020
:101b2000144f0100484f0100e81900201c39002023
:101b3000f89d0000ec9e0000249e0000b342b5d04a
:101b4000bde77642a6621df059fb0023c4f8980059
:101b5000042104f1da0084f8d8301af015fca66ae2
:101b600099e7b4f93c001bf013fdd8f800300137b9
:101b70009f4204f1e804fff40dabfff7a2bbd4f8d9
:101b8000d4001df015fd032800f08e8194f8443038
:101b900003f0f003e02b40f09c80237c012b00f04d
:101ba0008781022b7ff485ab0c2104f1da001af057
:101bb000ebfbfff77ebb1df021fbd04bd4f8b82028
:101bc0001b68821a03eb83039a427ff672abb4f967
:101bd0003a0019f089fed4f8d030c9491b684ff695
:101be000ff721b686287284698470f2104f1da00cc
:101bf0001af0cafbfff75dbb05211af0c5fbfff722
:101c000058bbd4f8d030bf491b6848461b6898477a
:101c1000042104f1da001af0b7fbfff74abbd4f84d
:101c2000d030b9491b6828461b68984730460121c7
:101c30001af0aafbd8f8003001379f4204f1e804fb
:101c4000fff4a8aafff73dbbd4f8d030af49e9e7cd
:101c50001b68af491b6848469847304601211af077
:101c600093fbd8f8003001379f4204f1e804fff4f9
:101c700091aafff726bbb4f93c0019f069ffd4f82c
:101c8000d01047e4022120460af03efe012384f8ea
:101c9000d930a2e4022120460af036fe012384f85e
:101ca000d930ebe4b4f938001bf07cff30b9b4f95b
:101cb00038001cf08bfe00283ff409ae1df09efaa0
:101cc0000821c4f8980004f1da001af05dfbfff770
:101cd000f0ba04f1780204f14401d4f8d40018f009
:101ce000e5fa002800f0eb80d4f8d03094f87d506d
:101cf00094f87c0094f87b1094f87a201b68cde966
:101d00000205cde9002130465d6894f8782094f80a
:101d100079308049a84740e71df070fad4f8b43014
:101d20002268c31a93427ff688aed4e928239a42e8
:101d300040f0de80d4f8d03077491b6848461b68f5
:101d400098471df05bfa0023c4f89800042104f1c1
:101d5000da0084f8d8301af017fb6ee604f180023e
:101d6000618a012013f078fa451c20877ff409adc1
:101d7000d4f8d03064491b68484655e71df03efa58
:101d8000d4f8b4302268c31a93427ff6a4ad002180
:101d900020460af0b9fd9ee51b6860495ae7618a52
:101da00004f1800228461ef021fd411ca08762d16b
:101db000d4f8d03055491b6848461b6898472946d7
:101dc00030461af0e1fafff774ba04f18003628a30
:101dd000b4f93a00012112f0bff9fff7ffbab4f8e5
:101de000bc50002d00f0a280dff83491002600e006
:101df0008db1b5f5c86faa4628bf4ff4c86a5246e0
:101e00004946b4f93c001cf0b1ff06442d1a824546
:101e1000b6b2adb2ecd0b4f93c000cf0abf9b0bb4b
:101e200002460146b4f93c001af0fafcfff741ba49
:101e3000b4f8bc303a4d09e01ef0e0fbb4f8bc3019
:101e40001b1a9bb28642a4f8bc302ad8b3f5c86fdf
:101e5000b4f93ac01e4628bf4ff4c8663246294638
:101e60006046002be8d160461bf07ef820460df05e
:101e700031fdfff71eba00232a4a4ff480711cf08f
:101e8000d7f9304603211af07ffafff712bab4f8f7
:101e9000bc309e1b2046a4f8bc600df01bfdfff774
:101ea00008bab4f93ac0dee7a567a4f87c5074e636
:101eb000102104f1da001af067fa237c71e61df0b4
:101ec0009df90e4bd4f8b8201b68821a03eb8303ec
:101ed0009a427ff6eea9d4f8d03013491b683046f9
:101ee0001b6898471df08af9c4f8b800fff7e1b9fc
:101ef000002120460af008fd9fe500bfb83c002005
:101f000058a00000d89d0000509d00009c9d00003e
:101f10002c9d00006c9f0000449e0000c09d0000ae
:101f2000e8190020b50002002c9f00002e4672e741
:101f3000012104f1da001af027fafff7bab900bf5d
:020000040000fa
:101f40002de9f04fa64ca74d23682a78013385b0c0
:101f500023601b2a3ad8dfe812f03600b202c5012e
:101f6000a2027101c3021c0076022201ac019c0195
:101f70008f02320111028101fb010a01f800a70062
:101f8000c6007f00e1009700b600700060005100bd
:101f90003c0000201ef048f80446002840f0a782cc
:101fa000914b1b7803f0ff06002b40f03a848f4cd6
:101fb00023680133c72b236005d98d4918f024fa13
:101fc000012326602b7005b0bde8f08f01232b7034
:101fd000f9e7854b1b7803f0ff06002b40f0af8339
:101fe000824c23680133c72b2360ecd981493046ea
:101ff00018f00afa012326602b70e4e77a4c237864
:1020000003f0ff06002b40f0a683784c23680133d1
:10201000c72b2360d7d97849e9e7734e774b7849c6
:10202000002400942046012234701bf02ffd00286c
:1020300040f04e831a232b70c5e76b4b1b7803f0df
:10204000ff06002b40f0a883684c23680133c72ba0
:102050002360b8d96b49cae76b4e6c4a33786c4938
:10206000614f66480090002452f8232051f8231055
:102070000194204601233c701bf0fcfb002840f03b
:10208000578315232b709ee7574e5c4b002400941a
:1020900020460122042134701bf0f8fc002840f097
:1020a000858317232b708ee74f4c237803f0ff06b0
:1020b000002b40f014834d4c23680133c72b236061
:1020c00081d9544993e7484c237803f0ff06002b4d
:1020d00040f07383454c23680133c72b23607ff6a0
:1020e00072af4d4983e74d4c237803f0ff02002b7c
:1020f00000f007823d4e33680133b3f5fa7f336059
:10210000fff461af464b47491a88002018f07cf96c
:1021100000230122237033602a7054e7324b1b786e
:1021200003f0ff06002b40f02b82304c2368013374
:10213000c72b23607ff647af334b3b491a783046b5
:1021400018f062f926602e703de7274e2b4b009366
:1021500000240194204601230222344934701bf0ec
:1021600089fb002840f0a58212232b702be71e4b21
:102170001b7803f0ff06002b40f040821b4c2368c5
:102180000133c72b23607ff61eaf1f4b28491a78f7
:10219000304618f039f9012326602b7013e7124bf3
:1021a0001b7803f0ff06002b40f01c820f4c2368c5
:1021b0000133c72b23607ff606af1e4917e70a4b92
:1021c0001b7803f0ff06002b40f0e881074c2368e2
:1021d0000133c72b23607ff6f6ae174907e700bf30
:1021e000783c0020da3d0020d63d0020843c0020d1
:1021f000345900003c5c0000b85b0000c5ff0100e2
:1022000088000a00445b0000d93d002030f3010043
:1022100010f30100585d0000c05a0000db3d0020b3
:10222000c63d0020805d0000e05d0000400004002d
:10223000d05c0000b45900000c5a0000b44b1b786d
:1022400003f0ff06002b40f0b981b24c2368013344
:10225000c72b23607ff6b7aeaf49c8e6af4e3378e1
:1022600003f0ff02002b00f0e481aa4c2368013345
:10227000b3f5fa7f2360fff4a6aea94ba9491a88eb
:10228000002018f0c1f800230122337023602a7067
:1022900099e69f4b1b7803f0ff06002b40f08481ea
:1022a0009c4c23680133c72b23607ff68cae9e497c
:1022b0009de69e4b1b689a0500f1b98113f4806f6f
:1022c0000cbf11211521924c994b0022009210460f
:1022d000227001221bf0dafb00287ff477ae0a237c
:1022e0002b7070e68d4b1b7803f0ff06002b7ff4fc
:1022f0006aae904c904f3c22314620461df0d4fff0
:1023000020461bf07bfa8d4b854a198861849978a9
:1023100084f824104ff6ff611288a4f82510d978ac
:102320009b8823854ff4807352ba854884f8271020
:1023300063857849a28540f602034ff60252a382d4
:102340001123c4f80e70e28506700e602b703ae619
:102350007c4e7d4a33787d49754852f8232051f8e8
:102360002310009000240194204601231bf082fae0
:10237000002840f0a58110232b7024e6744b754a89
:102380001b68754903f5ef5602369642d1f8008076
:1023900003d9724e08f101081e44714c714fdff8e9
:1023a00080a1dff878915a22002120461df07cffa1
:1023b00020461bf023fa614b6b48198800970027d1
:1023c0000197baf80020c4f80e004ff0080c987876
:1023d00084f815c052ba4ff6ff6c618484f824006b
:1023e000d9789b88a4f825c04ff480704ff0010b7a
:1023f0004ff6025e84f82710238598fa88f133bae5
:1024000060854ff4407c5948a285c222c4f832103e
:10241000c4f83630e06384f84020c4f82ee021464a
:10242000a4f83ac03b4638465a2284f843b089f8ab
:1024300000b01cf01bfa002840f0ee8089f8000084
:1024400085f800b0bfe5394b1b68980500f1d480d2
:1024500013f4806f0cbf102114212d4c344b00223b
:1024600000921046227001221bf010fb00287ff41e
:10247000adad08232b70a6e52c4a254c2c4b1268d9
:1024800000930021019108462170012308211bf0cf
:10249000f1f900287ff49aad0c232b7093e51c4cc6
:1024a000234b3349002200921046227001221bf078
:1024b000edfa00287ff48aad04232b7083e52d4ac2
:1024c0001178002940f0da802b492c480a6800680e
:1024d0009a1a8242fff477ad02220b602a7072e5ed
:1024e00000201df0a1fd0446002800f013810f4bd1
:1024f000134808491c600722002303700b602a70f0
:1025000061e5044b0e491a6005230a702b705ae5e9
:10251000d63d0020843c002094580000db3d002084
:10252000c63d00205c5a0000e0590000703c0020cd
:10253000c5ff0100e03800201002002c483c0020bc
:10254000d83d0020d93d0020ec3d002098ef01004f
:102550007c3c002000ca9a3b803c0020e25365c4ca
:10256000d4360020550502001802004c001c0080e3
:1025700040000400d73d00206c3c0020583e002065
:10258000b84ab94913780133dbb20024072b137022
:102590000c6000f2328114232b7014e5b24a002142
:1025a0000d2311602b700ee5b049b14b0968ae4a9e
:1025b000196000210b2311602b7004e5ab4baa4e70
:1025c0001868002410f08000346040f01d81a94a92
:1025d00013780133dbb2042b137000f2bb810323a9
:1025e0002b70f0e4a149a44b09689f4a19600021af
:1025f000092311602b70e6e412212ee7994a9a49cb
:1026000013780133dbb20020082b1370086000f24e
:102610006d810f232b70d6e4984b1b78002b40f074
:102620006c81914a00210e2311602b70cbe41321a1
:1026300049e68f4b924e1b688f4916eb03084ff00b
:1026400000070868884b8f491a6047f10009464621
:102650004f46e1fb00671bf0f5fb02460b46304698
:1026600039461cf0abfc8848884902880b68013267
:102670000133012402800b602c70a4e40026304654
:102680008349167017f0c0fe3246304688238149d0
:1026900017f0bafe334630464ff210727e4917f0fb
:1026a000b3fe1e23324630467c4917f0adfe236848
:1026b0000ae720467a4917f0a7fe01232b7082e42f
:1026c00032787849204617f09ffe01232b707ae478
:1026d0002046754917f098fe01232b7073e4dff84c
:1026e0000892dff88481714b009300260127019640
:1026f0003b4689f8007030463c226d49c8f80060be
:1027000026701cf0b3f8002840f0a28089f8000081
:102710002f7058e4674a0090674b1070082101221f
:102720001bf0b4f9002840f01e8106232b704ae408
:1027300032786249204617f067fe2c7043e44a4b1a
:102740005f49002420461c6017f05efe454a0f23b7
:1027500014702b7037e4454bdff80cc11e685949e3
:102760001a6826f44076002746f4807633463846c9
:10277000ccf8007017f048fe4f4b0093019732469b
:1027800038460123504927701bf074f8002840f0a8
:10279000d9801b232b7016e40023334a4b49136066
:1027a000184617f031fe19232b700ce420464849d7
:1027b00017f02afe01232b7005e42c4bdff8a8c08c
:1027c0001f6844491a68002647f0c0073b46304658
:1027d000ccf8006017f018fe374b009301963a468c
:1027e00030460123042126701bf044f8002840f0f5
:1027f000a18018232b70fff7e6bb3749204617f05e
:1028000003fe2c70fff7dfbb1f4b34491a882046ac
:1028100017f0fafd174a3460052314702b70fff788
:10282000d2bb124e184fdff840c032683b882c49ab
:10283000ccf8000017f0e8fd346814f4e06400f010
:102840009a80284b32681a6007232b70fff7bbbbb6
:102850000e4ac8f800601368132101331360297011
:10286000fff7b1bbd93d0020843c0020683c00202c
:102870007c3c0020d83d0020803c0020dc3d002036
:10288000efc9080000ca9a3bc63d0020743c0020f6
:10289000e85700001c580000445800006c58000025
:1028a000385d0000a85c00008c5b0000550502004c
:1028b000e0380020d63d0020c5ff0100b45d0000d7
:1028c000685c0000e45b000088000a00705b0000a8
:1028d000945a0000ec5a0000145e0000c05800003a
:1028e00060590000703c0020db3d00202c4917f0af
:1028f0008bfd01232b70fff766bb2a4b2a4a0296f9
:10290000a3fb0813db0aa2fb08414ff4616000fb44
:1029100013804909a2fb0020c1eb0111a8eb810142
:10292000400900900191baf800202049384617f07c
:102930006bfd76e630461e4917f066fd01232b70cd
:10294000fff741bb38461b4917f05efd01232b7092
:10295000fff739bb184b19491a8817f055fd0123a9
:102960002b70fff730bb2046154917f04dfd0123b2
:102970002b70fff728bb134e33780133dbb2042be7
:10298000337003d805232b70fff71dbb3a880e491f
:10299000204617f039fd012334702b70fff713bb6d
:1029a000045d0000c5b3a29189888888345a00006c
:1029b000185b0000105c0000c63d0020e0580000dd
:0c29c0000c590000d83d00208c5900008c
:020000040000fa
:0429cc0010f014bc37
:020000040000fa
:1029d0002de9f04f2ded028b867b06f00f06082eb9
:1029e00093b03dd04ebb1a4f15461c46828d3b68b6
:1029f00052ba002b92b2c0f20582d11a0029b8bf98
:102a000049420a2900f39981934240f00382114b15
:102a100001221a70dff844c00cf130070fcf0cf11f
:102a200048060fc697e80300cce90d5486e803007a
:102a300013b0bdec028bbde8f08f07493246002091
:102a400013b0bdec028bbde8f04f17f0ddbc00bf4a
:102a5000343e0020d33d002068e70000080000203d
:102a6000cd4c828d236852ba002b92b2c0f2738192
:102a7000ca490d78002d00f06e81934240f0ef813d
:102a8000c74dd0f83220d0f83680b0f830c00133ce
:102a9000a5fb0365c34eed0b12ba98fa88f8c5eb97
:102aa0000545c6e901285b1b9cfa9cfc00252360b8
:102ab000a6f800c00d70d0f81a30d0f81610ba4c35
:102ac0001bba09ba1b0c43ea014333612368090ca2
:102ad0001ffa8cfc7161002b40f0d881b34b1b783e
:102ae0003bb1b34b197821b9b248022501210570d9
:102af0001970b14d706bb14fa2fb052312eb0809a1
:102b0000328ea0fb050105fb0c3343f1000a05fbe7
:102b10000211d7e92423b56b10eb0508cde90a9a19
:102b200041f100091343cde9088940f0a881f26c16
:102b3000002a40f07b81a24dd5e900abf269aab131
:102b4000dff874e2308bd6f820c09e4fa2fb0e2334
:102b50000efb0033dde90a0112eb0c0843f100091a
:102b6000b0eb080261eb0903c7e90023964ea6f11a
:102b700018070fcf0fc697e80300a6f1580786e89d
:102b800003000fcf403e0fc697e803005aea0b033d
:102b900086e803003ff44caf8a4fd7e9000150eac2
:102ba00001033ff445af894e96f8008008f1ff33ea
:102bb000012b40f27c8118f009fd80468946504681
:102bc000594618f003fd02460b46404649460bf0b5
:102bd000bbf8dff824b280468946cbe9008968a3b8
:102be000d3e90023dbe900011bf064f948b1dbe91c
:102bf000000165a3d3e900231bf078f9002840f019
:102c00001e827349002017f0fffb96f80080714f79
:102c1000dff8e891dde90a01dde908abbaeb000372
:102c20000e936beb01030f93dde90e23c7e900233d
:102c3000d7e900bcd7e90023d9f80010002a01f138
:102c4000010173f10000c9f8001002da524263eb8f
:102c50004303614dc5e90023b8f1000f40f04c81fa
:102c60000f2900f2b0815d4c2378434501d084f8f0
:102c700000805b4b1b78002b3ff4daae44a3d3e912
:102c80000023dde90a011bf07ffddde9089a80469b
:102c90003fa3d3e90023484651461bf075fd96f843
:102ca00000c0504ddff858e14f4ed7e90023bcf18a
:102cb000040f28bf4ff0040c0446a5fb0837079209
:102cc0004846514632a3d3e900235ef82c901bf00e
:102cd0005bfd0692a6fb042ca5fb04134fea5c1ccb
:102ce000db0a4ff46165cceb0c1ca4eb8c0c05fbf0
:102cf0001344a6fb04240393dde90a01640924a319
:102d0000d3e90023ff0acde9044c1bf03dfda6fbef
:102d10000831490905fb1783a6fb0303c1eb011129
:102d2000a8eb81015b09cde9003102923b462f49b6
:102d30004a46002017f068fb7ae630462c49dff857
:102d40005c8017f061fb10f057fa98f80030002b08
:102d50007ff460ae6ce6124d2649531ca5fb0305bb
:102d6000ed0bc5eb05455d1b2b460020256013b020
:102d7000bdec028bbde8f04f17f046bbaff300800f
:102d8000560e2db29defef3fd578e9263108f03f82
:102d900000ca9a3b00000000343e0020d33d0020d2
:102da0000180008008000020603c0020d13d002010
:102db000d53d0020cc3d002000ca9a3b20330020a6
:102dc000f03b0020f83b002050000020d43d0020c4
:102dd00008e60000003c0020103c0020cf3d002011
:102de000d23d0020c5b3a29189888888c0e6000042
:102df00010e70000b4e50000383e0020643c0020ed
:102e0000b0ff0100ce4b3a601e7013b0bdec028bd8
:102e1000bde8f08fdff82883ca4988f800603046a3
:102e200017f0f2fa4ff0ff333b608ee7c648b6f872
:102e30004880316dc54da2fb002300fb0833dde95e
:102e40000878b81a68eb03030c900d93dde90cab1e
:102e5000baeb010a6bf1000bc5e900ab6ee600208e
:102e6000bb4917f0d1fabb4a00234ff0ff30d361c2
:102e70001384c2e90033138193612060d8e5d7e958
:102e80002423404649461cf099f850e6b24bb3481b
:102e90001a6001220270b249c3f80480284617f074
:102ea000b3fab6f800c02560d6e9012816e6dde9d8
:102eb00008abdde90a01baeb000310936beb0103e9
:102ec0001193dde91023a74fdff8dc92c7e9002357
:102ed000d7e900bcd7e90023d9f80010002a01f196
:102ee0000101c9f8001073f1000102da524263ebec
:102ef00043039d4dc5e90023b8f1010fd5e9002337
:102f000038d0002b08bfb2f1804f3ed30023974d3d
:102f1000974c33704ff00308294600200cf068ffef
:102f2000214600200cf064ffb8f10108f4d19fedb8
:102f30007c8b904c10252046b0ee480af0ee680ad3
:102f400014f0b6fb013df6d18b4c96f80080237847
:102f5000c9f8005043453ff48caeb8f1030f40f080
:102f6000a380d7e900238549002017f04dfa96f891
:102f700000807ce66ca1d1e90001994208bf904233
:102f800080f01481c4f800806de6d5e900010023cb
:102f90006ff07f428b426fea0c0408bf82424fea17
:102fa000d47480f08e80c5e90023d5e900126a4808
:102fb0006a4b41eac4724ff00208042102611970a1
:102fc00086f800804fe66e496e4b0022d1e9000181
:102fd0000ef086ff0d4604461cf046f95ffa80fbb2
:102fe00058461cf0ebfd02460b46204629461df0d4
:102ff00025fc0022644b594d0ef072ff1cf034f991
:10300000c0f30f2444ea0064534860498460c0f868
:103010000cb0032023465a462870404617f0f4f9b6
:103020005b4b5c4a1c605c4bc9f800804ff00108a8
:10303000c2f800b086f8008083f8008013e69feda8
:103040003c2b9bed001b49ec108b18f0edfa534b19
:10305000d7e9000183ed000b18f0b8fa80468946e5
:10306000d5e9000118f0b2fa02460b46404649463f
:103070000af06afe41ec100b3e4814f019fb40497f
:10308000474b81ed000b0022d1e900011df0d6fb7a
:1030900029a3d3e900230ef023ff19f00dfc1df046
:1030a00071fa96f80080b2e5b8f1040f7ff4dfad55
:1030b000d7e900233b49002017f0a6f996f80080d5
:1030c000d5e5d5e9002300214ff49670994208bf59
:1030d000904278d2dff89490dff894804ff0030aa2
:1030e0004ff0000b214900200cf082fe2049002007
:1030f0000cf07efebaf1010ac9f808b0c8f808b0b1
:10310000f0d1d5e900121448144b41eac4724ff0d3
:10311000020804210261197086f80080a3e500bf4f
:10312000000000000000f03f00e1f5050000000095
:10313000000000000000e03f0000000065cdcd4130
:10314000d33d002044e7000000ca9a3bf03b00203a
:103150008ce5000038000020d43a0020cc3d00204f
:10316000e0e50000003c0020103c0020fc3a00207c
:103170000c3b00201c3b0020cf3d002088e60000d7
:10318000403e0020000044400000704128e600005e
:10319000543c0020583c0020d13d0020483e0020f7
:1031a0000000f03fa4e60000643c0020d7e90023c3
:1031b0003849002017f028f9374a022382f80080a6
:1031c000337098464fe5d5e90023002b08bf972ab6
:1031d00039d3324d324c0020804629460cf008fe8f
:1031e00029464046c5f808800cf002fe29464046b4
:1031f000c5f808800cf0fcfdd7e900012949c5f8a5
:1032000008800cf0f5fd84ed000b0022d4e90001ec
:1032100000231af06bfeb0fa80f56d09d4e90001c5
:1032200019f04afb05b940421f4c204a2378204937
:1032300040eac57010610322042093420870327086
:103240007ff48fae15e5d7e900231449144c1046de
:103250000cf0cefd84ed000b0022d4e90001002328
:103260001af044feb0fa80f56d09d4e9000119f0b6
:1032700023fb05b940420c4c0c4b22780c4940ea28
:10328000c570186104239a420b7033707ff410af3d
:10329000efe400bf60e60000d13d00200c3b0020c1
:1032a000083c0020fc3a0020cf3d0020d43a00200a
:0432b000cc3d0020f1
:020000040000fa
:1032b400703a00201c000000000000009c38002030
:1032c4000400000000000000d03b002008000000c3
:1032d400000000006f3a0020010000000000000020
:1032e400593800200100000000000000f93a0020d5
:1032f40001000000000000002c3b0020040000003e
:1033040000000000c93d0020010000000000000092
:10331400503c00200400000000000000ca3d0020d2
:103324000100000000000000d83b00201000000055
:1033340000000000cb3d0020010000000000000060
:10334400e83b00200800000000000000000000200e
:103354000100000000000000543c002008000000b0
:1033640000000000f03b00201000000000000000fe
:10337400cc3d002002000000000000005c3c002066
:103384000400000000000000d43a002014000000f3
:1033940000000000ce3d00200100000000000000fd
:1033a400603c00200400000000000000003c0020fd
:1033b4000800000000000000fc3a0020100000009b
:1033c40000000000703b00200c0000000000000022
:1033d400083c002008000000000000000c3b002016
:1033e40010000000000000007c3b00200c000000e6
:1033f40000000000103c0020080000000000000055
:10340400cf3d0020040000000000000080350020b3
:1034140080000000000000001c3b002010000000a1
:1034240000000000643c00200400000000000000d4
:10343400d33d00200300000000000000343e0020c3
:103444001c00000001000000ffffffff000000005f
:103454000000f03f000000000000f03f000000000a
:103464000000f03f080000206000000000000000a1
:10347400d43600205a00000000000000d63d002091
:103484000100000000000000683c0020080000006b
:1034940000000000d73d00200200000000000000f2
:1034a400c63d00200200000000000000d93d0020bd
:1034b4000100000000000000483c0020060000005d
:1034c40000000000da3d00200100000000000000c0
:1034d400703c00200400000000000000e0380020e0
:1034e4003c00000000000000743c002010000000bc
:1034f40000000000db3d002002000000000000008e
:10350400843c00200400000000000000e93d00208d
:10351400010000000100000001000000ec3d00205b
:103524002400000001000000000000001e00000054
:103534008800000010f700000000000000000000f8
:1035440000000000280000007d000000583e00201c
:1035540004000000010000007d000000183c002071
:103564001000000000000000883c0020040000005f
:1035740000000000dd3d002001000000000000000c
:103584008c3c00200400000000000000283c0020c7
:103594000800000000000000982e00201001000028
:1035a40000000000de3d00200100000000000000db
:1035b400903c0020040000000000000020330020a4
:1035c400a000000000000000303b002010000000bc
:1035d40000000000943c00200400000000000000f3
:1035e4003037002050000000000000008800002058
:1035f4009011000000000000c83d00200100000000
:1036040000000000003600207400000000000000ec
:10361400403b002010000000000000007c39002026
:103624002800000000000000cc3900202400000025
:1036340000000000983c002004000000000000008e
:10364400103e0020120000000100000030303a302b
:10365400343a32353a31433a41303a30320000009c
:10366400243e0020100000000100000001010000c1
:1036740075b10100cdd1010052990000680000200d
:103684001c00000000000000d037002048000000ab
:1036940000000000503e0020060000000100000071
:1036a400ffffffffffff00009c3c00200400000020
:1036b40000000000a43900202800000000000000e1
:1036c400a03c00200400000000000000883b002013
:1036d400180000000000000060340020900000008a
:1036e40000000000a43c00200c00000000000000ca
:1036f400b0300020e8000000000000001c39002069
:103704003400000000000000b03c00200400000071
:1037140000000000df3d0020010000000000000068
:10372400b43c00200800000000000000e81900205c
:103734004006000000000000bc3c00201000000017
:1037440000000000a03b00200c000000000000006e
:10375400503b002010000000000000002e37002025
:103764000200000000000000cc3c00200800000023
:1037740000000000603b002010000000000000007a
:10378400d43c002014000000000000004e3c002047
:1037940002000000000000005a380020020000006f
:1037a40000000000e83c00200c00000000000000c5
:1037b400e03d00200100000000000000f43c002077
:1037c40004000000000000008c3a002018000000f3
:1037d40000000000f83c00200c0000000000000085
:1037e400183800204100000000000000043d0020c3
:1037f4000800000000000000fa3a00200200000067
:10380400000000000c3d0020040000000000000047
:1038140018120020d007000000000000103d002016
:103824001000000000000000c03d00200200000065
:1038340000000000203d00200800000000000000ff
:10384400e83a00201100000000000000503a002077
:103854001f00000000000000283d002014000000ac
:1038640000000000e13d0020010000000000000015
:10387400ea3d0020010000000100000001000000fa
:10388400223e00200200000001000000640000004d
:10389400f03400209000000000000000282c0020dc
:1038a40070020000000000003c3d00200c000000fd
:1038b40000000000c23d00200200000000000000e3
:1038c400483d00202000000000000000ac3b002028
:1038d4000c00000000000000a43a002030000000aa
:1038e40000000000683d002004000000000000000b
:1038f400e23d002001000000000000006c3d0020bb
:1039040004000000000000005c3e002004000000f1
:1039140001000000ffffffff703d00200c000000cd
:1039240000000000c43d0020020000000000000070
:103934007c3d00200c00000000000000e33d00205e
:103944000100000000000000f039002060000000c9
:1039540000000000e43d0020010000000000000021
:10396400503900202c000000000000002820002016
:1039740000080000000000005c3800204000000047
:1039840000000000303c0020100000000000000097
:10399400883d00200400000000000000e53d0020f8
:1039a400010000000000000028280020000400009e
:1039b400000000008c3d0020080000000000000012
:1039c40060320020c000000000000000b83b00206e
:1039d4000c0000000000000098310020c800000026
:1039e40000000000e63d002002000000000000008e
:1039f400403c00200800000000000000943d00202e
:103a04000400000000000000840000200400000006
:103a140000000000983d00200800000000000000a5
:103a2400e83d00200100000000000000a82f002055
:103a34000801000000000000a03d00200800000074
:103a440000000000a038002040000000000000003a
:103a5400c0330020a000000000000000563e0020fb
:103a64000200000001000000010000007436002084
:103a74006000000000000000a83d00200c000000d1
:103a840000000000603e002004000000010000006f
:103a940001000000b43d002004000000000000000c
:103aa400803700205000000000000000b83d0020d6
:103ab4000400000000000000bc3d002004000000e1
:103ac40000000000c43b00200c00000000000000c7
:103ad40000000000000000006666666666666666b2
:020000040000fa
:103ae40070b590f9941086b0044669b9027990f8db
:103af400d850012a08bf0171042d00f28a83dfe83f
:103b040005f08aa64fb278000a46022a1cd094f81f
:103b1400083163b12379012b3fd0002384f80831a5
:103b24000121d4f8f00006f097ff0123237106b0b9
:103b340070bd0022052384f8002184f8d8300222c5
:103b4400012384f894202371637f002b40f0df80ed
:103b5400d4f8ec30002b40f0f88094f90b50c5f306
:103b64004a1000f5020000f58070c0011cf098feb8
:103b740005f01f05e84010f00100c8d12379012b9e
:103b840008bf20710021d4f8f00006f065ff94f816
:103b9400083101222271002bc9d000232371bce714
:103ba40090f80011b34db44bd0f8f000c1f12302ea
:103bb40005eb0111002592b2009512f019fd94f85d
:103bc40000311844c0b2232884f8000140f09c80de
:103bd40094f8d8300133dbb20022052b84f8d830b6
:103be40084f80021abd094f994100a460123237180
:103bf4008be790f80031d0f8f000092b99d8dfe872
:103c040013f0b001a00193018501770169015b0103
:103c140049012101130190f90c1090f80061481c2e
:103c240000f00283012e00f0e78072b2002a53d024
:103c3400022e00f09c80ff2384f894304ff0ff3173
:103c44000135002284f8d85084f80021cde790f89b
:103c54000021d0f8f000042a00f2db82dfe802f051
:103c6400aa929592ba0090f80031d0f8f0002f2b68
:103c740000f2cf82dfe813f0ba02ba02ba02ba0243
:103c8400ba02cd02cd02cd02cd02cd029e029e0229
:103c94009e029e029e02cd02cd02cd02cd02cd0235
:103ca40062026202620262026202cd02cd02cd02af
:103cb400cd02cd0257028600480286002d028600fe
:103cc4000e028600e6018600b601aa019b017f016f
:103cd400d601f5011d023c02c1f34a1000f50200b1
:103ce40001f01f0300f580700121c00199401cf010
:103cf400d1fc1cf095fd1bf0fdfe94f80031c4f8d6
:103d0400e000013384f8003194f994206ee71cf04c
:103d140087fd1bf0effed4f8e430c31ab3f57a7fc5
:103d2400fff416af2379c4f8e400012b04bf002389
:103d34002371002300935149514bd4f8f000012220
:103d44001bf034fb0123237102e71cf069fd1bf017
:103d5400d1fed4f8ec30c01a04287ff6feae00235e
:103d6400c4f8ec30d4f8f0001cf028fcf5e61cf0a4
:103d740057fd1bf0bffed4f8e030c31a062b3ff604
:103d840027afc1e701232371c1e6d4f8e8309a0aca
:103d9400b2f5f87fc3f3091302d11b2b00f075822f
:103da4003849002016f02efbff2384f8943094f851
:103db400d8300fe700220092334b01211bf0f6fab2
:103dc4000028a1d094f8003194f99420013384f8a8
:103dd40000310be7d4f8e80000f00f0084f802018a
:103de40000287ff42daf294916f00cfbff2384f83b
:103df400943094f8d830ede61cf012fd1bf07afef6
:103e0400d4f8e03098423ff47faf94f90c30c3f318
:103e14004a1000f5020003f01f0300f5807006fa53
:103e240003f2c001114662e7194b0022cde90032ca
:103e34004ff4803101230c221bf0c8fa00287ff4d0
:103e4400c7ae61e7e57f94f8203049f2e60249f213
:103e5400e621002d18bf0a460bb142f48072064bce
:103e64000021cde90031012304211bf0affa002821
:103e7400a8d149e7ccd600005103020003ca0400cc
:103e840051f301002098010005ec0100489801005d
:103e940001000200a37fb64a0092002b4ff00003fa
:103ea4000cbf1a46102201934ff0011101231bf09d
:103eb4008dfa002886d127e7ad4bae490022cde923
:103ec40000320123d4f898201bf080fa00287ff4f4
:103ed40079af19e7a64ba8490022cde900320123a6
:103ee400b4f89a201bf072fa00287ff46baf0be74a
:103ef4009f4ba2490022cde900320123d4f8962039
:103f04001bf064fa00287ff45daffde6984b9c49f2
:103f14000022cde9003201234ff400421bf056fa8f
:103f240000287ff44fafefe6914b96490022cde98c
:103f34000032012383221bf049fa00287ff442afa8
:103f4400e2e6b4f81b208a4b009352ba0023019393
:103f540092b201238c491bf039fa00287ff432af66
:103f6400d2e6637f002b40f082810422012384f88f
:103f740000212371cbe594f9f430b4f8fc20834e8e
:103f840083499bb203f10905adb2324042ea0522ee
:103f940012b20e3392b21a430023cde9003392b227
:103fa40001231bf013fa00283ff4aeae0ae794f99c
:103fb400f430b4f8fa20754e76499bb25d1dadb26b
:103fc400324042ea052212b20933e3e794f9f530ac
:103fd400b4f8f820704928339bb2c2f3090242eacc
:103fe4008322d9e794f9f430d4f8e820a4f8fe2029
:103ff4009bb203f10e02b4f8f61092b209339bb2ed
:10400400120142ea832201f00f031a430023cde98f
:10401400003392b2012361491bf0d8f900283ff420
:1040240073aecfe694f9f430b4f8fe20574e5c49f1
:104034009bb203f11105adb2324042ea052212b23d
:104044001633a7e7d4f8e830a4f8fc300023009333
:104054005349544b01221bf0a9f900283ff454aef4
:10406400b0e694f80251504943f6317345f6217293
:10407400012d18bf1a460023cde9003301231bf09c
:10408400a5f900283ff440ae94f80231012b7ff4e7
:1040940099ae9de5d4f8e830a4f8fa3000230093f3
:1040a4003b49404b01221bf081f900283ff42cae20
:1040b40088e600230122cde9013300924ff44073d6
:1040c4004ff4807239491af089ff00283ff41cae7e
:1040d40078e6d4f8e830a4f8f830002300932d49aa
:1040e400304b01221bf062f900283ff40dae69e663
:1040f4000023cde900337d2201232d491bf066f90d
:1041040000287ff465adffe5d4f8e830a4f8f63074
:10411400002300932049234b01221bf047f9002878
:104124003ff4f2ad4ee6002300931c491d4b0122df
:104134001bf03cf900283ff4e7ad43e6143bdbb247
:10414400009305aa1f230821204613f039fd0028f7
:104154003ff4daad059bda0648bf43f0e0031e22c4
:104164005bb284f8002184f8f53094f994203de59d
:104174005103020022000100250001002400010077
:1041840001ca04008700040005ca0400c0c0ffff80
:10419400ae000400ad0004008a00040084000400a2
:1041a400af00040005ec0100d000040088000a0000
:1041b40039020a000a3bdbb2009305aa1f2304213b
:1041c400204613f0fdfc00283ff49ead059bd90664
:1041d40048bf43f0e0035bb284f8f430053367db97
:1041e400142384f8003194f99420ffe4009305aa81
:1041f40040230521204613f0e3fc00283ff484ad5e
:10420400059800284bd00a2384f8003194f99420af
:10421400ece40123237194f80831ff2284f89420fc
:10422400002b7ff4baac82e426b1012e10d084f8be
:10423400941005e5234a0092019633460122032196
:10424400d4f8f0001bf0c2f800287ff4bbad5be5a6
:104254001c4b0022cde90032032133463246d4f808
:10426400f0001bf0b3f800287ff4b2ac4ce5164b19
:1042740016490022cde900320123b4f819201bf0bd
:10428400a5f800287ff49ead3ee500220092104b75
:1042940010491bf08bf800287ff494ad34e50e49e7
:1042a40016f0b0f8ff2384f8943094f8d83091e4f1
:1042b4000949002016f0a6f8ff2384f8943094f8f6
:1042c400d83087e4550802005103020002ca0400f2
:0c42d40005ec010094000a006098010055
:020000040000fa
:1042e0002de9f04f8fb04c6a07948c6a0894446da6
:1042f000dff8b4c3d1f800e0d44f4b680093a04678
:10430000846d8d68ce68019588ea0408046d0d6996
:10431000029608ea0408c46c4e690395a444846daf
:104320008d690c96f44488ea0408046dce690495fe
:10433000e04404eb7868a446446d0d6a05968cea67
:10434000040c846d06952744446dc14ac14bdff8c7
:104350005cb3dff85ca3dff85c93bf4ebf4d0ceaa3
:10436000080c8cea040c009c2744bc44076d446d87
:1043700008eb3c5c87ea08072244046d07ea0c0757
:104380006740019c2244046d17440cebf73788ea20
:104390000c022344029c3a40234482ea0802039c14
:1043a0001a4407ebb2228cea0703a344134083eac2
:1043b0000c03d8440c9c984402eb786887ea02030b
:1043c000a24403ea08037b40d4449c44049b059c1c
:1043d00008eb3c5c82ea080a99440aea0c0a8aea79
:1043e000020a4f4457440cebf73788ea0c03264483
:1043f0003b4083ea080332449e18069b984c07eb27
:10440000b6268cea07021d44324082ea0c0245447b
:104410001544079a06eb756587ea0603a2186244fd
:104420002b407b4014461c44089bdff88cc205ebf4
:10443000345486ea0502a3f524492240a9f14f0924
:104440004f4482ea06033b44cf6adff870923a4653
:104450000f6b09974f6b0a97d1e90e8104ebf33389
:104460000b9185ea0401914419404e44694031445e
:10447000099e7c4f0d9203ebb12184ea0309b444f9
:1044800009ea01066640654406eb050c0a9e01eb4d
:104490007c6c83ea010505ea0c053744274485ea6c
:1044a00003043c44704f714d714e0ceb345481ea5f
:1044b0000c0b47440bea040b3b448bea010b0b9fac
:1044c0009b4404ebfb3b8cea04033d4403ea0b03ef
:1044d00083ea0c03294419440bebb12a0099049f89
:1044e000644d8bea0a030e44234083ea0b03b44471
:1044f00003eb0c060aebf6663d442c448aea0605fb
:1045000005ea0b0585ea0a05254406ebf5555a49e7
:104510005a4b5b4f86ea0504114404ea0a047440ce
:104520008b44a34405ebbb4985ea0904734434403a
:104530000c9adff88cb16c409a44524ba24409ebc0
:104540003a3113441e4489ea01032b4083ea0903ec
:10455000334401ebf363089a4b4c81ea030614449d
:1045600006ea09064e402544354403ebf55c0b9ef4
:10457000039a83ea0c0537440d405d40b944434f2c
:10458000434ea9440cebb944174439448cea040760
:104590001f4087ea0c070f4404eb3737079a3d4d5d
:1045a000dff8209184ea0701164401ea0c0161401a
:1045b0003344ce1807ebf66687ea060345442340ea
:1045c0007b40ac44029a344903eb0c05dff8f8c099
:1045d000324b06ebf5559444644486ea050c0cea2c
:1045e000070c8cea060c644405ebb444069a85ea91
:1045f000040c11440cea060c8cea050c0f440ceb7d
:10460000070104eb31310a9adff8c0c084ea0107e0
:1046100013442f40019a67401e44bb1901ebf3631a
:104620009444ac4481ea030525404d40654403ebc6
:10463000f555059a1a4f1b4e83ea050c17440ceaf0
:10464000010c8cea030c3c44644441e056b7c7e8d3
:10465000db702024eecebdc1019546fdd89880695f
:10466000aff7448b937198fd8e4379a62108b44926
:1046700062251ef640b340c0515a5e26aac7b6e96d
:1046800081e6a1d85d102fd653144402c8fbd3e7ae
:10469000e6cde121d60737c3ed145a4505e9e3a974
:1046a000d9026f678a4c2a8d78a46ad7af0f7cf540
:1046b0002ac68747134630a82211906bbed75c8963
:1046c00097ff2a4381f67187870dd5f4f8a3effc95
:1046d00005ebb444099a85ea0407164407ea030c7b
:1046e0000c9a8cea050c31446144a2f5b82c04eb19
:1046f0003131acf2be6c4f4063443b44069fb14e37
:1047000001eb3373b94484ea01075f404d443d44f3
:104710000d9fdff8009303eb75553e4481ea030ccf
:104720008cea050c3444644405eb3444c14483ea08
:1047300005066640494406eb0109a34f009ea349c4
:1047400004eb7929374485ea040686ea09063b44e6
:1047500033449f4f039e09eb3373374484ea0906c1
:104760005e403d44354403eb755a059d994f2944fd
:1047700089ea030c0c448cea0a0c0899964da4446f
:104780000aeb3c4c0f4483ea0a0181ea0c01b9446c
:1047900001eb09070a99914cdff87c920ceb772723
:1047a0000d448aea0c062b447e408d4d1e4407ebd7
:1047b000367675448cea07037340aa4403eb0a0576
:1047c000029bdff858a206eb75551c4487ea0601e8
:1047d000a4446940049c834b614405eb3141a144ee
:1047e00086ea050c4f448cea010c0ceb0704079f8a
:1047f00001eb74243b4485ea01091e4489ea04095b
:10480000b144794b099e794f04eb3979334481eafd
:10481000040686ea09061d4473190b9e059d09ebe3
:104820007353374484ea090c39448cea030c8c44f2
:104830006f4f01996f4e03eb3c4c0f4489ea030123
:1048400081ea0c013c440f190ceb772767ea03045b
:104850007644b14484ea0c064e4407ebb666ab449a
:1048600066ea0c0e8eea070e5b440eeb030bdff8d4
:10487000b091614c6149dff8ace106ebbb5bc14430
:104880006bea0703cc44734003eb0c050beb754557
:10489000144465ea060383ea0b032744dc19099be9
:1048a000574a584fdff88091dff88081dff880c1e8
:1048b00005ebf424194464ea0b036b4031441944ba
:1048c000029b514e04ebb1611a4461ea05035a445c
:1048d00063401344089a01ebb353a2f5801babf677
:1048e000833b63ea04024a405d441544009a03ebab
:1048f0007545174465ea01025a403c441444069f3a
:104900000b9a05ebf424ba4464ea030b8bea050b1b
:104910005144594404ebb161914461ea050262409b
:104920004b44049f134401ebb353b84463ea0407b8
:104930004f40a844b8440a9d344f03eb7848ae4436
:1049400068ea01055d40a644ae44039c08ebfe2ed8
:10495000a4446eea030282ea080261440d9c1144f9
:104960000eebb161264461ea08041e4484ea0e039a
:10497000019a274c334401ebb353174463ea0e0208
:10498000474482ea0108b844079f03eb784868ea85
:1049900001023c445a40a6449644c26c046d114442
:1049a000826dc1641344426d04eb080505ebfe25de
:1049b00002eb0804c0e91543056500200fb0bde80f
:1049c000f08f00bf22619d6d44eabea4604bbbf630
:1049d000a9cfde4b70bcbfbec67e9b288530efd40e
:1049e000fa27a1ea39d0d4d9e599dbe6f87ca21ff1
:1049f0006556acc4442229f439a093fcc3595b65c5
:104a000092cc0c8fd15d848535f23abdbbd2d72aca
:104a100091d386eb0c38e5fd051d88044f7ea86f09
:104a2000a72394aba111084ee0e62cfe144301a38a
:044a3000827e53f738
:020000040000fa
:104a34002de9f04faa4c844289b040f0d780a94fa9
:104a440097f90000431edbb2012b00f2cf80dff8a0
:104a5400bc82d8f80050002d00f02d81012800f010
:104a6400c8802388002b64d0dff874920026eb6c96
:104a74001846002b52d06b6c9b69984795f84330cd
:104a84005b064bd56b6ce86c5b6998470028c0f2f9
:104a9400c080022842d140f20113adf81e306b6c85
:104aa400286d1a6c40f2dc5c00230693cde90433d4
:104ab400adf81c3004a9adf81ac090470498e86317
:104ac400bdf81430a5f84030bdf8163095f84320f1
:104ad400003318bf012363f3451285f843209df882
:104ae4001d30bdf81a1085f868309df81c30b5f8f3
:104af400422085f86930a5f8661043f6bf739df827
:104b04001e1085f86a10134043f400439df81f20db
:104b140085f86b2043f04003a5f842302388013622
:104b24009e4205f17805a2d397f900e0bef1010f8a
:104b34007cd06d4b1b68002b00f081816b4e6c4a5e
:104b4400dff8ccb133681068dbf8001003430b4383
:104b54004cd01168002940f0ab813268d8f800507d
:104b64002388002a40f0b6803bb318460092002206
:104b7400604f164640f2866495f84210490602f1e9
:104b8400010205f1780311d533f8141c0c4202d04c
:104b940039680131396095f86c1011f0020f1cbfaf
:104ba4006ff3410185f86c1023f8146c82421d46a2
:104bb400e2d3009b002b40f045814f4c04f5147563
:104bc40054f8103c1bb134f8082c02b19847103447
:104bd400ac42f5d1dbf8003043b1484844692cb10c
:104be400103000234ff480720121a04709b0bde8c2
:104bf400f08f434e3368013300f0cf812388002bbc
:104c04007ff432af02233f493b70002019f042fd8c
:104c14008fe7032304222946484615f0c9ff95f877
:104c2400433043f0800385f8433077e7d8f80060d9
:104c3400002be7d000252a46a446314607e00efaa9
:104c440002f005430132934201f1780110d091f84a
:104c5400430000f00c04042cf1d110f0800f0efa84
:104c640002f4c3d091f842004006ebd52543e9e7ae
:104c740001229a40013aaa426446c3d0002b00f0b4
:104c84004581dff85c904ff0000805e023889845e3
:104c940006f1780680f03a81b6f8423044f24002d8
:104ca4001a4208f10108f1d0032304223146484690
:104cb40015f07effeae7144b04a81b689847002808
:104cc40094dc40f031810498002800f02d8103f039
:104cd400c5fe8be7009100223260914653bb6ee023
:104ce400bc3a0020e23d0020583d00206c3d0020ed
:104cf400443d00203c3d0020582c0020282c00205e
:104d04005c3e0020004b0100683d00205c3d00201b
:104d1400483d002095f84330980605d556f8343cb4
:104d240056f8280c9b6b9847238809f101094b45d9
:104d3400354644d995f842305f0605f17806f3d537
:104d440056f8343c56f8280c5b6d36f8167c9847b8
:104d540007431bf0b3fd36f8163cbfb223ea070342
:104d640026f8163c1bf0acfd36f8143c56f8342cef
:104d740056f8280c126d3b4326f8143c39469047ec
:104d840017f0160fc6d0b64f03e0856238461af006
:104d94008dfb56f8343c56f8280c5b6b0022114608
:104da400984701460028f0d1ae4a136801331360d6
:104db400b0e73368002b45d0012331600093002312
:104dc400dff8d4a2dff89892029348461af07efbeb
:104dd400054618b30269806a936891899e89876d34
:104de4006b6176ba0e330e399181b6b2ab612fb1d5
:104df400c36d32462946b8470028e6d140f606037b
:104e04009e4200f0fa80b6f5006f00f0208128463b
:104e140001226ff00c0119f045fed6e71bf04efda0
:104e2400baf8183023f00103aaf818301bf048fd33
:104e34002088d8f8005000287ff499aeb9e617f01e
:104e44005bfe7be6884ca4f1200a0af51c7503e09e
:104e5400a1811034ac4220d02368002bf9d0b4f9de
:104e64000a20824b002af4d01968a3895b1a9bb2ea
:104e740019b200291344ebdc26896768a381a4ebeb
:104e84000a0146f00206204600230222c1f30f1154
:104e94002681002fddd0b847dbe71bf00ffdbaf801
:104ea400083023f00203aaf808301bf009fd84e659
:104eb4000025156018f0c4ff6d4bdff8e0911f6802
:104ec4002b463a46cde9000119f05cfc694ac9f861
:104ed4000000a2fb073292092b46dde9000119f01c
:104ee40051fc654a614913680f686449db1bab4296
:104ef400086013601edd32682388d8f80050b2b908
:104f0400002b9fd018460123009330e6ff233b700b
:104f14001bf0e4fb00283ff469ae1bf0d9fb2a46e2
:104f2400574915f06ffa61e600233b705ee60122f3
:104f34000092d0e62188d8f8007003f24d13136074
:104f440000293ff436af00bf97f842305b0605f105
:104f5400010511d57b6c386d5b6a984797f86c3006
:104f640003f0010243f00203904260f382031cbf8a
:104f740060f3000387f86c3023889d4207f17807bb
:104f84001846e1d33268d8f80050002acfd1002b5c
:104f94003ff458af01230093e9e53a4a00211af09f
:104fa4009bfd3060013013d019f0d4fd314a2f49f4
:104fb40000f2e733a2fb03239b094ff47a7202fb4e
:104fc40003f247f6fe73b2fbf0f29a420a606ed91e
:104fd4001bf084fb002863d113f0b0fcff233b706b
:104fe4001bf07cfb00283ff401ae1bf071fb4ff07b
:104ff400ff32254915f006faf8e5244b029f039386
:1050040018204ff4803100262b6a214a23f47c13a4
:105014000b432b62294610441af048fa17f0010397
:105024007ff4d3ae039a518809010aeb01000122ef
:105034000789456817430781029f02fa06f637433a
:105044000297002d3ff4c1ae0909a847bde6029bb3
:105054005f08104b0393242000210126d4e700bfee
:10506400fc340020403d0020482c0020503d00200e
:10507400543d0020d34d62104c3d0020603d002083
:10508400304b010085dc0100c04a010060040200cd
:10509400f034002068040200282c0020643d002025
:1050a4001bf016fb0122184915f0acf994e7174dd3
:1050b400174b02f5a670b0fbf2f002fb00f028607b
:1050c40011b203f5147002e0103398420fd053f874
:1050d400102c002af8d033f9062c002af4d08a4286
:1050e400b8bf0a4623f8062c23f8042cece72388df
:1050f400d8f80050002b7ff4b7ac97f90030012b9f
:105104003ff480ad15e500bf904a01004c3d0020fe
:04511400582c0020f3
:020000040000fa
:105118002de9f04fc64b83468bb01868dbf8043096
:1051280003930023cde90633cde9083398b18946c6
:10513800c049164691f8da20012a0d461a4605d1cb
:105148001ee000bf95f8da30012b0dd00132824203
:1051580005f1e805f6d1dbf80030b7491b6803987c
:1051680098470bb0bde8f08f6a1ad310c3ebc3128f
:1051780003ebc202c2eb823203eb021202eb8202a1
:10518800dbf80030ad495b6803989847ac4bad48f5
:105198001b682b609feda47b03eb83035b0002215c
:1051a80041f28932ab602974002340f2be516a8211
:1051b800b9f1010fa44ac5f8d0b085ed087ba86104
:1051c8006b602b75c5e90a33c5e90c33c5f8a03007
:1051d80085f8d930c5e92533c5e92933c5e92b3325
:1051e800c5f8b43085f8db30c5f8c030e960c5f8db
:1051f800dc2088bf012440f2e58000bf56f8247007
:10520800924938464fea84081af08efe002800f0ca
:10521800ce808f4938461af087fe002800f0c780f4
:105228008c4938461af080fe002800f02d818a4902
:1052380038461af079fe002800f02681874938465a
:105248001af072fec0b1864938461af06dfe98b160
:10525800844938461af068fe002840f03081b0448e
:105268000134d8f80400002800f0f381012206a9cf
:1052780013f042f8069b6ae0b0444ff00103d8f8f7
:1052880004702b7438461af013fe00f1ff3a07eb4e
:105298000a0280467449049210461af045fe013409
:1052a800049a002800f0f380104670491af03cfe7a
:1052b800002840f0ab814ff47a730493baf1000fe1
:1052c80000f0c4814ff0010abb1e51464ff0000e9a
:1052d8009844a2467b1e7246049805950c460ce03d
:1052e80063490eeb8e0ca1fb0051002c40f0db80d3
:1052f80007eb4c0ec808984511d013f8011fa1f10f
:1053080030075ffa87fcbcf1090fe9d92e29f2d1e1
:10531800049998454ff0000401fb02f2edd1049b7b
:10532800059d9342544600fb0efa00f2c1800aeb39
:105338000200dbf800100090cde9062a53464f68ba
:10534800dbf804004b49b847dde906321344013461
:10535800a145ab613ff652af95f8dd30002b31d057
:10536800012b7ff4feae039cdbf8003042491b683a
:1053780020469847dbf8003040491b68204698478c
:105388002b7c012b00f02181022b00f02d81d5f818
:10539800d0306a8a1b6803985b683949984705f1d9
:1053a800da00022116f0ecff0bb0bde8f08f012304
:1053b80085f8dd300134a1453ff620af95f8dd30a2
:1053c800002bcdd1002105f1800016f039fbc5f87e
:1053d800d400002800f00f812b7c022b00f0fd8008
:1053e800012b09bfab89dfed276a06ee903af8ee8c
:1053f800666aab69124adb0807ee903af8eee77a7c
:1054080092ed007a87eea66a05f1da000a21b8ee75
:10541800477ac7ee067afceee77ac5ed247a16f0ed
:10542800afff0bb0bde8f08f0000000000000000e7
:10543800b43c0020b030002038e5000064e50000ee
:10544800b83c0020809698000000b40588e300006e
:105458008ce3000098e300009ce30000a4e3000054
:10546800a8e30000d8e30000b4e30000b8e30000bc
:10547800cdccccccbce30000cce4000008e50000b7
:105488002ce500000000000001232b7492e7104671
:10549800b2491af049fdb24a00280cbf4ff47a739a
:1054a800134604930ae702eb820207eb420222e763
:1054b800049b03fb02f31a460aeb030039e7a949e8
:1054c80038461af031fd00283ff4c9aea6493846df
:1054d8001af02afd002800f09f80a44938461af0e7
:1054e80023fd002800f09880a14938461af01cfdd9
:1054f800002800f0b0809f4938461af015fd0028b2
:1055080000f0a9809c4938461af00efd002800f0ea
:10551800b6809a4938461af007fd002800f0af8097
:10552800974938461af000fd002800f0ba809549de
:1055380038461af0f9fc002800f0b3809249384642
:105548001af0f2fc002800f0da80904938461af088
:10555800ebfc002800f0d3808d4938461af0e4fcb3
:10556800002800f0bc808b4938461af0ddfc002882
:1055780000f0b580884938461af0d6fc002800f0bb
:105588001f81864938461af0cffc002800f01881a0
:10559800834938461af0c8fc30b1384681491af0b8
:1055a800c3fc00287ff406afb0440134d8f80400e7
:1055b800002800f0c980012206a912f09dfe069b72
:1055c800332b40f2c280eb60f4e6dbf8003076491a
:1055d8001b68039898472b7cd6e6b5f8de3006eeb4
:1055e800903af8ee666a04e7dbf800306f491b680a
:1055f80003989847cbe6dbf800306d491b680398a1
:1056080098471bf01bf8c5f8d400e5e60122384698
:1056180006a912f071fe2de6b044002385f8dd30ae
:10562800d8f80400013440b3042206a912f064fe3d
:105638009df81800079b089a85f84530099b85f85e
:10564800440085f8462085f84730b3e65046524670
:105658006fe606900ee6b0440134d8f80400f0b1c5
:10566800012206a912f048fe524b069a1b6803fb5a
:1056780002f30022c5e901239ce60690dae7b0446c
:105688000134d8f80400002800f0a680012206a9f9
:1056980012f032fe069b6b600023ab608ae6069030
:1056a800e2e7b0440134d8f804004378782b44d0ba
:1056b800012206a912f020fe9df81820202a39d0d0
:1056c80034d9a02a2fd0c02a26d110232b75dbf875
:1056d80000102b7d4f6803983749b8476ae6b044f5
:1056e8000134d8f80400d0b1012206a912f004fe52
:1056f800304b069a1b6803fb02f32b605ae6b04452
:105708000134d8f8040060b1012206a912f0f4fdb2
:10571800069ba5f8de304de600232b75d7e70690eb
:10572800e6e70690f4e720232b75d0e7002af3d1ab
:105738002a75cce708232b75c9e7408840ba80b2a0
:1057480018f0cefe0246b9e70690d5f8d0301b49ce
:105758001b6803985b683422984702e5b8e30000a9
:1057680040420f00dce30000e8e30000ece3000047
:10577800f8e30000fce3000004e4000008e4000093
:1057880010e4000014e4000048e400004ce40000c9
:10579800cc24010054e4000060e4000064e400004c
:1057a8006ce4000070e4000024e5000028e5000037
:1057b800a4e40000b83c00201ce4000078e40000e9
:1057c800b0440134d8f8040040b1012206a912f00f
:1057d80093fd069b6b82ede506905be70690f8e784
:020000040000fa
:1057e8005b5054502d474d5d2054582d4d617463c6
:1057f80068207265672064756d7020286c61737409
:10580800207772697474656e2076616c756573298a
:105818003a0d0a00202054584d43544c202030782b
:105828002530386c58202054584d50415448203069
:10583800782530386c580d0a000000002020545894
:105848004d5041544c2030782530386c5820205425
:10585800584d4d534b482030782530386c580d0a38
:1058680000000000202054584d4d534b4c203078f8
:105878002530386c58202054584d4c4f4320203048
:10588800782530386c580d0a000000005b505450e1
:105898002d474d5d20574149545f54584d43544c52
:1058a8002063622074696d656f75742c207265744d
:1058b80072790d0a000000005b5054502d474d5d71
:1058c800205458504d444554206f6b2c2053796e0a
:1058d80063202325750d0a005b5054502d474d5dfc
:1058e800205458504d4445542074696d656f757443
:1058f8002061667465722053796e63202325750dc7
:105908000a0000005b5054502d474d5d2052454120
:10591800445f53544154555330206661696c656443
:105928002c2072657472790d0a0000005b50545087
:105938002d474d5d20574149545f535441545553a9
:10594800302063622074696d656f75742c207265f0
:105958007472790d0a0000005b5054502d474d5d5c
:1059680020535441545553303d30782530386c58c5
:105978002061667465722053796e63202325750d46
:105988000a0000005b5054502d474d5d205454537d
:105998004341206e6f74207365742061667465726c
:1059a8002053796e63202325750d0a005b505450ef
:1059b8002d474d5d20574149545f54545343415f2f
:1059c800482063622074696d656f75742c20726558
:1059d8007472790d0a0000005b5054502d474d5ddc
:1059e80020574149545f54545343415f4c206362ec
:1059f8002074696d656f75742c2072657472790de9
:105a08000a0000005b5054502d474d5d2057414916
:105a1800545f434c4541522063622074696d656f41
:105a280075742c2072657472790d0a005b474d5da0
:105a380020232575202074313d2530326c753a2598
:105a480030326c753a2530326c752e2530396c75cc
:105a58000d0000005b5054502d474d5d20574149c3
:105a6800545f464f4c4c4f5755505f54585f444f06
