:020000040000fa
:10000000f0ff0320f58a0100c1020200c5020200d0
:10001000cd020200d1020200d50202000000000061
:10002000000000000000000000000000dd020200ef
:10003000c902020000000000dd020200dd02020031
:10004000dd020200dd020200dd020200dd0202002c
:10005000dd020200dd020200dd020200dd0202001c
:10006000dd020200dd020200dd020200dd0202000c
:10007000dd020200dd020200dd020200dd020200fc
:10008000dd020200dd020200dd020200dd020200ec
:10009000dd020200dd020200dd020200dd020200dc
:1000a000dd020200dd020200dd020200dd020200cc
:1000b000dd020200dd020200dd0202006102020038
:1000c00069020200dd020200dd020200dd02020020
:1000d000dd020200dd020200dd020200dd0202009c
:1000e000dd020200dd02020000000000000000004e
:1000f00000000000dd020200691201006912010027
:10010000691201006912010031c1010031c1010011
:1001100031c1010031c10100dd020200dd02020037
:10012000dd020200dd020200dd020200dd0202004b
:10013000dd020200dd020200dd020200dd0202003b
:10014000dd020200dd020200dd020200dd0202002b
:10015000dd020200dd020200dd020200dd0202001b
:10016000dd020200dd020200dd020200dd0202000b
:10017000dd020200dd020200dd020200dd020200fb
:10018000dd020200dd020200dd020200dd020200eb
:10019000dd020200dd020200dd020200dd020200db
:1001a000dd020200dd020200dd020200dd020200cb
:1001b000dd020200dd020200dd020200dd020200bb
:1001c000dd020200dd020200dd020200dd020200ab
:1001d000dd020200dd020200dd020200dd0202009b
:1001e000dd020200dd020200dd020200d1e80100b2
:1001f000dd020200dd020200dd020200dd0202007b
:10020000dd020200dd020200dd020200dd0202006a
:10021000dd020200dd020200dd020200dd0202005a
:10022000dd020200dd020200dd020200dd0202004a
:10023000dd020200dd020200dd020200dd0202003a
:10024000dd020200dd020200dd020200dd0202002a
:10025000dd020200dd020200dd020200dd0202001a
:04026000dd020200b9
:020000040000fa
:10026400f8b500bff8bc08bc9e467047fdcd010040
:10027400f8b500bff8bc08bc9e467047d9cd010054
:020000040000fa
:08028400a8b800000100000011
:020000040000fa
:10028c002de9f04f0f218fb00a201ef0a9fcc207f8
:10029c0006d482461af0020f28d10fb0bde8f08fb9
:1002ac00029013e0e669337b1b09042b16d9b5ebde
:1002bc00830f13db226a12f40033039300f0c8801f
:1002cc006ff00e0120460a221ef05ef90a201ff084
:1002dc00c1fc044628b1a58d132de3d86ff00d0198
:1002ec00f0e7ddf808a01af0020fd6d0dff8cc83c7
:1002fc00d8f80030002bd0d00025dff8c4932b4663
:10030c00d9f8002052f823400cb394f870300b2b22
:10031c001dd094f8843013f0c0061abfdf091026e4
:10032c00374658075bd419072bd494f87030052b3b
:10033c0017d096bb94f8841011f0020a38d194f8b7
:10034c0085305a0603d594f87030032b5fd00135f5
:10035c00d8f800202db295422b46d1d30fb0bde872
:10036c00f08f1ef097fc236bc01a0028e1db0122f2
:10037c001421204605f0eefc2046002112f03efc34
:10038c00e5e71ef087fce36ac01a0028cddb94f881
:10039c007030052b00f0ef811026314687f00102fa
:1003ac00204605f0d7fc94f8841011f0020ac6d050
:1003bc001ef070fc636ac01a0028c8db94f8701039
:1003cc004b1e082b00f24682dfe813f019022d02b7
:1003dc000b0213004402dd014402440213001ef020
:1003ec0059fca36ac01a002894f88430a8bf1026c0
:1003fc0099e794f87230042b40f22082002f40f0e1
:10040c00fc8301221421204605f0a4fce4e11ef03b
:10041c0041fc636ac01a002899db94f8732094f8a5
:10042c0080309a4200f09c8302221021204605f075
:10043c0091fc1ef02ffc9f4bb4f86c101b689e4a6d
:10044c0003fb01f3a2fb032300eb931060627ee736
:10045c001ff0dcfe824620461ff0d4fe236a079074
:10046c009b0520d4daf800300b93079b039a1b688a
:10047c000c934ff4c0606bbaadf834000c210ba890
:10048c00adf8363018f06af8226ac043570783b2c9
:10049c0040f1da812a463146204617f097f910b11f
:1004ac006ff009010ee730461df0befdd4f81c803c
:1004bc00337bb8f8022005921b099b000693002a97
:1004cc003ff4feaebaf800107c4abaf80230b8f825
:1004dc00000009900b441168059a034453409bb2e9
:1004ec00049300293ff4ecae754bd4f828e0d3f814
:1004fc0000c00895002213469146274606e0ae45fb
:10050c0013d001331bb28b421a464bd25cf822201b
:10051c00002af6d092f870000b28f2d092f87140b5
:10052c00012ceed8556c002de9d1b2f86eb010b399
:10053c0004985845e5d1d8f80040d06d8442e0d1fc
:10054c00d46bdaf800008442dbd1012382f87130dd
:10055c00079b089dc2f844e03c46002b00f0188431
:10056c0092f88730079943f004030968116482f804
:10057c00873091463de005985845c2d1b9f1000f3e
:10058c00bfd192f88700050600f19983400640f12f
:10059c009d83012cb5d1d46bdaf80000844208bfde
:1005ac009146aee73c46089db9f1000f3ff488ae8a
:1005bc00daf80030c9f83c30012389f87130079b18
:1005cc00c9f844e043b199f887201b68c9f840305a
:1005dc0042f0040389f88730049aa9f86e20099a2e
:1005ec00d9f80030a9f85c20059aa9f85e20c9f862
:1005fc00103022690698938999f8851096f80d8029
:10060c00d6f808b077681b1a93814b0607d599f872
:10061c00843000229b0789f8732040f13e8199f8c1
:10062c00863099f870106ff3861389f8863000299c
:10063c0048d118f0040540f0478118f0100f40f035
:10064c00d78218f0020100f03f817b1cc9f85430ae
:10065c00304617f0abfe99f88530a9f86600c3f365
:10066c000113002b00f0208313f1ff3318bf01237b
:10067c0099f8872063f3451289f88720012212210b
:10068c00484605f067fb022389f87030b9f87620ec
:10069c00039b1a4000f06182d9f87850002d00f0cd
:1006ac005c82a16ad9f87c30b9f97400a8470221a0
:1006bc0008e600bfe83c0020d34d6210e43c00206b
:1006cc00e03c0020012900f0d180069b05f1140ac2
:1006dc00aaeb030a1ffa8afaaaf114039bb2049339
:1006ec0018f0010318bfaaf1130ad9e9075014bf77
:1006fc001ffa8afaddf810a0069318f0020f1cbf3f
:10070c000af1010a1ffa8afa8542c0f06c82d9e913
:10071c0005232d1a9b1a5d1babb20593d9f85430e7
:10072c00fd1abaf1000f00f05282059b002b00f06d
:10073c005582002dc0f2b382ab4207d8059a954280
:10074c00a2eb0a0302db9d4200f3488218f0060f6d
:10075c0040f0978218f0100f98d08b1e072b00f2e8
:10076c003381dfe813f0b500b500b500b500b50076
:10077c003101b500aa001ef08dfa236bc01a0028b7
:10078c00fff60aaef3e594f87230042b3ff636ae62
:10079c000133e26cdbb200271021d4e9036084f84a
:1007ac0072305200831bb042e2649bb204d2d4e993
:1007bc000002121a13449bb2b4f86000226d266139
:1007cc00d21a03442265a4f860300022204605f0ba
:1007dc00c1fa002f3ff4bbad2046002112f00efaf7
:1007ec00b5e594f87230042bd2d9042284f8702029
:1007fc0027bb20460122112105f0acfaa7e594f89d
:10080c007230032b40f2cd81c94aca4b11684ff4a8
:10081c007a7202fb01f2a3fb023292091201052348
:10082c0000270221b9e794f87230022b00f2bf8145
:10083c000133dbb2e26c00271221aee70133dbb2ed
:10084c00e26c00271121a8e71a462946304617f01a
:10085c0085fe24e6002e3ff47aad002f40f06e8426
:10086c0031462046012205f075fa70e518f0040fa8
:10087c007ff40caf18f0100a00f0c481d9f8505076
:10088c00ab4500f0bf810a46c9f850b00421484678
:10089c0005f060fac9f85050f8e61ef0fbf9a44bcd
:1008ac00b9f86c101b68a34a03fb01f3a2fb0323ea
:1008bc0000eb9310c9f82400b1e6d9f8503001339d
:1008cc009b457ff4e3ae0021484612f097f9dde634
:1008dc00d9f8503007930229184600f0fe81d9f858
:1008ec0010c0d9f80820b2eb0c0105d5d9f80030ae
:1008fc00c91ad9f804301944079babeb0303591af6
:10090c00002911dd99f8863003f08400042840f0aa
:10091c00ec81012940f0e981079843f08003013014
:10092c00c9f8500089f88630d9f80ce00eeb0003ba
:10093c000993f445aceb0303079380f0e781d9e905
:10094c00003101eb0b00c01a0893079b0344002bea
:10095c00079340f32f82089b0798cb1a834280f0b1
:10096c00468299f883300133dbb2022b89f883304d
:10097c0000f2b083d9f83830002b40f0368396451e
:10098c0000f0f481d9f850300793f389b9f86a2054
:10099c0007999a4238bfa9f86a30b9f860205b44cd
:1009ac005b1a9bb232b92bb199f8842042f0400209
:1009bc0089f8842099f87010a9f86030042900f0a7
:1009cc00cc81062900f05e8318f0200f7ff45eae18
:1009dc00a1f10803012b7ff659ae06293ff456ae60
:1009ec00049900293fd0337bd9f81c0007901b09d0
:1009fc00002dd9f818204fea830340f3488204995c
:100a0c0001eb05080599884504dd491b89b2049161
:100a1c0001eb050807980146414433448a420a9386
:100a2c0080f07083531c1b1a5b1b014600f1428340
:100a3c0001269bb229440aaa00962046059316f07b
:100a4c0029f9dde904230096d31a07909bb20aaa70
:100a5c00d9f81410204616f01df9079b034498b2e0
:100a6c00049b834238d0baf1000f14d099f870303f
:100a7c00033b022b84bfd9f81c30c9f8203099f8fd
:100a8c008430da0600f1fd8143f010031e0789f86b
:100a9c00843040f18182069b002b3ff4f7add9f8ee
:100aac0054200aeb07060132b2427ff4efad99f8fd
:100abc00851099f87030c9f8542041f0040203995c
:100acc00023b41f48061039189f88520032b28d8df
:100adc00dfe803f03a32201ad9f85830591c00f0ec
:100aec002183b9f86420ab421a4440f20f8390453d
:100afc0004d8984502d3521b93b20493049ba9f8d3
:100b0c006430c9f85850aee700221021484605f071
:100b1c0021f9d8e6d9f850309b45f5d0062389f851
:100b2c00703001221021484605f014f9aee500bfe3
:100b3c00e83c0020d34d621099f8863008225d06ff
:100b4c0089f87020edd5a1e5092389f870300122d0
:100b5c001121484605f0fef898e50221fff7b2bbdb
:100b6c0094f88460012120460e4016f047fa94f860
:100b7c00843043f00103514684f884304ff48052a2
:100b8c0020461af09dff002e7ff4e1ab94f88430e0
:100b9c000a2266f3000384f8843084f87020fff78f
:100bac00d6bb0133e26cdbb200270221f5e594f8e9
:100bbc00842012f001027ff421ac002f40f08880d9
:100bcc0020460122022105f0c5f8fff7c0bb002d1d
:100bdc003ff4bcad059bab423ff6b8ad18f0040f2b
:100bec007ff454ad9de7451b013dabb2059395e5f4
:100bfc00c9f850b02a46042188e70133dbb2e26c15
:100c0c001421cae518f0020f3ff440adf389a9f89e
:100c1c006a307a1ca9f86030c9f85420304617f0b5
:100c2c00c5fb99f88530a9f86600c3f30113002bb6
:100c3c0061d0a3f10103b3fa83f35b0999f8872020
:100c4c0083f0010363f3451289f887200122baf17e
:100c5c00000f3ff414ad1021484605f07bf899f8cd
:100c6c00853003225d0689f8702000f1938099f895
:100c7c0084306ff3410389f884304ff4807303930d
:100c8c0004e518f0040f3ff41eae99f8853043f0dc
:100c9c00020389f885304ff40063039313e60aebe3
:100cac000503002b9add51e5d9e9002300eb400048
:100cbc009b1ab3eb500f34bf01230023d8e4b2f8d6
:100ccc005cb0099dab457ff41cac5fe4914618e425
:100cdc0001331746dbb2e26c5fe59b457cd1032305
:100cec0089f87030fd330393f9e500221021484652
:100cfc0005f030f8cae4d9e9002300eb40009b1a58
:100d0c00b3eb500f2cbf0123002397e7079b5b44e9
:100d1c00002b1846079304ddd9e900135b1a98429f
:100d2c0065d9f4453ff42bae99f883300133dbb22f
:100d3c00022b89f883307ff61daed9f850307344fe
:100d4c00a3eb0c03c9f8503099f88430c9f810e0c3
:100d5c0043f0800389f8843011e6079b9b4500f033
:100d6c00798118f0200f3ff43bae8fe499f8853071
:100d7c00d80700f1f380590600f1b48199f884305a
:100d8c00d9f8502007926ff3410389f88430fce5c1
:100d9c0091462ee41df07effd14bb9f86c201b68f8
:100dac0003fb02f34ff47a72b3fbf2f30344c9f87a
:100dbc0024305ce799f883300133dbb2022b89f8dd
:100dcc0083307ff6d7ad099ba3eb0c0c089b591a0b
:100ddc006144c9f85010b7e7c9f850b0012204219a
:100dec00484604f0b7ff079bc9f850304ee440f278
:100dfc00dc53c9f834301df04dffb94bd9f80ce079
:100e0c001a68d9f83430b9f88310d9f810c002fb3d
:100e1c0003f34ff47a72b3fbf2f2079b024421f412
:100e2c000351c9f838207246734421f03f016245e2
:100e3c00a9f88310c9f80c309e4600f2c5806345b2
:100e4c0000f22881d9f804108b4206d3d9f800207f
:100e5c008a1a9b1ac9f80c309e468c4506d3d9f8d1
:100e6c000030cb1aaceb0303c9f8103099f8703092
:100e7c00032b00f0a480082b00f0a180d9f80820e7
:100e8c007de501221021484604f064ff03e6294465
:100e9c001ffa81fc0599614528bf614688465b1b9a
:100eac00411833448a420a936ad2561c331a0125dc
:100ebc009bb201460aaa00952046049315f0eafe5f
:100ecc00049b0095a8eb030305909bb20aaad9f8e2
:100edc001410204615f0defe079b0599d9f8142056
:100eec009b1b0144434488b2134480457ff4bbad43
:100efc0099f87020d9f85410c9f81c30033a4144c1
:100f0c00022ac9f8541003d8039a42f400720392cf
:100f1c00d9f85820501c3ff4a6adb9f86400a2ebe8
:100f2c0008028018c9f8582013d4002a3ff79bad4b
:100f3c00d9f81820034401449342c9f85410c9f855
:100f4c001c3006d9d9f81410521ad2431344c9f8dc
:100f5c001c304ff0ff33c9f8583084e5d9f85030c5
:100f6c0007939b457ff411ad99f886305a077ff5ae
:100f7c000cadb9f8843023f48173a9f8843004e5fe
:100f8c0001230093079943460aaa204615f082fed6
:100f9c00d9f81c304344a8e743f0080289f88420b0
:100fac001df078fe4e4b1a68642303fb02f34ff4da
:100fbc007a72b3fbf2f30344c9f82c306be5039b54
:100fcc0043f00403039359e7d9e900218a1a6244d8
:100fdc0093427ff639afd9f85000c9f81030821a15
:100fec001a44c9f850209c462ee71df053fed9f840
:100ffc003830c31a002b4adbd9f834305b00b3f518
:10100c007a4f28bf4ff47a43c9f834301df042feb2
:10101c00334bd9f850101a68d9f83430d9f80ce0a1
:10102c000893d9f8103007930eeb010c089b079925
:10103c0002fb03f3aceb010c4ff47a728e45b3fb5d
:10104c00f2f30344c9f83830c9f850c070d8d9f855
:10105c00082079e699f886305b077ff582ae1df0a3
:10106c0019fe1f4b1a6841f2883303fb02f34ff44d
:10107c007a72b3fbf2f305220344c9f8303089f8d5
:10108c0070206ee6079b9b457ff400ab1be4d9e90f
:10109c00022e74e4d9f85020d9f80410c9f8103095
:1010ac00a2eb0c021a448b42c9f85020fff4deaebe
:1010bc009c46cbe6d9f81410511a691a079a0139d3
:1010cc0001230a44114600930aaa049b204615f0fa
:1010dc00e1fdc5e4d9f850307344a3eb0c0c75e674
:1010ec00e83c00201df0d6fd194bb9f86c201b68ac
:1010fc0003fb02f34ff47a72b3fbf2f30344c9f827
:10110c0024303be6079a01232a44dbe790457ff61f
:10111c00aaacaa42fff4a7ac049aeb1a1a44a9f899
:10112c006420a0e4049bc9f85850a9f864309ae4f0
:10113c00d9e90031d9f80820089347e694f87230c1
:10114c00e26c01333146dbb20027fff726bb00bf50
:04115c00e83c00204b
:020000040000fa
:101160002de9f04f2ded028b0f219bb01f201df0bc
:101170003dfd002800f0a580dff86c83d8f8003032
:10118000002b00f09e80dff864b39fedcd8b5c46b2
:10119000002700bf94f8da30012b00f08a80023b70
:1011a000102b00f2c586dfe813f0d502a503260256
:1011b0006402380217031302a3016a01000200014e
:1011c000de00cc00b9001100a1009100d4f8d030ad
:1011d000618a5d6804f1440201201ff03df8421c61
:1011e000a08704f1da0600f02f85b74a4ff480712a
:1011f00000231cf0abfde268b4f93c00052109f0c6
:1012000071f830b9d4f8d030b0491b6828461b6853
:10121000984702220621b4f93c0009f063f830b97e
:10122000d4f8d030aa491b6828461b689847d4f8e0
:10123000d410b4f93c0019f0c1f85422002105a8db
:101240001ef07cfd05a9b4f93c0015f0c1fbd4f8f3
:10125000d030bdf85a201b689e49a4f87e2028464d
:101260001b689847d4f8d030608a94f847101b6800
:1012700094f846200092cde90110284694f84420c5
:101280005d68954994f84530a847112130461af019
:101290005ffe1df005fdd4f8903002461344c4f8fb
:1012a00094208e48c4f89c304ff4c86255211ef03b
:1012b00045fdd8f8003001379f4204f1e804fff4ff
:1012c00069af1bb0bdec028bbde8f08f204614f077
:1012d00063feb4f93c001af01ffad8f80030013769
:1012e0009f4204f1e804fff455afeae7227db4f928
:1012f0003c000b2108f0f6ff204609f099f901287f
:1013000000f06d850228d4d1122104f1da001af020
:101310001ffe1df0c5fcc4f89800cae7204614f073
:101320003bfeb4f93a001af0c3f84ff6ff73638737
:10133000d8f8003001379f4204f1e804fff42aafe7
:10134000bfe7204609f074f9012800f071850228f2
:10135000afd10f2104f1da001af0fafd1df0a0fc64
:10136000c4f89800a5e794f8db30002b40f03d84ea
:10137000d4f8d030b4f93a005d681cf05ff800286a
:1013800000f01984b4f93a001cf0b4f91df088fc9f
:10139000d4f89030c4f8940003440e2104f1da002c
:1013a000c4f89c301af0d4fd83e7d4f8d030618ab9
:1013b0005d68002201201df0cdfd431c608704f113
:1013c000da0600f02c840023454a4ff400711bf02c
:1013d00055f9d4f88030002b40f0f78404f1440331
:1013e00000220121b4f93a0019f092fdd4f8d0306e
:1013f00038491b684ff480621b68a4f87e20284699
:101400009847d4f8d030608a94f847101b6894f855
:1014100046200092cde90110324994f84420d3f8d7
:10142000049094f845302846c84730460d211af0fc
:101430008ffdd4f8c420b4f93a00032111f058fb11
:1014400030b9d4f8d03021491b6828461b6898472a
:10145000b4f93a001af01cfe1df022fc4ff4c862e9
:10146000c4f8b80054211d481ef068fcd8f80030bc
:1014700001379f4204f1e804fff48cae21e7d4f871
:10148000d4001df0f7fd032805d004f14401d4f881
:10149000d4001bf061fd04f1da000b211af058fdb5
:1014a0001df0fefbd8f80030c4f8b80001379f42a9
:1014b00004f1e804fff46eae03e700bfaff3008071
:1014c000000000000000000049fb0100a89e000091
:1014d000d09e00006ce10000f89e0000e81900209a
:1014e00035fb0100309f0000b83c0020b0300020e8
:1014f000237cd4f8d010012b4d6800f0bc83022b64
:1015000008d1b4f9380019f0d3ff4ff6ff73d4f8bf
:10151000d0102387a4eb0b03db10c3ebc31203eb48
:10152000c202c2eb82320868a349d0f8049003ebf0
:10153000021303eb830632462846c84794f8dd20a1
:10154000002340f2b45040f2be51c4e90a33c4e96a
:101550000c33c4f8a03084f8d930c4e92533c4e989
:101560002933c4e92b33c4f8b43084f8dc30c4f830
:10157000c03084ed088ba4f8de00e16004f1da09e4
:10158000d4f8d030002a00f063821b6894f8db2086
:101590005b68002a40f05e822846324687499847b9
:1015a000484602211af0d4fc83e6d4f8d03094f8ef
:1015b000db505e68002d00f0e2821b6880491b68ea
:1015c00030469847012104f1da001af0c1fc70e6b8
:1015d00094f8d930002b00f0558304f1da0009218a
:1015e0001af0b6fcd8f8003001379f4204f1e80445
:1015f000fff4d0ad65e6b4f93c001bf087fb002892
:1016000040f0af8294f8db3004f1da00002b00f0f8
:10161000f38209211af09cfc4be694f8db50002d74
:10162000dbd1b4f938001bf009ff00283ff441aecc
:101630002946382205a81ef081fb05ad05a9b4f99d
:10164000380013f02fff0fcd04f140060fc60fcd69
:101650000fc60fcd0fc695e8030086e8030004f11e
:10166000da0007211af074fcb4f938001cf042f8d3
:101670001fe694f8d930002b00f00c83b4f93c003d
:101680001bf044fb0546002840f06b8294f8d830ec
:101690005a1c0a2b84f8d8209fd88021b4f93c002a
:1016a0001ef030fe00283ff404aee26a454e53427d
:1016b0001bba33608023d4e90801c6e90335c6e9c3
:1016c000015592fa82f91df021fb3f4ad4f8983077
:1016d000c6f828901168d4f894209fed3c6af56212
:1016e0009b1ab3fbf1f201fb123307ee903a07eebf
:1016f000101af8ee677af8ee476a67ee867a636b3f
:10170000356387eea67a01ba206b716100ba1bba05
:10171000c6e9080312ba3146b261b4f93c0034227a
:1017200067ee067afceee77a17ee903a1bbaf361a1
:101730001df092f8294605a84c221ef0fffa05a9d3
:101740004c22b4f93c001df087f8b4f93c000cf0d1
:1017500061fbaee5d4f8d03094f8dd20d3f80490e6
:1017600004f1da06002a00f07382257c012d00f0d6
:101770001683022d40f01083b4f93800431c00f0aa
:10178000ed82134a4ff4007100231af077ffd4f86a
:10179000c820b4f93800022111f0aaf930b9d4f800
:1017a000d0300c491b6848461b68984730460621d4
:1017b0001af0cefb7de500bf989d0000c89d00009b
:1017c0001c9e000014390020bc3c002000007a441c
:1017d00035fb0100849c0000d4f8d030b4f9380007
:1017e0005e681af027ff0546002800f05b82a36ab6
:1017f000002b4ad1a4eb0b03db10c3ebc312d4f8cc
:10180000d000c649006803ebc202c2eb823203eb90
:10181000021202eb82024368304698471df040fafc
:10182000a26ac4f8a8200346c4f89430c4f8b430bf
:10183000b4f938001cf0c0ff1ef0c2f9d4f8d03063
:10184000628a1b680292010ec0f30742cde90021b3
:10185000c2b2d3f80490b249c0f307233046c84758
:10186000d4f8d030b4f8640094f847101b6894f8aa
:1018700046200092cde90110304694f844205e687d
:10188000a84994f84530b047a36ad4f8a020a64ee2
:1018900001330132c4e90a33c4f8a02028461df000
:1018a000e1fe02460b46d4e908010bf03ffcc4e917
:1018b000080100bf4ff4c862b4f938309542314690
:1018c000184680f01a812a4697491ef0cffba36a7a
:1018d000002b40f0538294f8db30002b3ff4e9ac4e
:1018e000082104f1da001af033fb1df0d9f9c4f82d
:1018f0009800dee4a4eb0b03db10c3ebc31203eb95
:10190000c202d4f8d010c2eb823203eb0213d1f83a
:10191000049003eb830a00bfb4f93c001bf0f6f916
:101920000b28054640f28480804eb4f93c003146d5
:101930000c2212f077fe0c2840f063813668d4f850
:10194000a03036baa662002b40f09580002ec0f27f
:101950000881d4f8d03071491b6801225b68c4f853
:10196000a020484652469847a36a63b1d4f8d020d5
:101970006f4910681a46436848469847226ba36a25
:10198000013a1a4422635422e362002105a81ef0a2
:10199000d5f905a9b4f93c0015f01af8b4f93c00e2
:1019a0001df0b8fb1ef00cf9d4f8d030628a1b6829
:1019b0000292010ec0f30742cde90021c2b25e6877
:1019c0005749069dc0f307234846b047d4f8d030a6
:1019d000bdf858201b680292290ec5f30742cde9d5
:1019e00000214846eab24f495e68c5f30723b04775
:1019f000bdf85830a4f8643065641df051f9a16a4f
:101a0000d4f8a020236bc4f8ac300546c4f8945039
:101a1000c4f8b450c4e92921b4f93c001bf09cfb84
:101a2000b4f93c001bf072f90b2805463ff67caf79
:101a3000d4f8a030002b40f06f8194f8db30002bfd
:101a40003ff437ac042104f1da001af081fa30e4f3
:101a50001b685b683749324628469847484601214b
:101a60001af076fad8f8003001379f4204f1e80402
:101a7000fff490ab25e40133c4f8a03028461df0f4
:101a8000f1fd02460b46d4e908010bf04ffb002e96
:101a9000c4e9080155dbe36a5a1cb2424ed0b34296
:101aa00034db636b03f1010363630ad1d4f8d030f4
:101ab00021491b6848461b689847d4e90a639e423f
:101ac00029dc0c3dadb2002d3ff426af164e00bf11
:101ad000b4f93c304ff4c86295423146184604d2fe
:101ae0002a46114912f09efd16e7a5f5c865adb26c
:101af00012f098fd002debd10ee7a5f5c865adb24b
:101b00001ef0b4fa002d7ff4d5aee0e6226b013a68
:101b1000d31a33442363e662d3e700bf6c9d000011
:101b2000784c0100ac4c0100e81900201439002069
:101b3000089d0000fc9d0000349d0000b342b5d01c
:101b4000bde77642a6621df0abf80023c4f898000a
:101b5000042104f1da0084f8d8301af0f9f9a66a01
:101b600099e7b4f93c001bf0f7fad8f800300137d8
:101b70009f4204f1e804fff40dabfff7a2bbd4f8d9
:101b8000d4001df077fa032800f08e8194f84430d9
:101b900003f0f003e02b40f09c80237c012b00f04d
:101ba0008781022b7ff485ab0c2104f1da001af057
:101bb000cff9fff77ebb1df073f8d04bd4f8b820f7
:101bc0001b68821a03eb83039a427ff672abb4f967
:101bd0003a0019f06dfcd4f8d030c9491b684ff6b3
:101be000ff721b686287284698470f2104f1da00cc
:101bf0001af0aef9fff75dbb05211af0a9f9fff75e
:101c000058bbd4f8d030bf491b6848461b6898477a
:101c1000042104f1da001af09bf9fff74abbd4f86b
:101c2000d030b9491b6828461b68984730460121c7
:101c30001af08ef9d8f8003001379f4204f1e80419
:101c4000fff4a8aafff73dbbd4f8d030af49e9e7cd
:101c50001b68af491b6848469847304601211af077
:101c600077f9d8f8003001379f4204f1e804fff417
:101c700091aafff726bbb4f93c0019f04dfdd4f84a
:101c8000d01047e4022120460af08efc012384f89c
:101c9000d930a2e4022120460af086fc012384f810
:101ca000d930ebe4b4f938001bf024fd30b9b4f9b5
:101cb00038001cf001fc00283ff409ae1cf0f0ffd6
:101cc0000821c4f8980004f1da001af041f9fff78e
:101cd000f0ba04f1780204f14401d4f8d40018f009
:101ce000fff8002800f0eb80d4f8d03094f87d5055
:101cf00094f87c0094f87b1094f87a201b68cde966
:101d00000205cde9002130465d6894f8782094f80a
:101d100079308049a84740e71cf0c2ffd4f8b430be
:101d20002268c31a93427ff688aed4e928239a42e8
:101d300040f0de80d4f8d03077491b6848461b68f5
:101d400098471cf0adff0023c4f89800042104f16b
:101d5000da0084f8d8301af0fbf86ee604f180025d
:101d6000618a012013f0bef8451c20877ff409ad7d
:101d7000d4f8d03064491b68484655e71cf090ff02
:101d8000d4f8b4302268c31a93427ff6a4ad002180
:101d900020460af009fc9ee51b6860495ae7618a03
:101da00004f1800228461ef053fa411ca08762d13c
:101db000d4f8d03055491b6848461b6898472946d7
:101dc00030461af0c5f8fff774ba04f18003628a4e
:101dd000b4f93a00012112f0e1f8fff7ffbab4f8c4
:101de000bc50002d00f0a280dff83491002600e006
:101df0008db1b5f5c86faa4628bf4ff4c86a5246e0
:101e00004946b4f93c001cf027fd06442d1a8245d2
:101e1000b6b2adb2ecd0b4f93c000bf0fbffb0bbf6
:101e200002460146b4f93c001af0defafff741ba67
:101e3000b4f8bc303a4d09e01ef012f9b4f8bc30e9
:101e40001b1a9bb28642a4f8bc302ad8b3f5c86fdf
:101e5000b4f93ac01e4628bf4ff4c8663246294638
:101e60006046002be8d160461af062fe20460df075
:101e700065fcfff71eba00232a4a4ff480711bf05d
:101e800065ff304603211af063f8fff712bab4f881
:101e9000bc309e1b2046a4f8bc600df04ffcfff741
:101ea00008bab4f93ac0dee7a567a4f87c5074e636
:101eb000102104f1da001af04bf8237c71e61cf0d3
:101ec000effe0e4bd4f8b8201b68821a03eb830395
:101ed0009a427ff6eea9d4f8d03013491b683046f9
:101ee0001b6898471cf0dcfec4f8b800fff7e1b9a6
:101ef000002120460af058fb9fe500bfbc3c0020b3
:101f0000689f0000e89c0000609c0000ac9c000002
:101f10003c9c00007c9e0000549d0000d09c000072
:101f2000e819002049fb01003c9e00002e4672e7a4
:101f3000012104f1da001af00bf8fff7bab900bf7b
:020000040000fa
:101f40002de9f04fa64ca74d23682a78013385b0c0
:101f500023601b2a3ad8dfe812f03600aa02bc013f
:101f60009a027101bb021c006e022201a3019301bf
:101f70008702320108028101f2010a01f800a7007c
:101f8000c6007f00e1009700b600700060005100bd
:101f90003c0000201df092fd0446002840f09f8286
:101fa000914b1b7803f0ff06002b40f030848f4ce0
:101fb00023680133c72b236005d98d4918f03ef8fb
:101fc000012326602b7005b0bde8f08f01232b7034
:101fd000f9e7854b1b7803f0ff06002b40f0608388
:101fe000824c23680133c72b2360ecd981493046ea
:101ff00018f024f8012326602b70e4e77a4c23784c
:1020000003f0ff06002b40f05783784c2368013320
:10201000c72b2360d7d97849e9e7734e774b7849c6
:10202000002400942046012234701bf0d7fa0028c7
:1020300040f0a9831a232b70c5e76b4b1b7803f084
:10204000ff06002b40f06083684c23680133c72be8
:102050002360b8d96b49cae76b4e6c4a33786c4938
:10206000614f66480090002452f8232051f8231055
:102070000194204601233c701bf0a4f9002840f095
:102080003c8315232b709ee7574e5c4b0024009435
:1020900020460122042134701bf0a0fa002840f0f1
:1020a0005c8317232b708ee74f4c237803f0ff06d9
:1020b000002b40f06f834d4c23680133c72b236006
:1020c00081d9544993e7484c237803f0ff06002b4d
:1020d00040f02483454c23680133c72b23607ff6ef
:1020e00072af4d4983e74d4c237803f0ff02002b7c
:1020f00000f0ff813d4e33680133b3f5fa7f336062
:10210000fff461af464b47491a88002017f096ff4d
:1021100000230122237033602a7054e7324b1b786e
:1021200003f0ff06002b40f0eb81304c23680133b5
:10213000c72b23607ff647af334b3b491a783046b5
:1021400017f07cff26602e703de7274e2b4b009347
:1021500000240194204601230222344934701bf0ec
:1021600031f9002840f0008312232b702be71e4b1f
:102170001b7803f0ff06002b40f038821b4c2368cd
:102180000133c72b23607ff61eaf1f4b28491a78f7
:10219000304617f053ff012326602b7013e7124bd4
:1021a0001b7803f0ff06002b40f014820f4c2368cd
:1021b0000133c72b23607ff606af1e4917e70a4b92
:1021c0001b7803f0ff06002b40f0e081074c2368ea
:1021d0000133c72b23607ff6f6ae174907e700bf30
:1021e000803c0020de3d0020da3d00208c3c0020b9
:1021f000445800004c5b0000c85a000059fa010026
:1022000088000a00545a0000dd3d0020e839002013
:10221000b4ed0100685c0000d0590000df3d0020f3
:10222000ca3d0020905c0000f05c0000400004000b
:10223000e05b0000c45800001c590000b74b1b783d
:1022400003f0ff06002b40f0b181b54c2368013349
:10225000c72b23607ff6b7aeb249c8e6b24c2378ed
:1022600003f0ff01002b00f0cf81ad4e3368013346
:10227000b3f5fa7f3360fff4a6aeac4bac4943e74d
:10228000a64b1b7803f0ff06002b40f08581a44c81
:1022900023680133c72b23607ff695aea549a6e6d8
:1022a000a54b1b689a0500f1bc8113f4806f0cbf2d
:1022b00011211521994ca14b002200921046227049
:1022c00001221bf08bf900287ff480ae0a232b70cb
:1022d00079e6954b1b7803f0ff06002b7ff473ae75
:1022e000974c984f3c22314620461df027fd204652
:1022f0001bf00ef8944b8d4a19886184997884f804
:1023000024104ff6ff611288a4f82510d9789b8815
:1023100023854ff4807352ba8c4884f82710638564
:102320007f49a28540f602034ff60252a382112391
:10233000c4f80e70e28506700e602b7043e6844e82
:10234000844a337884497d4852f8232051f8231079
:10235000009000240194204601231bf033f800284c
:1023600040f0098210232b702de67c4b7c4a1b68c1
:102370007c4903f5ef56023696420f6802d97a4e31
:1023800001371e44794cdff8a491dff89ca15a2252
:10239000002120461df0d2fc20461af0b9ff6a4bfe
:1023a0007349b3f800e0b9f80020724800914ff08b
:1023b0000008cdf804804ff0080cc4f80e0098789f
:1023c000d97884f815c052ba4ff6ff6c9b8884f810
:1023d00024004ff480704ff0010ba4f822e0a4f821
:1023e00025c04ff6025e84f82710238539ba33ba28
:1023f00060854ff4407c6048a285c222c4f8321048
:10240000c4f83630e06384f84020c4f82ee021465a
:10241000a4f83ac0434640465a2284f843b08af8aa
:1024200000b01bf099ff002840f018818af80000e6
:1024300085f800b0c7e5404b1b68980500f1d480d3
:1024400013f4806f0cbf10211421344c3b4b00223d
:1024500000921046227001221bf0c0f800287ff481
:10246000b5ad08232b70aee5334a2c4c334b1268c4
:1024700000930021019108462170012308211af0e0
:10248000a1ff00287ff4a2ad0c232b709be5234c09
:102490002a4b3a49002200921046227001221bf07a
:1024a0009df800287ff492ad04232b708be5344a0d
:1024b0001178002940f0b780324933480a68006833
:1024c0009a1a8242fff47fad02220b602a707ae5ed
:1024d00000201df0f3fa0446002800f07681164b28
:1024e0001a480f491c600722002303700b602a70f2
:1024f00069e50b4b15491a6005230a702b7062e5dc
:10250000134a074913780133dbb20024072b1370f9
:102510000c6000f29d8114232b7054e5da3d0020fd
:102520008c3c0020a4570000df3d0020ca3d002065
:102530006c590000f0580000783c002059fa010066
:10254000d83800201002002c503c0020dc3d002038
:10255000dd3d0020f4ed0100d4ed0100843c0020bd
:1025600000ca9a3b883c0020e25365c4cc36002068
:10257000e9ff01001802004c001c0080400004002c
:10258000db3d0020743c0020343e0020bc4a00218a
:102590000d2311602b7016e5ba49bb4b0968b84a88
:1025a000196000210b2311602b700ce5b54bb44e64
:1025b0001868002410f08000346040f01b81b34a9a
:1025c00013780133dbb2042b137000f25081032324
:1025d0002b70f8e4ab49ae4b0968a94a1960002199
:1025e000092311602b70eee412212ee7a94aa449b9
:1025f00013780133dbb20020072b1370086000f260
:10260000f2800f232b70dee4a34ca44822880368d9
:102610009b4e0132013322800122036031602a7017
:10262000d1e4132146e6002630469d49167017f086
:1026300005fd3246304688239a4917f0fffc3346a1
:1026400030464ff21072984917f0f8fc1e233246bc
:102650003046964917f0f2fc23682de7944b9548d5
:102660000296a3fb0723db0aa0fb07424ff461613c
:1026700001fb13715209a0fb0101c2eb02124909cf
:10268000a7eb82074046b9f80020cde900178a4938
:1026900017f0d4fc7a4a0e23c2f800802b7092e423
:1026a000774b8649002420461c6017f0c7fc794a06
:1026b0000f2314702b7086e4724bdff8c4c11e68c0
:1026c0007f491a6826f44076002746f48076334620
:1026d0003846ccf8007017f0b1fc7a4b00930197a4
:1026e000324638460123784927701af06bfe0028dd
:1026f00040f010811b232b7065e43278734920462b
:1027000017f09cfc2c705ee400235d4a7049136056
:10271000184617f093fc19232b7054e4594bdff83b
:1027200060c11f686b491a68002647f0c0073b4626
:102730003046ccf8006017f081fc624b00930196a4
:102740003a4630460123042126701af03bfe002849
:1027500040f0e88018232b7035e420465e4917f0de
:102760006dfc01232b702ee420465c4917f066fcbb
:1027700001232b7027e432785949204617f05efc7c
:1027800001232b701fe42046564917f057fc012304
:102790002b7018e4dff87891dff8e480524b009357
:1027a0000026012701963b4689f8007030463c22fe
:1027b0004e49c8f8006026701bf0cefd00283dd1c0
:1027c00089f800002f70fff7febb494a00903d4b8f
:1027d0001070082101221af001ff00283fd10623c2
:1027e0002b70fff7f0bb434917f028fc01232b7037
:1027f000fff7e9bb284b40491a88204617f01efc1a
:10280000224a3460052314702b70fff7dcbb1d4e89
:10281000214fdff86cc032683b883849ccf80000a3
:1028200017f00cfc346814f4e06400f08380344b3f
:1028300032681a6007232b70fff7c5bb174ac8f828
:10284000006013681321013313602970fff7bbbbcd
:102850002c49204617f0f2fb2c70fff7b4bb204642
:10286000294917f0ebfb01232b70fff7acbb0a4b98
:1028700026491a8817f0e2fb01232b70fff7a3bb50
:102880008c3c0020703c0020843c0020dc3d00207b
:10289000883c0020dd3d0020ca3d00207c3c00201b
:1028a000f85600002c570000545700007c570000d9
:1028b000c5b3a2918988888844590000785b0000dc
:1028c000f45a000059fa010088000a00c45c0000b4
:1028d000805a0000fc590000a4590000485c000028
:1028e000b85b00009c5a0000e9ff0100d8380020c6
:1028f000da3d0020145c0000d05700007058000042
:10290000783c0020245d00001c580000f0570000b7
:10291000df3d00203846124917f090fb01232b7051
:10292000fff751bb30460f4917f088fb01232b708e
:10293000fff749bb0c4e33780133dbb2042b337005
:1029400003d805232b70fff73ebb3a880749204682
:1029500017f074fb012334702b70fff734bb00bffa
:10296000205b0000285a0000dc3d00209c5800003d
:020000040000fa
:102970002de9f04f2ded028b867b06f00f06082e19
:1029800093b03dd04ebb1a4f15461c46828d3b6816
:1029900052ba002b92b2c0f2b881d11a0029b8bf46
:1029a00049420a2900f39081934240f0f981114b8a
:1029b00001221a70dff844c00cf130070fcf0cf180
:1029c00048060fc697e80300cce90d5486e80300db
:1029d00013b0bdec028bbde8f08f074932460020f2
:1029e00013b0bdec028bbde8f04f17f027bb00bf62
:1029f000303e0020d73d002008e400000800002001
:102a0000cd4c828d236852ba002b92b2c0f26a81fb
:102a1000ca490d78002d00f06581934240f0e481b1
:102a2000c74dd0f83220d0f83680078e0133a5fb91
:102a30000365c44eed0b12ba98fa88f8c5eb05454c
:102a4000c6e901285b1b7fba0025236037800d7023
:102a5000d0f81a30d0f81610bb4c1bba09ba1b0cb0
:102a600043ea014333612368090cbfb27161002b53
:102a700040f0ca81b54b1b783bb1b54b197821b9f1
:102a8000b4480225012105701970b34d706bd6f85a
:102a90004ce0a2fb052312eb080905fb073343f1c9
:102aa000000a328eb36ba0fb050105fb0211c218b0
:102ab00041f10003cde9089acde90a23bef1000fe8
:102ac00040f07a81a54dd5e900abf269aab1dff8f3
:102ad00088e2308bd6f820c0a14fa2fb0e230efb5c
:102ae0000033dde9080112eb0c0843f10009b0ebfb
:102af000080261eb0903c7e900239a4ea6f1180703
:102b00000fcf0fc697e80300a6f1580786e8030029
:102b10000fcf403e0fc697e803005aea0b0386e842
:102b200003003ff455af8e4fd7e9000150ea01038f
:102b30003ff44eaf8c4e96f8008008f1ff33012b26
:102b400040f2728118f026fb80468946504659466d
:102b500018f020fb02460b46404649460af044ff67
:102b6000dff830b280468946cbe900896ca3d3e90f
:102b70000023dbe900011af045ff48b1dbe9000161
:102b800069a3d3e900231af059ff002840f06182bd
:102b90007649002017f052fa96f80080744fdff85b
:102ba000f891dde90801dde90aabbaeb00030e9309
:102bb0006beb01030f93dde90e23c7e90023d7e98f
:102bc00000bcd7e90023d9f80010002a01f1010167
:102bd00073f10000c9f8001002da524263eb4303bc
:102be000644dc5e90023b8f1000f40f042810f2980
:102bf00000f2aa81604c2378434501d084f800801c
:102c00005e4b1b78002b3ff4e3ae49a3d3e90023ce
:102c1000dde908011bf02efbdde90a9a804644a39a
:102c2000d3e90023484651461bf024fb96f800c028
:102c3000534ddff868e1534ed7e90023bcf1040f90
:102c400028bf4ff0040c0446a5fb083707924846fe
:102c5000514637a3d3e900235ef82c901bf00afb02
:102c60000692a6fb042ca5fb04134fea5c1cdb0aae
:102c70004ff46165cceb0c1ca4eb8c0c05fb1344ee
:102c8000a6fb04240393dde90801640928a3d3e922
:102c90000023ff0acde9044c1bf0ecfaa6fb083137
:102ca000490905fb1783a6fb0303c1eb0111a8eb40
:102cb00081015b09cde9003102923b4632494a4627
:102cc000002017f0bbf983e630463049dff86c800e
:102cd00017f0b4f910f038f998f80030002b7ff4b1
:102ce00069ae75e6164d2a49531ca5fb0305ed0b8d
:102cf000c5eb05455d1b2b460020256013b0bdece0
:102d0000028bbde8f04f17f099b90c4b3a601e707a
:102d100013b0bdec028bbde8f08f00bfaff30080b5
:102d2000560e2db29defef3fd578e9263108f03fe2
:102d300000ca9a3b00000000303e0020d73d002032
:102d40000180008008000020683c0020d53d002064
:102d5000d93d0020d03d002000ca9a3b083c00200d
:102d6000103c002050000020d83d0020a8e20000c8
:102d7000183c0020283c0020d33d0020d63d0020f8
:102d8000c5b3a2918988888860e30000b0e30000a1
:102d900054e20000103e00206c3c002044fa010088
:102da000dff87483c44988f80060304617f046f9ac
:102db0004ff0ff333b608fe7dde90a78b6f8482033
:102dc000aefb05013b1a05fb021168eb01020c93f7
:102dd0000d92dde90cab336db84dbaeb030a6bf124
:102de000000bc5e900ab70e60020b54917f026f9e5
:102df000b44a00234ff0ff30d3611384c2e900339b
:102e0000138193612060e3e5af4bb0481a60012263
:102e10000270af49c3f80480284617f00ff93788cd
:102e20002560d6e9012825e6dde90aabdde90801e0
:102e3000baeb000310936beb01031193dde9102350
:102e4000a44fdff8d892c7e90023d7e900bcd7e93f
:102e50000023d9f80010002a01f10101c9f800107f
:102e600073f1000102da524263eb43039a4dc5e964
:102e70000023b8f1010fd5e900233cd0002b08bf97
:102e8000b2f1804f42d30023944d954c33704ff0f4
:102e90000308294600200cf0dffe214600200cf03c
:102ea000dbfeb8f10108f4d19fed7d8b8d4c102530
:102eb0002046b0ee480af0ee680a14f0a5fa013d8b
:102ec000f6d1894c96f800802378c9f80050434524
:102ed0003ff496aeb8f1030f00f0b280b8f1040fe2
:102ee0007ff48caed7e900238049002017f0a6f8c4
:102ef00096f8008082e66ca1d1e90001994208bff2
:102f0000904280f03c81c4f8008073e6d5e900016e
:102f100000236ff07f428b426fea0c0408bf8242ad
:102f20004fead47480f0fc80c5e90023d5e9001293
:102f30006548664b41eac4724ff002080421026101
:102f4000197086f8008055e669496a4b0022d1e97c
:102f500000010ef0f9fe0d4604461bf0d7fe5ffaa5
:102f600080fb58461cf07efb02460b462046294655
:102f70001df096f90022604b544d0ef0e5fe1bf05b
:102f8000c5fec0f30f2444ea00644f485b498460e7
:102f9000c0f80cb0032023465a462870404617f06c
:102fa0004df8574b574a1c60574bc9f800804ff0fb
:102fb0000108c2f800b086f8008083f8008019e6a6
:102fc000d5e90023002b08bf972ac0f0e580444dc7
:102fd0004e4c0020804629460cf03efe29464046d5
:102fe000c5f808800cf038fe29464046c5f8088030
:102ff0000cf032fed7e900013849c5f808800cf022
:103000002bfe84ed000b0022d4e9000100231af00e
:1030100015fdb0fa80f56d09d4e9000119f030fa18
:1030200005b94042304c284a2378284940eac57007
:103030001061032204209342087032703ff4e0ad27
:10304000d7e900233249002016f0f8ff96f80080f7
:10305000d4e59fed172b9bed001b49ec108b18f06e
:10306000c7f82c4bd7e9000183ed000b18f092f85c
:1030700080468946d5e9000118f08cf80b460246d7
:10308000494640460af0b0fc41ec100b154814f0dc
:10309000bbf9174b96f8008083ed000b7ee500bf6f
:1030a000000000000000f03f00e1f5050000000016
:1030b000000000000000e03fe4e30000083c0020c6
:1030c0002ce2000038000020ec3a0020d03d002027
:1030d00080e20000183c0020283c0020143b002027
:1030e000243b0020343b0020d33d002044e300007b
:1030f000183e00200000444000007041c8e200007b
:103100005c3c0020603c0020d53d0020203c00209d
:1031100028e30000203e0020d73d00206c3c00202a
:10312000d5e9002300214ff49670994208bf9042e0
:10313000bff446afdff8ac90dff8ac804ff0030a85
:103140004ff0000b274900200cf086fd2649002097
:103150000cf082fdbaf1010ac9f808b0c8f808b04d
:10316000f0d1d5e900122148214b41eac4724ff059
:10317000020804210261197086f800803ae5d7e957
:1031800000231c49002016f059ff1b4a022382f835
:103190000080337098462de5d7e900231249174c7b
:1031a00010460cf059fd84ed000b0022d4e900011b
:1031b00000231af043fcb0fa80f56d09d4e9000150
:1031c00019f05ef905b940420d4c084b22780849c8
:1031d00040eac570186104239a420b7033707ff483
:1031e00081ae0de5143b0020243b0020ec3a00208a
:1031f000d03d002000e30000d53d0020203c002011
:04320000d33d00209a
:020000040000fa
:1032040070b590f9941086b0044669b9027990f8c3
:10321400d850012a08bf0171042d00f28a83dfe827
:1032240005f08aa64fb278000a46022a1cd094f808
:10323400083163b12379012b3fd0002384f808318e
:103244000121d4f8f00007f08ffb0123237106b0ad
:1032540070bd0022052384f8002184f8d8300222ae
:10326400012384f894202371637f002b40f0df80d6
:10327400d4f8ec30002b40f0f88094f90b50c5f3ef
:103284004a1000f5020000f58070c0011df03cf802
:1032940005f01f05e84010f00100c8d12379012b87
:1032a40008bf20710021d4f8f00007f05dfb94f80a
:1032b400083101222271002bc9d000232371bce7fd
:1032c40090f80011b34db44bd0f8f000c1f12302d3
:1032d40005eb0111002592b2009512f0dbff94f882
:1032e40000311844c0b2232884f8000140f09c80c7
:1032f40094f8d8300133dbb20022052b84f8d8309f
:1033040084f80021abd094f994100a460123237168
:103314008be790f80031d0f8f000092b99d8dfe85a
:1033240013f0b001a00193018501770169015b01ec
:1033340049012101130190f90c1090f80061481c17
:1033440000f00283012e00f0e78072b2002a53d00d
:10335400022e00f09c80ff2384f894304ff0ff315c
:103364000135002284f8d85084f80021cde790f884
:103374000021d0f8f000042a00f2db82dfe802f03a
:10338400aa929592ba0090f80031d0f8f0002f2b51
:1033940000f2cf82dfe813f0ba02ba02ba02ba022c
:1033a400ba02cd02cd02cd02cd02cd029e029e0212
:1033b4009e029e029e02cd02cd02cd02cd02cd021e
:1033c40062026202620262026202cd02cd02cd0298
:1033d400cd02cd0257028600480286002d028600e7
:1033e4000e028600e6018600b601aa019b017f0158
:1033f400d601f5011d023c02c1f34a1000f502009a
:1034040001f01f0300f580700121c00199401cf0f8
:1034140073fe1cf037ff1cf0c1f894f80031c4f8b7
:10342400e000013384f8003194f994206ee71cf035
:1034340029ff1cf0b3f8d4f8e430c31ab3f57a7f4b
:10344400fff416af2379c4f8e400012b04bf002372
:103454002371002300935149514bd4f8f000012209
:103464001bf006fd0123237102e71cf00bff1cf087
:1034740095f8d4f8ec30c01a04287ff6feae002389
:10348400c4f8ec30d4f8f0001cf0cafdf5e61cf0ea
:10349400f9fe1cf083f8d4f8e030c31a062b3ff68b
:1034a40027afc1e701232371c1e6d4f8e8309a0ab3
:1034b400b2f5f87fc3f3091302d11b2b00f0758218
:1034c4003849002016f0b8fdff2384f8943094f8ae
:1034d400d8300fe700220092334b01211bf0c8fcc7
:1034e4000028a1d094f8003194f99420013384f891
:1034f40000310be7d4f8e80000f00f0084f8020173
:1035040000287ff42daf294916f096fdff2384f897
:10351400943094f8d830ede61cf0b4fe1cf03ef87c
:10352400d4f8e03098423ff47faf94f90c30c3f301
:103534004a1000f5020003f01f0300f5807006fa3c
:1035440003f2c001114662e7194b0022cde90032b3
:103554004ff4803101230c221bf09afc00287ff4e5
:10356400c7ae61e7e57f94f8203049f2e60249f2fc
:10357400e621002d18bf0a460bb142f48072064bb7
:103584000021cde90031012304211bf081fc002836
:10359400a8d149e76cd30000e5fd010003ca04008b
:1035a40015ee010054940100f1e601007c94010041
:1035b40095fa0100a37fb64a0092002b4ff0000356
:1035c4000cbf1a46102201934ff0011101231bf086
:1035d4005ffc002886d127e7ad4bae490022cde938
:1035e40000320123d4f898201bf052fc00287ff409
:1035f40079af19e7a64ba8490022cde9003201238f
:10360400b4f89a201bf044fc00287ff46baf0be75e
:103614009f4ba2490022cde900320123d4f8962021
:103624001bf036fc00287ff45daffde6984b9c4907
:103634000022cde9003201234ff400421bf028fca4
:1036440000287ff44fafefe6914b96490022cde975
:103654000032012383221bf01bfc00287ff442afbd
:10366400e2e6b4f81b208a4b009352ba002301937c
:1036740092b201238c491bf00bfc00287ff432af7b
:10368400d2e6637f002b40f082810422012384f878
:1036940000212371cbe594f9f430b4f8fc20834e77
:1036a40083499bb203f10905adb2324042ea0522d7
:1036b40012b20e3392b21a430023cde9003392b210
:1036c40001231bf0e5fb00283ff4aeae0ae794f9b2
:1036d400f430b4f8fa20754e76499bb25d1dadb254
:1036e400324042ea052212b20933e3e794f9f53095
:1036f400b4f8f820704928339bb2c2f3090242eab5
:103704008322d9e794f9f430d4f8e820a4f8fe2011
:103714009bb203f10e02b4f8f61092b209339bb2d5
:10372400120142ea832201f00f031a430023cde978
:10373400003392b2012361491bf0aafb00283ff435
:1037440073aecfe694f9f430b4f8fe20574e5c49da
:103754009bb203f11105adb2324042ea052212b226
:103764001633a7e7d4f8e830a4f8fc30002300931c
:103774005349544b01221bf07bfb00283ff454ae09
:10378400b0e694f80251504943f6317345f621727c
:10379400012d18bf1a460023cde9003301231bf085
:1037a40077fb00283ff440ae94f80231012b7ff4fc
:1037b40099ae9de5d4f8e830a4f8fa3000230093dc
:1037c4003b49404b01221bf053fb00283ff42cae35
:1037d40088e600230122cde9013300924ff44073bf
:1037e4004ff4807239491bf04bf900283ff41caeaa
:1037f40078e6d4f8e830a4f8f830002300932d4993
:10380400304b01221bf034fb00283ff40dae69e677
:103814000023cde900337d2201232d491bf038fb21
:1038240000287ff465adffe5d4f8e830a4f8f6305d
:10383400002300932049234b01221bf019fb00288d
:103844003ff4f2ad4ee6002300931c491d4b0122c8
:103854001bf00efb00283ff4e7ad43e6143bdbb25c
:10386400009305aa1f230821204614f053f80028ca
:103874003ff4daad059bda0648bf43f0e0031e22ad
:103884005bb284f8002184f8f53094f994203de586
:10389400e5fd0100220001002500010024000100d3
:1038a40001ca04008700040005ca0400c0c0ffff69
:1038b400ae000400ad0004008a000400840004008b
:1038c400af000400f1e60100d000040088000a0003
:1038d40039020a000a3bdbb2009305aa1f23042124
:1038e400204614f017f800283ff49ead059bd90636
:1038f40048bf43f0e0035bb284f8f430053367db80
:10390400142384f8003194f99420ffe4009305aa69
:1039140040230521204613f0fdff00283ff484ad29
:10392400059800284bd00a2384f8003194f9942098
:10393400ece40123237194f80831ff2284f89420e5
:10394400002b7ff4baac82e426b1012e10d084f8a7
:10395400941005e5234a009201963346012203217f
:10396400d4f8f0001bf094fa00287ff4bbad5be5bb
:103974001c4b0022cde90032032133463246d4f8f1
:10398400f0001bf085fa00287ff4b2ac4ce5164b2e
:1039940016490022cde900320123b4f819201bf0a6
:1039a40077fa00287ff49ead3ee500220092104b8a
:1039b40010491bf05dfa00287ff494ad34e50e49fc
:1039c40016f03afbff2384f8943094f8d83091e44d
:1039d4000949002016f030fbff2384f8943094f852
:1039e400d83087e4bd020200e5fd010002ca0400ec
:0c39f400f1e6010094000a009494010028
:020000040000fa
:103a0000883a00201c0000000000000094380020cc
:103a10000400000000000000583b002008000000e7
:103a200000000000873a00200100000000000000b4
:103a3000513800200100000000000000113b002070
:103a40000100000000000000443b002004000000d2
:103a500000000000cd3d002001000000000000003b
:103a6000583c00200400000000000000ce3d002073
:103a70000100000000000000f03b002010000000ea
:103a800000000000cf3d0020010000000000000009
:103a9000003c0020080000000000000000000020a2
:103aa00001000000000000005c3c00200800000055
:103ab00000000000083c0020100000000000000092
:103ac000d03d00200200000000000000643c002007
:103ad0000400000000000000ec3a00201400000088
:103ae00000000000d23d00200100000000000000a6
:103af000683c00200400000000000000183c00208a
:103b00000800000000000000143b0020100000002e
:103b100000000000903b00200c00000000000000ae
:103b2000203c00200800000000000000243b002092
:103b300010000000000000009c3b00200c00000072
:103b400000000000283c00200800000000000000e9
:103b5000d33d002004000000000000007835002064
:103b60008000000000000000343b00201000000036
:103b7000000000006c3c0020040000000000000079
:103b8000d73d00200300000000000000303e002070
:103b90000400000001000000ffffffff103e0020b6
:103ba0001800000001000000000000000000f03fcd
:103bb000000000000000f03f000000000000f03fa7
:103bc000080000206000000000000000e83900202c
:103bd0002000000000000000cc3600205a00000049
:103be00000000000da3d002001000000000000009d
:103bf000703c00200800000000000000db3d0020b9
:103c00000200000000000000ca3d00200200000089
:103c100000000000dd3d0020010000000000000069
:103c2000503c00200600000000000000de3d0020a7
:103c30000100000000000000783c002004000000ab
:103c400000000000d83800203c0000000000000008
:103c50007c3c00201000000000000000df3d002040
:103c600001000000000000008c3c00200400000067
:103c700000000000eb3d00200100000001000000fa
:103c800001000000343e002004000000010000009c
:103c90007d000000903c00200400000000000000b7
:103ca000303c00200800000000000000982e00209a
:103cb0001001000000000000e03d002001000000b5
:103cc00000000000943c0020040000000000000000
:103cd000c03300209800000000000000483b002096
:103ce0001000000000000000983c002004000000cc
:103cf00000000000283700205000000000000000f5
:103d0000880000209011000000000000cc3d002041
:103d10000100000000000000f835002074000000e1
:103d200000000000603b00201000000000000000c8
:103d3000743900202800000000000000c439002071
:103d400024000000000000009c3c00200400000053
:103d500000000000ec3d0020120000000100000007
:103d600030303a30343a32353a31433a41303a30f1
:103d700032000000003e00201000000001000000a2
:103d80000101000099ad010095cd0100529900009c
:103d9000680000201c00000000000000c837002060
:103da0004800000000000000283e0020060000003f
:103db00001000000ffffffffffff0000a03c00200c
:103dc00004000000000000009c39002028000000d2
:103dd00000000000a43c00200400000000000000df
:103de000a83b00201800000000000000583400200c
:103df0009000000000000000a83c00200c00000023
:103e000000000000b0300020e800000000000000ca
:103e1000143900203400000000000000b43c0020f1
:103e20000400000000000000e13d0020010000004f
:103e300000000000b83c0020080000000000000066
:103e4000e81900204006000000000000c03c0020ef
:103e50001000000000000000c03b00200c0000002b
:103e600000000000703b0020100000000000000077
:103e7000263700200200000000000000d03c002097
:103e80000800000000000000803b0020100000003f
:103e900000000000d83c00201400000000000000da
:103ea000563c0020020000000000000052380020b4
:103eb0000200000000000000ec3c00200c000000ac
:103ec00000000000e23d00200100000000000000b2
:103ed000f83c00200400000000000000a43a00208c
:103ee0001800000000000000fc3c00200c00000056
:103ef0000000000010380020410000000000000019
:103f0000083d00200800000000000000123b0020d7
:103f10000200000000000000103d0020040000002e
:103f20000000000018120020d00700000000000070
:103f3000143d00201000000000000000c43d0020df
:103f40000200000000000000243d002008000000e6
:103f500000000000003b00201100000000000000f5
:103f6000683a00201f000000000000002c3d0020e7
:103f70001400000000000000e33d002001000000ec
:103f800000000000403e0020010000000100000091
:103f900001000000fe3d00200200000001000000c2
:103fa00064000000e83400209000000000000000e1
:103fb000282c00207002000000000000403d00207e
:103fc0000c00000000000000c63d002002000000c0
:103fd000000000004c3d0020200000000000000018
:103fe000cc3b00200c00000000000000bc3a002088
:103ff00030000000000000006c3d002004000000c4
:1040000000000000e43d002001000000000000006e
:10401000703d00200400000000000000383e002039
:104020000400000001000000ffffffff743d0020be
:104030000c00000000000000c83d0020020000004d
:1040400000000000803d00200c0000000000000087
:10405000e53d00200100000000000000083a0020bb
:104060006000000000000000e63d002001000000ac
:1040700000000000483900202c0000000000000073
:104080002820002000080000000000005438002014
:104090004000000000000000383c0020100000003c
:1040a000000000008c3d0020040000000000000023
:1040b000e73d00200100000000000000282800204b
:1040c0000004000000000000903d002008000000f7
:1040d0000000000060320020c0000000000000006e
:1040e000d83b00200c0000000000000098310020a8
:1040f000c800000000000000e83d002002000000b1
:1041000000000000483c0020080000000000000003
:10411000983d002004000000000000008400002002
:1041200004000000000000009c3d0020080000008a
:1041300000000000ea3d0020010000000000000037
:10414000a82f00200801000000000000a43d00206e
:104150000800000000000000983800204000000027
:104160000000000020330020a0000000000000003c
:104170002e3e0020020000000100000001000000af
:104180006c3600206000000000000000ac3d002004
:104190000c000000000000003c3e00200400000075
:1041a0000100000001000000b83d002004000000f4
:1041b00000000000783700205000000000000000e0
:1041c000bc3d00200400000000000000c03d0020b5
:1041d0000400000000000000e43b00200c00000090
:1041e0000000000000000000000000006666666637
:020000040000fa
:1041f0002de9f04f8fb04c6a07948c6a0894446d97
:10420000dff8b4c3d1f800e0d44f4b680093a04668
:10421000846d8d68ce68019588ea0408046d0d6987
:10422000029608ea0408c46c4e690395a444846da0
:104230008d690c96f44488ea0408046dce690495ef
:10424000e04404eb7868a446446d0d6a05968cea58
:10425000040c846d06952744446dc14ac14bdff8b8
:104260005cb3dff85ca3dff85c93bf4ebf4d0cea94
:10427000080c8cea040c009c2744bc44076d446d78
:1042800008eb3c5c87ea08072244046d07ea0c0748
:104290006740019c2244046d17440cebf73788ea11
:1042a0000c022344029c3a40234482ea0802039c05
:1042b0001a4407ebb2228cea0703a344134083eab3
:1042c0000c03d8440c9c984402eb786887ea0203fc
:1042d000a24403ea08037b40d4449c44049b059c0d
:1042e00008eb3c5c82ea080a99440aea0c0a8aea6a
:1042f000020a4f4457440cebf73788ea0c03264474
:104300003b4083ea080332449e18069b984c07eb17
:10431000b6268cea07021d44324082ea0c0245446c
:104320001544079a06eb756587ea0603a2186244ee
:104330002b407b4014461c44089bdff88cc205ebe5
:10434000345486ea0502a3f524492240a9f14f0915
:104350004f4482ea06033b44cf6adff870923a4644
:104360000f6b09974f6b0a97d1e90e8104ebf3337a
:104370000b9185ea0401914419404e44694031444f
:10438000099e7c4f0d9203ebb12184ea0309b444ea
:1043900009ea01066640654406eb050c0a9e01eb3e
:1043a0007c6c83ea010505ea0c053744274485ea5d
:1043b00003043c44704f714d714e0ceb345481ea50
:1043c0000c0b47440bea040b3b448bea010b0b9f9d
:1043d0009b4404ebfb3b8cea04033d4403ea0b03e0
:1043e00083ea0c03294419440bebb12a0099049f7a
:1043f000644d8bea0a030e44234083ea0b03b44462
:1044000003eb0c060aebf6663d442c448aea0605eb
:1044100005ea0b0585ea0a05254406ebf5555a49d8
:104420005a4b5b4f86ea0504114404ea0a047440bf
:104430008b44a34405ebbb4985ea0904734434402b
:104440000c9adff88cb16c409a44524ba24409ebb1
:104450003a3113441e4489ea01032b4083ea0903dd
:10446000334401ebf363089a4b4c81ea030614448e
:1044700006ea09064e402544354403ebf55c0b9ee5
:10448000039a83ea0c0537440d405d40b944434f1d
:10449000434ea9440cebb944174439448cea040751
:1044a0001f4087ea0c070f4404eb3737079a3d4d4e
:1044b000dff8209184ea0701164401ea0c0161400b
:1044c0003344ce1807ebf66687ea060345442340db
:1044d0007b40ac44029a344903eb0c05dff8f8c08a
:1044e000324b06ebf5559444644486ea050c0cea1d
:1044f000070c8cea060c644405ebb444069a85ea82
:10450000040c11440cea060c8cea050c0f440ceb6d
:10451000070104eb31310a9adff8c0c084ea0107d1
:1045200013442f40019a67401e44bb1901ebf3630b
:104530009444ac4481ea030525404d40654403ebb7
:10454000f555059a1a4f1b4e83ea050c17440ceae1
:10455000010c8cea030c3c44644441e056b7c7e8c4
:10456000db702024eecebdc1019546fdd898806950
:10457000aff7448b937198fd8e4379a62108b44917
:1045800062251ef640b340c0515a5e26aac7b6e95e
:1045900081e6a1d85d102fd653144402c8fbd3e79f
:1045a000e6cde121d60737c3ed145a4505e9e3a965
:1045b000d9026f678a4c2a8d78a46ad7af0f7cf531
:1045c0002ac68747134630a82211906bbed75c8954
:1045d00097ff2a4381f67187870dd5f4f8a3effc86
:1045e00005ebb444099a85ea0407164407ea030c6c
:1045f0000c9a8cea050c31446144a2f5b82c04eb0a
:104600003131acf2be6c4f4063443b44069fb14e27
:1046100001eb3373b94484ea01075f404d443d44e4
:104620000d9fdff8009303eb75553e4481ea030cc0
:104630008cea050c3444644405eb3444c14483eaf9
:1046400005066640494406eb0109a34f009ea349b5
:1046500004eb7929374485ea040686ea09063b44d7
:1046600033449f4f039e09eb3373374484ea0906b2
:104670005e403d44354403eb755a059d994f2944ee
:1046800089ea030c0c448cea0a0c0899964da44460
:104690000aeb3c4c0f4483ea0a0181ea0c01b9445d
:1046a00001eb09070a99914cdff87c920ceb772714
:1046b0000d448aea0c062b447e408d4d1e4407ebc8
:1046c000367675448cea07037340aa4403eb0a0567
:1046d000029bdff858a206eb75551c4487ea0601d9
:1046e000a4446940049c834b614405eb3141a144df
:1046f00086ea050c4f448cea010c0ceb0704079f7b
:1047000001eb74243b4485ea01091e4489ea04094b
:10471000b144794b099e794f04eb3979334481eaee
:10472000040686ea09061d4473190b9e059d09ebd4
:104730007353374484ea090c39448cea030c8c44e3
:104740006f4f01996f4e03eb3c4c0f4489ea030114
:1047500081ea0c013c440f190ceb772767ea03044c
:104760007644b14484ea0c064e4407ebb666ab448b
:1047700066ea0c0e8eea070e5b440eeb030bdff8c5
:10478000b091614c6149dff8ace106ebbb5bc14421
:104790006bea0703cc44734003eb0c050beb754548
:1047a000144465ea060383ea0b032744dc19099bda
:1047b000574a584fdff88091dff88081dff880c1d9
:1047c00005ebf424194464ea0b036b4031441944ab
:1047d000029b514e04ebb1611a4461ea05035a444d
:1047e00063401344089a01ebb353a2f5801babf668
:1047f000833b63ea04024a405d441544009a03eb9c
:104800007545174465ea01025a403c441444069f2a
:104810000b9a05ebf424ba4464ea030b8bea050b0c
:104820005144594404ebb161914461ea050262408c
:104830004b44049f134401ebb353b84463ea0407a9
:104840004f40a844b8440a9d344f03eb7848ae4427
:1048500068ea01055d40a644ae44039c08ebfe2ec9
:10486000a4446eea030282ea080261440d9c1144ea
:104870000eebb161264461ea08041e4484ea0e038b
:10488000019a274c334401ebb353174463ea0e02f9
:10489000474482ea0108b844079f03eb784868ea76
:1048a00001023c445a40a6449644c26c046d114433
:1048b000826dc1641344426d04eb080505ebfe25cf
:1048c00002eb0804c0e91543056500200fb0bde800
:1048d000f08f00bf22619d6d44eabea4604bbbf621
:1048e000a9cfde4b70bcbfbec67e9b288530efd4ff
:1048f000fa27a1ea39d0d4d9e599dbe6f87ca21fe2
:104900006556acc4442229f439a093fcc3595b65b5
:1049100092cc0c8fd15d848535f23abdbbd2d72abb
:1049200091d386eb0c38e5fd051d88044f7ea86ffa
:10493000a72394aba111084ee0e62cfe144301a37b
:04494000827e53f729
:020000040000fa
:104944002de9f04faa4c844289b040f0d780a94f9a
:1049540097f90000431edbb2012b00f2cf80dff891
:10496400bc82d8f80050002d00f02d81012800f001
:10497400c8802388002b64d0dff874920026eb6c87
:104984001846002b52d06b6c9b69984795f84330be
:104994005b064bd56b6ce86c5b6998470028c0f2ea
:1049a400c080022842d140f20113adf81e306b6c76
:1049b400286d1a6c40f2dc5c00230693cde90433c5
:1049c400adf81c3004a9adf81ac090470498e86308
:1049d400bdf81430a5f84030bdf8163095f84320e2
:1049e400003318bf012363f3451285f843209df873
:1049f4001d30bdf81a1085f868309df81c30b5f8e4
:104a0400422085f86930a5f8661043f6bf739df817
:104a14001e1085f86a10134043f400439df81f20cc
:104a240085f86b2043f04003a5f842302388013613
:104a34009e4205f17805a2d397f900e0bef1010f7b
:104a44007cd06d4b1b68002b00f081816b4e6c4a4f
:104a5400dff8ccb133681068dbf8001003430b4374
:104a64004cd01168002940f0ab813268d8f800506e
:104a74002388002a40f0b6803bb3184600920022f7
:104a8400604f164640f2866495f84210490602f1da
:104a9400010205f1780311d533f8141c0c4202d03d
:104aa40039680131396095f86c1011f0020f1cbfa0
:104ab4006ff3410185f86c1023f8146c82421d4693
:104ac400e2d3009b002b40f045814f4c04f5147554
:104ad40054f8103c1bb134f8082c02b19847103438
:104ae400ac42f5d1dbf8003043b1484844692cb1fd
:104af400103000234ff480720121a04709b0bde8b3
:104b0400f08f434e3368013300f0cf812388002bac
:104b14007ff432af02233f493b70002019f030fb91
:104b24008fe7032304222946484615f023fe95f80f
:104b3400433043f0800385f8433077e7d8f80060ca
:104b4400002be7d000252a46a446314607e00efa9a
:104b540002f005430132934201f1780110d091f83b
:104b6400430000f00c04042cf1d110f0800f0efa75
:104b740002f4c3d091f842004006ebd52543e9e79f
:104b840001229a40013aaa426446c3d0002b00f0a5
:104b94004581dff85c904ff0000805e023889845d4
:104ba40006f1780680f03a81b6f8423044f24002c9
:104bb4001a4208f10108f1d0032304223146484681
:104bc40015f0d8fdeae7144b04a81b6898470028a1
:104bd40094dc40f031810498002800f02d8103f02a
:104be400c5fe8be7009100223260914653bb6ee014
:104bf400d43a0020e43d00205c3d0020703d0020bc
:104c0400483d0020403d0020582c0020282c002046
:104c1400383e0020444901006c3d0020603d0020e6
:104c24004c3d002095f84330980605d556f8343ca1
:104c340056f8280c9b6b9847238809f101094b45ca
:104c4400354644d995f842305f0605f17806f3d528
:104c540056f8343c56f8280c5b6d36f8167c9847a9
:104c640007431bf05ffb36f8163cbfb223ea070389
:104c740026f8163c1bf058fb36f8143c56f8342c36
:104c840056f8280c126d3b4326f8143c39469047dd
:104c940017f0160fc6d0b64f03e0856238461af0f7
:104ca40067f956f8343c56f8280c5b6b0022114621
:104cb400984701460028f0d1ae4a136801331360c7
:104cc400b0e73368002b45d0012331600093002303
:104cd400dff8d4a2dff89892029348461af058f904
:104ce400054618b30269806a936891899e89876d25
:104cf4006b6176ba0e330e399181b6b2ab612fb1c6
:104d0400c36d32462946b8470028e6d140f606036b
:104d14009e4200f0fa80b6f5006f00f0208128462c
:104d240001226ff00c0119f033fcd6e71bf0fafafc
:104d3400baf8183023f00103aaf818301bf0f4fa7b
:104d44002088d8f8005000287ff499aeb9e617f00f
:104d5400b7fc7be6884ca4f1200a0af51c7503e035
:104d6400a1811034ac4220d02368002bf9d0b4f9cf
:104d74000a20824b002af4d01968a3895b1a9bb2db
:104d840019b200291344ebdc26896768a381a4ebdc
:104d94000a0146f00206204600230222c1f30f1145
:104da4002681002fddd0b847dbe71bf0bbfabaf849
:104db400083023f00203aaf808301bf0b5fa84e6a1
:104dc4000025156018f0e4fd6d4bdff8e0911f68d5
:104dd4002b463a46cde9000119f04afa694ac9f866
:104de4000000a2fb073292092b46dde9000119f00d
:104df4003ffa654a614913680f686449db1bab429b
:104e0400086013601edd32682388d8f80050b2b9f8
:104e1400002b9fd018460123009330e6ff233b70fc
:104e24001bf08ef900283ff469ae1bf083f92a4683
:104e3400574915f001f961e600233b705ee6012253
:104e44000092d0e62188d8f8007003f24d13136065
:104e540000293ff436af00bf97f842305b0605f1f6
:104e6400010511d57b6c386d5b6a984797f86c30f7
:104e740003f0010243f00203904260f382031cbf7b
:104e840060f3000387f86c3023889d4207f17807ac
:104e94001846e1d33268d8f80050002acfd1002b4d
:104ea4003ff458af01230093e9e53a4a00211af090
:104eb40067fb3060013013d019f0c2fb314a2f492f
:104ec40000f2e733a2fb03239b094ff47a7202fb3f
:104ed40003f247f6fe73b2fbf0f29a420a606ed90f
:104ee4001bf02ef9002863d113f084fbff233b70e1
:104ef4001bf026f900283ff401ae1bf01bf94ff01c
:104f0400ff32254915f098f8f8e5244b029f0393e6
:104f140018204ff4803100262b6a214a23f47c1395
:104f24000b432b62294610441af022f817f00103b0
:104f34007ff4d3ae039a518809010aeb01000122e0
:104f44000789456817430781029f02fa06f637432b
:104f54000297002d3ff4c1ae0909a847bde6029ba4
:104f64005f08104b0393242000210126d4e700bfdf
:104f7400f4340020443d0020482c0020543d0020ff
:104f8400583d0020d34d6210503d0020643d002068
:104f940074490100d5d7010004490100f4fe010061
:104fa400e8340020fcfe0100282c0020683d00208d
:104fb4001bf0c0f80122184915f03ef894e7174d8c
:104fc400174b02f5a670b0fbf2f002fb00f028606c
:104fd40011b203f5147002e0103398420fd053f865
:104fe400102c002af8d033f9062c002af4d08a4277
:104ff400b8bf0a4623f8062c23f8042cece72388d0
:10500400d8f80050002b7ff4b7ac97f90030012b8f
:105014003ff480ad15e500bfd4480100503d0020a9
:04502400582c0020e4
:020000040000fa
:105028002de9f04fc64b83468bb01868dbf8043087
:1050380003930023cde90633cde9083398b18946b7
:10504800c049164691f8da20012a0d461a4605d1bc
:105058001ee000bf95f8da30012b0dd001328242f4
:1050680005f1e805f6d1dbf80030b7491b6803986d
:1050780098470bb0bde8f08f6a1ad310c3ebc31280
:1050880003ebc202c2eb823203eb021202eb820292
:10509800dbf80030ad495b6803989847ac4bad48e6
:1050a8001b682b609feda47b03eb83035b0002214d
:1050b80041f28932ab602974002340f2be516a8202
:1050c800b9f1010fa44ac5f8d0b085ed087ba861f5
:1050d8006b602b75c5e90a33c5e90c33c5f8a030f8
:1050e80085f8d930c5e92533c5e92933c5e92b3316
:1050f800c5f8b43085f8db30c5f8c030e960c5f8cc
:10510800dc2088bf012440f2e58000bf56f82470f7
:10511800924938464fea84081af05afc002800f0f1
:10512800ce808f4938461af053fc002800f0c7801b
:105138008c4938461af04cfc002800f02d818a4929
:1051480038461af045fc002800f026818749384681
:105158001af03efcc0b1864938461af039fc98b1bd
:10516800844938461af034fc002840f03081b044b5
:105178000134d8f80400002800f0f381012206a9c0
:1051880012f016ff069b6ae0b0444ff00103d8f80e
:1051980004702b7438461af0dffb00f1ff3a07eb76
:1051a8000a0280467449049210461af011fc013430
:1051b800049a002800f0f380104670491af008fca1
:1051c800002840f0ab814ff47a730493baf1000fd2
:1051d80000f0c4814ff0010abb1e51464ff0000e8b
:1051e8009844a2467b1e7246049805950c460ce02e
:1051f80063490eeb8e0ca1fb0051002c40f0db80c4
:1052080007eb4c0ec808984511d013f8011fa1f1ff
:1052180030075ffa87fcbcf1090fe9d92e29f2d1d2
:10522800049998454ff0000401fb02f2edd1049b6c
:10523800059d9342544600fb0efa00f2c1800aeb2a
:105248000200dbf800100090cde9062a53464f68ab
:10525800dbf804004b49b847dde906321344013452
:10526800a145ab613ff652af95f8dd30002b31d048
:10527800012b7ff4feae039cdbf8003042491b682b
:1052880020469847dbf8003040491b68204698477d
:105298002b7c012b00f02181022b00f02d81d5f809
:1052a800d0306a8a1b6803985b683949984705f1ca
:1052b800da00022116f048fe0bb0bde8f08f01239a
:1052c80085f8dd300134a1453ff620af95f8dd3093
:1052d800002bcdd1002105f1800016f095f9c5f815
:1052e800d400002800f00f812b7c022b00f0fd80f9
:1052f800012b09bfab89dfed276a06ee903af8ee7d
:10530800666aab69124adb0807ee903af8eee77a6c
:1053180092ed007a87eea66a05f1da000a21b8ee66
:10532800477ac7ee067afceee77ac5ed247a16f0de
:105338000bfe0bb0bde8f08f00000000000000007d
:10534800b83c0020b0300020d8e1000004e20000a2
:10535800bc3c0020809698000000b40528e00000be
:105368002ce0000038e000003ce0000044e00000d1
:1053780048e0000078e0000054e0000058e0000039
:10538800cdcccccc5ce000006ce10000a8e10000d2
:10539800cce100000000000001232b7492e71046c6
:1053a800b2491af015fbb24a00280cbf4ff47a73c1
:1053b800134604930ae702eb820207eb420222e754
:1053c800049b03fb02f31a460aeb030039e7a949d9
:1053d80038461af0fdfa00283ff4c9aea649384607
:1053e8001af0f6fa002800f09f80a44938461af00f
:1053f800effa002800f09880a14938461af0e8fa38
:10540800002800f0b0809f4938461af0e1fa0028d9
:1054180000f0a9809c4938461af0dafa002800f012
:10542800b6809a4938461af0d3fa002800f0af80bf
:10543800974938461af0ccfa002800f0ba80954906
:1054480038461af0c5fa002800f0b3809249384669
:105458001af0befa002800f0da80904938461af0af
:10546800b7fa002800f0d3808d4938461af0b0fa10
:10547800002800f0bc808b4938461af0a9fa0028a9
:1054880000f0b580884938461af0a2fa002800f0e2
:105498001f81864938461af09bfa002800f01881c7
:1054a800834938461af094fa30b1384681491af0df
:1054b8008ffa00287ff406afb0440134d8f804000e
:1054c800002800f0c980012206a912f071fd069b90
:1054d800332b40f2c280eb60f4e6dbf8003076490b
:1054e8001b68039898472b7cd6e6b5f8de3006eea5
:1054f800903af8ee666a04e7dbf800306f491b68fb
:1055080003989847cbe6dbf800306d491b68039891
:1055180098471af0c5fdc5f8d400e5e601223846db
:1055280006a912f045fd2de6b044002385f8dd30cc
:10553800d8f80400013440b3042206a912f038fd5b
:105548009df81800079b089a85f84530099b85f84f
:10555800440085f8462085f84730b3e65046524661
:105568006fe606900ee6b0440134d8f80400f0b1b6
:10557800012206a912f01cfd524b069a1b6803fb78
:1055880002f30022c5e901239ce60690dae7b0445d
:105598000134d8f80400002800f0a680012206a9ea
:1055a80012f006fd069b6b600023ab608ae606904e
:1055b800e2e7b0440134d8f804004378782b44d0ab
:1055c800012206a912f0f4fc9df81820202a39d0ef
:1055d80034d9a02a2fd0c02a26d110232b75dbf866
:1055e80000102b7d4f6803983749b8476ae6b044e6
:1055f8000134d8f80400d0b1012206a912f0d8fc71
:10560800304b069a1b6803fb02f32b605ae6b04442
:105618000134d8f8040060b1012206a912f0c8fcd0
:10562800069ba5f8de304de600232b75d7e70690dc
:10563800e6e70690f4e720232b75d0e7002af3d19c
:105648002a75cce708232b75c9e7408840ba80b291
:1056580018f0bcfc0246b9e70690d5f8d0301b49d3
:105668001b6803985b683422984702e558e00000fd
:1056780040420f007ce0000088e000008ce0000061
:1056880098e000009ce00000a4e00000a8e0000012
:10569800b0e00000b4e00000e8e00000ece000004a
:1056a80034230100f4e0000000e1000004e1000000
:1056b8000ce1000010e10000c4e10000c8e10000b6
:1056c80044e10000bc3c0020bce0000018e1000000
:1056d800b0440134d8f8040040b1012206a912f000
:1056e80067fc069b6b82ede506905be70690f8e7a2
:020000040000fa
:1056f8005b5054502d474d5d2054582d4d617463b7
:1057080068207265672064756d7020286c617374f9
:10571800207772697474656e2076616c756573297b
:105728003a0d0a00202054584d43544c202030781c
:105738002530386c58202054584d5041544820305a
:10574800782530386c580d0a000000002020545885
:105758004d5041544c2030782530386c5820205416
:10576800584d4d534b482030782530386c580d0a29
:1057780000000000202054584d4d534b4c203078e9
:105788002530386c58202054584d4c4f4320203039
:10579800782530386c580d0a000000005b505450d2
:1057a8002d474d5d20574149545f54584d43544c43
:1057b8002063622074696d656f75742c207265743e
:1057c80072790d0a000000005b5054502d474d5d62
:1057d800205458504d444554206f6b2c2053796efb
:1057e80063202325750d0a005b5054502d474d5ded
:1057f800205458504d4445542074696d656f757434
:105808002061667465722053796e63202325750db7
:105818000a0000005b5054502d474d5d2052454111
:10582800445f53544154555330206661696c656434
:105838002c2072657472790d0a0000005b50545078
:105848002d474d5d20574149545f5354415455539a
:10585800302063622074696d656f75742c207265e1
:105868007472790d0a0000005b5054502d474d5d4d
:1058780020535441545553303d30782530386c58b6
:105888002061667465722053796e63202325750d37
:105898000a0000005b5054502d474d5d205454536e
:1058a8004341206e6f74207365742061667465725d
:1058b8002053796e63202325750d0a005b505450e0
:1058c8002d474d5d20574149545f54545343415f20
:1058d800482063622074696d656f75742c20726549
:1058e8007472790d0a0000005b5054502d474d5dcd
:1058f80020574149545f54545343415f4c206362dd
:105908002074696d656f75742c2072657472790dd9
:105918000a0000005b5054502d474d5d2057414907
:10592800545f434c4541522063622074696d656f32
:1059380075742c2072657472790d0a005b474d5d91
:1059480020232575202074313d2530326c753a2589
:1059580030326c753a2530326c752e2530396c75bd
:105968000d0000005b5054502d474d5d20574149b4
:10597800545f464f4c4c4f5755505f54585f444ff7
:105988004e452074696d656f757420616674657223
:10599800204655202325750d0a0000005b50545001
:1059a8002d474d5d20524d575f434f4e4649473076
:1059b8005f52454144206661696c65642c207265bc
:1059c8007472790d0a0000005b5054502d474d5dec
:1059d80020524d575f434f4e464947305f57414924
:1059e800545f524541442074696d656f75740d0aa2
:1059f800000000005b5054502d474d5d20434f4e32
:105a08004649473020524d573a2030782530386c77
:105a180058202d3e2030782530386c580d0a00006b
:105a28005b5054502d474d5d20524d575f434f4eac
:105a380046494730207772697465206661696c65ec
:105a4800642c2072657472790d0a00005b50545002
:105a58002d474d5d20524d575f434f4e46494730c5
:105a68005f574149545f57524954452074696d65e1
:105a78006f75740d0a0000005b5054502d474d5d42
