:020000040000fa
:10000000f8ff0320ed02020099710200297102003d
:1000100045710200617102007d7102000000000064
:1000200000000000000000000000000095ee01004c
:1000300075bb01000000000095ee010095ee010087
:1000400095ee010095ee010095ee010095ee0100a0
:1000500095ee010095ee010095ee010095ee010090
:1000600095ee010095ee0100b571020095ee0100dc
:1000700095ee010095ee010095ee010095ee010070
:1000800095ee010095ee010095ee010095ee010060
:1000900095ee010095ee010095ee010095ee010050
:1000a00095ee010095ee0100a55b020095ee0100c2
:1000b00095ee010095ee010095ee010099370200e2
:1000c000ed37020095ee010095ee010095ee01007e
:1000d00095ee010095ee010095ee010095ee010010
:1000e00095ee010095ee0100000000000000000008
:1000f0000000000095ee0100f9940100f994010060
:10010000f9940100f99401006d3b02006d3b02007f
:100110006d3b02006d3b020095ee010095ee010083
:1001200095ee010095ee010095ee010095ee0100bf
:1001300095ee010095ee010095ee010095ee0100af
:1001400095ee010095ee010095ee010095ee01009f
:1001500095ee010095ee010095ee010095ee01008f
:1001600095ee010095ee010095ee010095ee01007f
:1001700095ee010095ee010095ee010095ee01006f
:1001800095ee010095ee010095ee010095ee01005f
:1001900095ee010095ee010095ee010095ee01004f
:1001a00095ee010095ee010095ee010095ee01003f
:1001b00095ee010095ee010095ee010095ee01002f
:1001c00095ee010095ee010095ee010095ee01001f
:1001d00095ee010095ee010095ee010095ee01000f
:1001e00095ee010095ee010095ee0100f564020028
:1001f0001942020095ee010095ee010095ee010016
:1002000095ee010095ee010095ee010095ee0100de
:1002100095ee010095ee010095ee010095ee0100ce
:1002200095ee010095ee010095ee010095ee0100be
:1002300095ee010095ee010095ee010095ee0100ae
:1002400095ee010095ee010095ee010095ee01009e
:1002500095ee010095ee010095ee010095ee01008e
:0402600095ee010016
:020000040000fa
:10026400f8b500bff8bc08bc9e467047114b0200ad
:10027400f8b500bff8bc08bc9e467047ed4a0200c2
:020000040000fa
:080284006037010001000000d9
:020000040000fa
:10028c00504f5200424f44434f524500424f445648
:10029c00444400004558540057445400554e4b4eae
:1002ac004f574e0053595354000000004f4b000061
:1002bc004641494c000000000d0a3d3d3d3d3d3d91
:1002cc003d3d3d3d3d3d3d3d3d3d3d3d3d3d3d3d52
:1002dc003d3d3d3d3d3d3d3d3d3d3d3d0d0a5b4183
:1002ec0050505d204275696c643a20417072203226
:1002fc003420323032362030393a32383a313820e4
:10030c00205243415553453d3078253032782028d2
:10031c002573290d0a0000005b4150505d2050618f
:10032c00636b657448616e646c6572526567697362
:10033c007465723a2025730d0a0000005b41505021
:10034c005d2053544154455f49444c4520656e74bf
:10035c006572656420e280942063616c6c696e67e1
:10036c00205054505f464f4c5f496e69740d0a0023
:10037c005b5054502d474d5d206472697665722038
:10038c007265616479206166746572207265696e4c
:10039c006974202d2072652d6170706c79696e679f
:1003ac002054582d4d6174636820636f6e666967c5
:1003bc000d0a00005b54524143455d2044454c41bd
:1003cc00595f43414c432074313d256c6c6420745f
:1003dc00323d256c6c642074333d256c6c6428684c
:1003ec00773d2564292074343d256c6c6420667738
:1003fc00643d256c6c64206277643d256c6c6420d4
:10040c0064656c61793d256c6c640d0a000000001c
:10041c005b464f4c5d20526567697374657220773b
:10042c0072697465206661696c65643a2061646404
:10043c00723d3078253038580d0a00002b00000032
:10044c005b464f4c5d2044656c61795f5265712051
:10045c0074696d656f7574202d2d207265747279b9
:10046c00696e670d0a0000005b464f4c5d205454ca
:10047c005343413a205265616452656769737465f0
:10048c007228434f4e4649473029206661696c6596
:10049c00640d0a005b464f4c5d2054545343413a63
:1004ac002057726974655265676973746572284365
:1004bc004f4e4649473029206661696c65640d0ac8
:1004cc00000000005b464f4c5d2054545343413aae
:1004dc002057726974655265676973746572285424
:1004ec00584d5041544c29206661696c65640d0a65
:1004fc00000000005b464f4c5d2054545343413a7e
:10050c0020577269746552656769737465722854f3
:10051c00584d43544c29206661696c65640d0a0082
:10052c005b464f4c5d2044656c61795f5265712070
:10053c0073656e64206661696c65640d0a00000069
:10054c005b54524143455d2044454c41595f5245f3
:10055c00515f53454e54207365713d25752074339e
:10056c005f73773d256c6c640d0a00005b464f4c45
:10057c005d2054545343413a20526561645265677f
:10058c006973746572285454534341482920666139
:10059c00696c65640d0a00005b464f4c5d20545439
:1005ac005343413a205265616452656769737465bf
:1005bc0072285354415455533029206661696c6537
:1005cc00640d0a005b464f4c5d2074332048572065
:1005dc00636170747572652074696d656f757420d4
:1005ec00535441545553303d30782530385820e21f
:1005fc0080942053572066616c6c6261636b0d0aaa
:10060c00000000005b464f4c5d207433204857209f
:10061c0064656665727265642074696d656f757466
:10062c0020e2809420646566657272656420636163
:10063c006c6320776974682053572074330d0a005b
:10064c005b464f4c5d2054545343413a20526561f4
:10065c006452656769737465722854545343414cf2
:10066c0029206661696c65640d0a00005b54524177
:10067c0043455d2054335f4857207365633d2575b2
:10068c00206e733d257520746f74616c3d256c6c08
:10069c00750d0a005b464f4c5d2054696d656f7596
:1006ac00742077616974696e6720666f72204d41a2
:1006bc00435f54534c2077726974650d0a00000037
:1006cc005b464f4c5d20486172642073796e6320e9
:1006dc00636f6d706c657465640d0a005b464f4cfe
:1006ec005d2054696d656f75742077616974696eee
:1006fc006720666f72204d41435f544e20777269bc
:10070c0074650d0a000000005b464f4c5d203150b3
:10071c005053206f757470757420656e61626c65d2
:10072c00640d0a005b464f4c5d2054696d656f7516
:10073c00742077616974696e6720666f72205050ff
:10074c005343544c2077726974650d0a0000000005
:10075c005b464f4c5d2054696d656f7574207761f5
:10076c006974696e6720666f72204d41435f54490e
:10077c005355424e2077726974650d0a00000000d3
:10078c005b464f4c5d20436c6f636b20696e6372ec
:10079c00656d656e74207365743a2054493d2575fa
:1007ac002054495355424e3d3078253038580d0a67
:1007bc00000000005b464f4c5d2054696d656f7501
:1007cc00742077616974696e6720666f72204d4181
:1007dc00435f54492077726974650d0a000000006c
:1007ec005b464f4c5d204d41435f544120257325a2
:1007fc006c75206e732028256c75207573290d0a75
:10080c00000000005b464f4c5d2054696d656f75b0
:10081c00742077616974696e6720666f72204d4130
:10082c00435f54412077726974650d0a0000000023
:10083c00656e61626c65640064697361626c6564a9
:10084c00000000005b54524143455d205054502041
:10085c0074726163652025730d0a00005054505f5b
:10086c00464f4c5f496e69743a20485720696e694f
:10087c007420646f6e652c20505450206d6f64652d
:10088c003d256420286e6f742061637469766174f1
:10089c006564290d0a000000474d5f5245534554cd
:1008ac00202d3e20536c617665206e6f646520723e
:1008bc006573657420696e6974696174656420641c
:1008cc00756520746f2073657175656e636520495d
:1008dc0044206d69736d617463680d0a000000003b
:1008ec00474d5f52455345543a2072657573696e96
:1008fc00672063616c696272617465642054493d60
:10090c0025752054495355424e3d30782530385882
:10091c000d0a0000466f6c6c6f7755702073657113
:10092c004964206d69736d617463682e2049733a54
:10093c00202575202d2025640d0a0000466f6c6c57
:10094c006f775570207365714964206f7574206fd3
:10095c00662073796e632e2049733a202575202dfd
:10096c002025640d0a0000004c61726765206f66db
:10097c00667365742c207363686564756c696e6747
:10098c0020686172642073796e630d0a00000000a8
:10099c0046696c7465726564207261746552617429
:1009ac00696f206f75746c6965720d0a0000000028
:1009bc0050545020554e494e49542d3e4d415443b0
:1009cc00484652455120207363686564756c696ea6
:1009dc00672054493d25752054495355424e3d30ae
:1009ec0078253038580d0a005b5054505d204d412d
:1009fc00544348465245512d3e4841524453594e5a
:100a0c0043206f66667365743d25640d0a00000013
:100a1c000d0a50545020434f4152534520206f66cd
:100a2c00667365743d25640d0a0000000d0a505470
:100a3c00502046494e45202020206f666673657411
:100a4c003d25640d0a0000005b464f4c5d2025736c
:100a5c00202074313d2530326c753a2530326c755e
:100a6c003a2530326c752e2530396c752020743255
:100a7c003d2530326c753a2530326c753a25303262
:100a8c006c752e2530396c7520206f66663d252bd4
:100a9c00313064206e73202064656c61793d256c67
:100aac006c64206e730d0a004c617267652073656f
:100abc007175656e6365206d69736d617463683af9
:100acc002025752076732025642e2052657365745d
:100adc0074696e672e2e2e0d0a00000053796e631a
:100aec00207365714964206d69736d617463682e40
:100afc002049733a202575202d2025640d0a00000d
:100b0c005b54524143455d2044454c41595f52452d
:100b1c0053505f554e534f4c4943495445442073f1
:100b2c0065713d25750d0a005b54524143455d20ae
:100b3c0044454c41595f524553505f5245434549da
:100b4c00564544207365713d25750d0a0000000063
:100b5c005b54524143455d2044454c41595f5245dd
:100b6c0053505f57524f4e475f53455120676f7438
:100b7c003d25752065787065637465643d25750d3c
:100b8c000a0000005b464f4c5d2044656c61795f48
:100b9c005265737020736571206d69736d61746338
:100bac006820e280942069676e6f7265640d0a009c
:100bbc005b54524143455d2044454c41595f52457d
:100bcc0053505f57524f4e475f434c4f434b20732c
:100bdc0065713d25750d0a005b464f4c5d204465e3
:100bec006c61795f5265737020666f722064696600
:100bfc00666572656e7420636c6f636b20e2809423
:100c0c002069676e6f7265640d0a00005b464f4c7d
:100c1c005d207433204857206e6f742072656164b8
:100c2c007920e280942053572066616c6c6261637a
:100c3c006b20757365640d0a000000005b464f4c19
:100c4c005d20556e6b6e6f776e206d736754797087
:100c5c00653d25752c2069676e6f7265640d0a0001
:100c6c005b464f4c5d204f6e4672616d6520696727
:100c7c006e6f7265643a206d6f64653d2564202843
:100c8c006e6f7420534c415645290d0a000000002c
:100c9c00554e494e49542020200000004d415443ec
:100cac0048465245510000004841524453594e4366
:100cbc0020000000434f41525345202020000000eb
:100ccc0046494e4520202020200000005b50545007
:100cdc002d474d5d205573696e672063616c6962a9
:100cec0072617465642054493d25752054495355ef
:100cfc00424e3d30782530386c580d0a000000000b
:100d0c005b5054502d474d5d20496e6974207374af
:100d1c00617274656420284d414320253032583a65
:100d2c00253032583a253032583a253032583a2547
:100d3c003032583a25303258290d0a005b50545045
:100d4c002d474d5d2054582d4d617463682072659c
:100d5c00672064756d7020286c61737420777269dc
:100d6c007474656e2076616c756573293a0d0a0092
:100d7c00202054584d43544c202030782530386c6a
:100d8c0058202054584d5041544820307825303844
:100d9c006c580d0a00000000202054584d5041544e
:100dac004c2030782530386c58202054584d4d53f9
:100dbc004b482030782530386c580d0a0000000064
:100dcc00202054584d4d534b4c2030782530386ce6
:100ddc0058202054584d4c4f432020307825303823
:100dec006c580d0a000000005b5054502d474d5daf
:100dfc0020574149545f54584d43544c2063622052
:100e0c0074696d656f75742c2072657472790d0a36
:100e1c00000000005b5054502d474d5d205458503d
:100e2c004d444554206f6b2c2053796e6320232541
:100e3c00750d0a005b5054502d474d5d2054585091
:100e4c004d4445542074696d656f757420616674ea
:100e5c0065722053796e63202325750d0a000000fe
:100e6c005b5054502d474d5d20524541445f5354c7
:100e7c004154555330206661696c65642c20726551
:100e8c007472790d0a0000005b5054502d474d5d73
:100e9c0020574149545f5354415455533020636299
:100eac002074696d656f75742c2072657472790d80
:100ebc000a0000005b5054502d474d5d20535441a7
:100ecc00545553303d30782530386c582061667459
:100edc0065722053796e63202325750d0a0000007e
:100eec005b5054502d474d5d205454534341206e5c
:100efc006f74207365742061667465722053796e0b
:100f0c0063202325750d0a005b5054502d474d5d11
:100f1c0020574149545f54545343415f4820636206
:100f2c002074696d656f75742c2072657472790dff
:100f3c000a0000005b5054502d474d5d205741492d
:100f4c00545f54545343415f4c2063622074696d69
:100f5c00656f75742c2072657472790d0a0000002f
:100f6c005b5054502d474d5d20574149545f434cc5
:100f7c004541522063622074696d656f75742c2035
:100f8c0072657472790d0a005b474d5d20232575df
:100f9c00202074313d2530326c753a2530326c7519
:100fac003a2530326c752e2530396c750d0a0000df
:100fbc005b5054502d474d5d20574149545f464f6f
:100fcc004c4c4f5755505f54585f444f4e4520740e
:100fdc00696d656f75742061667465722046552065
:100fec002325750d0a0000005b5054502d474d5db4
:100ffc0020524d575f434f4e464947305f52454153
:10100c0044206661696c65642c2072657472790d7c
:10101c000a0000005b5054502d474d5d20524d5737
:10102c005f434f4e464947305f574149545f5245e5
:10103c0041442074696d656f75740d0a00000000e1
:10104c005b5054502d474d5d20434f4e4649473021
:10105c0020524d573a2030782530386c58202d3e90
:10106c002030782530386c580d0a00005b505450f5
:10107c002d474d5d20524d575f434f4e46494730eb
:10108c00207772697465206661696c65642c2072c6
:10109c00657472790d0a00005b5054502d474d5dfc
:1010ac0020524d575f434f4e464947305f57414999
:1010bc00545f57524954452074696d656f75740db2
:1010cc000a0000005b5054502d474d5d20434f4e9d
:1010dc004649473020524d5720646f6e650d0a000b
:1010ec005b5054502d474d5d20524d575f5041443d
:1010fc004354524c5f52454144206661696c6564af
:10110c002c2072657472790d0a0000005b505450eb
:10111c002d474d5d20524d575f5041444354524c26
:10112c005f574149545f524541442074696d656f66
:10113c0075740d0a000000005b5054502d474d5d36
:10114c00205041444354524c20524d573a20307851
:10115c002530386c58202d3e2030782530386c588e
:10116c000d0a00005b5054502d474d5d20524d57d9
:10117c005f5041444354524c207772697465206629
:10118c0061696c65642c2072657472790d0a0000bb
:10119c005b5054502d474d5d20524d575f5041448c
:1011ac004354524c5f574149545f57524954452060
:1011bc0074696d656f75740d0a0000005b505450b6
:1011cc002d474d5d205041444354524c20524d57b5
:1011dc0020646f6e6520e280942073746172746970
:1011ec006e67206e6f726d616c20696e697420730e
:1011fc00657175656e63650d0a0000005b50545097
:10120c002d474d5d20494e49545f57524954452056
:10121c006661696c65642061742073746570202547
:10122c00750d0a005b5054502d474d5d20574149b8
:10123c00545f494e49545f575249544520636220cc
:10124c0074696d656f75742061742073746570209a
:10125c0025750d0a000000005b5054502d474d5d64
:10126c0020496e697420636f6d706c65746520e243
:10127c00809420616c6c20726567697374657273fd
:10128c00207772697474656e0d0a00005b505450bf
:10129c002d474d5d2057524954455f54584d43548a
:1012ac004c206661696c65640d0a00005b505450fb
:1012bc002d474d5d20574149545f57524954455f66
:1012cc0054584d43544c2063622074696d656f759e
:1012dc00740d0a005b5054502d474d5d2057414909
:1012ec00545f53594e435f54585f444f4e452074de
:1012fc00696d656f75742061667465722053796ec3
:10130c0063202325750d0a005b5054502d474d5d0d
:10131c00204445494e49545f575249544520666113
:10132c00696c656420617420737465702025750d7b
:10133c000a0000005b5054502d474d5d2057414929
:10134c00545f4445494e49545f57524954452063b4
:10135c00622074696d656f75742061742073746597
:10136c00702025750d0a00005b5054502d474d5dc3
:10137c00204465696e697420636f6d706c6574656b
:10138c0020e280942054582d4d617463682f54537f
:10139c00552f5050532064697361726d65640d0a4a
:1013ac00000000005b5054502d474d5d2044656992
:1013bc006e69743a207374617274696e672061731c
:1013cc00796e632064697361726d207365717565e4
:1013dc006e63650d0a0000005b54524143455d206d
:1013ec00474d5f44454c41595f5245515f5245430f
:1013fc004549564544207365713d25752074343d2f
:10140c00256c752e2530396c750d0a005b505450c7
:10141c002d474d5d2044656c61795f526571207379
:10142c0065713d25752064726f707065643a206e2d
:10143c006f2048572052582074696d657374616d24
:10144c00700d0a005b54524143455d20474d5f448b
:10145c00454c41595f5245515f4e4f5f54494d4584
:10146c005354414d50207365713d25750d0a000094
:10147c005b5054502d474d5d2044656c61795f5233
:10148c006573702073656e64206661696c65640dac
:10149c000a0000005b54524143455d20474d5f44b8
:1014ac00454c41595f524553505f53454e445f463e
:1014bc0041494c4544207365713d25750d0a00006a
:1014cc005b5054502d474d5d2044656c61795f52e3
:1014dc006573702073656e7420287365713d257576
:1014ec002074343d256c752e2530396c75290d0a08
:1014fc00000000005b54524143455d20474d5f4462
:10150c00454c41595f524553505f53454e542073df
:10151c0065713d25750d0a005b5054502d474d5d8e
:10152c002044656c61795f5265737020736b6970d0
:10153c00706564202854582062757379290d0a004f
:10154c005b54524143455d20474d5f44454c4159e6
:10155c005f524553505f534b49505045445f54586c
:10156c005f42555359207365713d25750d0a000076
:10157c005b434c4b5d20696e73745f707062204fdf
:10158c0055544c49455220252b6c6c6420286669b7
:10159c006c74657265643d252b6c64206465763dc6
:1015ac00252b6c6c64290d0a000000005b434c4b2e
:1015bc005d20616e63686f72204a554d50207265d4
:1015cc006a656374656420696e73745f7070623de4
:1015dc00252b6c6c64206477633d256c6c752065e1
:1015ec00787065637465643d256c6c752028464f76
:1015fc005243452d555044415445206166746572e3
:10160c0020256c752072656a65637473290d0a0058
:10161c005b434c4b5d20616e63686f72204a554d85
:10162c00502072656a656374656420696e73745fbb
:10163c007070623d252b6c6c64206477633d256c67
:10164c006c752065787065637465643d256c6c758c
:10165c000d0a0000436869702d5265766973696fd5
:10166c006e000000504c43412d456e61626c656408
:10167c0000000000504c43412d537461747573008d
:10168c00504c43412d4e6f6465496400504c4341ae
:10169c002d4e6f6465436f756e740000504c434162
:1016ac002d4275727374436f756e7400504c4341c8
:1016bc002d427572737454696d6572005443362de6
:1016cc004368756e6b53697a6500000054582d435e
:1016dc0075745468726f75676800000052582d431a
:1016ec0075745468726f75676800000050726f6d86
:1016fc00697363756f757300535049204672657139
:10170c0075656e63790000005b736b69707065645e
:10171c0020256c755d0d0a00257300004c414e3878
:10172c003635785f256420537461747573302e548c
:10173c0072616e736d69742050726f746f636f6c2d
:10174c00204572726f720d0a000000004c414e3839
:10175c003635785f256420537461747573302e545c
:10176c0072616e736d697420427566666572204f86
:10177c00766572666c6f77204572726f720d0a0017
:10178c004c414e383635785f25642053746174753e
:10179c0073302e5472616e736d6974204275666677
:1017ac00657220556e646572666c6f772045727237
:1017bc006f720d0a000000004c414e383635785fd0
:1017cc00256420537461747573302e52656365699a
:1017dc00766520427566666572204f766572666c1a
:1017ec006f77204572726f720d0a00004c414e38b3
:1017fc003635785f256420537461747573302e4cc4
:10180c006f7373206f66204672616d696e67204539
:10181c0072726f720d0a00004c414e383635785f8b
:10182c00256420537461747573302e48656164654a
:10183c0072204572726f720d0a0000004c414e38d6
:10184c003635785f256420537461747573302e526d
:10185c006573657420436f6d706c6574650d0a005b
:10186c004c414e383635785f25642053746174755d
:10187c0073302e50485920496e74657272757074ad
:10188c000d0a00004c414e383635785f25642053e4
:10189c007461747573302e5472616e736d6974203b
:1018ac004672616d6520436865636b205365717585
:1018bc00656e6365204572726f720d0a0000000040
:1018cc004c414e383635785f2564205374617475fd
:1018dc0073302e436f6e74726f6c20446174612090
:1018ec0050726f74656374696f6e204572726f729b
:1018fc000d0a00004c414e383635785f2564205374
:10190c007461747573302e556e6b6e6f776e2042ea
:10191c0069743d2564207265672d76616c3d307865
:10192c0025640d0a00000000436f6e666967302065
:10193c007265676973746572207265616420666193
:10194c00696c65640d0a00004c414e383635785f81
:10195c0025642000537461747573312e52585f4e98
:10196c006f6e5f5265636f76657261626c655f4521
:10197c0072726f720d0a0000537461747573312e9c
:10198c0054585f4e6f6e5f5265636f76657261621d
:10199c006c655f4572726f720d0a0000537461744e
:1019ac007573312e46534d5f53746174655f457288
:1019bc00726f720d0a000000537461747573312ece
:1019cc005352414d5f4543435f4572726f720d0a2e
:1019dc0000000000537461747573312e556e64658c
:1019ec0072766f6c746167650d0a000053746174d4
:1019fc007573312e496e7465726e616c5f427573ce
:101a0c005f4572726f720d0a0000000053746174ae
:101a1c007573312e54585f54696d657374616d70b4
:101a2c005f436170747572655f4f766572666c6f3b
:101a3c00775f410d0a000000537461747573312e89
:101a4c0054585f54696d657374616d705f43617058
:101a5c00747572655f4f766572666c6f775f420d59
:101a6c000a000000537461747573312e54585f541e
:101a7c00696d657374616d705f43617074757265c7
:101a8c005f4f766572666c6f775f430d0a000000de
:101a9c00537461747573312e54585f54696d65734a
:101aac0074616d705f436170747572655f4d6973bd
:101abc007365645f410d0a00537461747573312e44
:101acc0054585f54696d657374616d705f436170d8
:101adc00747572655f4d69737365645f420d0a00be
:101aec00537461747573312e54585f54696d6573fa
:101afc0074616d705f436170747572655f4d69736d
:101b0c007365645f430d0a00537461747573312ef1
:101b1c004d434c4b5f47454e5f5374617475730d69
:101b2c000a000000537461747573312e4578746526
:101b3c006e6465645f426c6f636b5f537461747544
:101b4c00730d0a00537461747573312e556e6b6e80
:101b5c006f776e4572726f720d0a00005365747464
:101b6c00696e67206661696c65642c2061646472bf
:101b7c003d307825580d0a00457874426c6f636bc4
:101b8c002e5350495f4572725f496e740d0a000006
:101b9c00457874426c6f636b2e4d41435f424d47e9
:101bac00525f496e740d0a00457874426c6f636b1a
:101bbc002e4d41435f496e740d0a00004578744206
:101bcc006c6f636b2e484d585f496e740d0a0000a4
:101bdc00457874426c6f636b2e47494e545f4d6170
:101bec00736b0d0a00000000457874426c6f636bd8
:101bfc002e556e6b6e6f776e4572726f720d0a009a
:101c0c0046696e616c2073657474696e67206661d9
:101c1c00696c65640d0a0000496e76616c6964201c
:101c2c004d41435048592c206f75693d30782558eb
:101c3c002c206d6f64656c3d307825580d0a0000c2
:101c4c00496e76616c6964204368697020526576d0
:101c5c006973696f6e0d0a00636869705f657272f3
:101c6c006f722120506c6561736520636f6e7461b7
:101c7c006374206d6963726f63686970207375702b
:101c8c00706f727420666f72207265706c61636520
:101c9c006d656e742e0d0a005443364572726f7268
:101cac005f5375636365656465640d0a000000002d
:101cbc005443364572726f725f4e6f48617264772f
:101ccc006172650d0a0000005443364572726f72e2
:101cdc005f556e657870656374656453760d0a00a4
:101cec005443364572726f725f556e6578706563da
:101cfc00746564447645760d0a00000054433645fd
:101d0c0072726f725f426164436865636b73756d69
:101d1c000d0a00005443364572726f725f556e6542
:101d2c00787065637465644374726c0d0a0000000e
:101d3c005443364572726f725f42616454784461e9
:101d4c0074610d0a000000005443364572726f72c4
:101d5c005f53796e634c6f73740d0a0054433645b0
:101d6c0072726f725f5370694572726f720d0a00f6
:101d7c005443365f4572726f7220756e6b6e6f775f
:101d8c006e5f666c61673d25640d0a004c414e38f0
:101d9c003635583000000000496e76616c6964205d
:101dac0064726976657220696e7374616e63650026
:101dbc00496e7374616e636520616c7265616479e0
:101dcc0020696e2075736500496e76616c696420bc
:101ddc0044726976657220496e7374616e63650036
:101dec005761732074686520647269766572206926
:101dfc006e697469616c697a65643f00496e7661dd
:101e0c006c6964204472697665722048616e646cfa
:101e1c00650000004661696c656420746f2067651d
:101e2c007420636c69656e74206d75746578206cb4
:101e3c006f636b004661696c656420746f20676525
:101e4c0074207265736f75726365206c6f636b00c1
:101e5c00496e73756666696369656e742051756544
:101e6c0075652044657074680000000030303a30ad
:101e7c00343a32350000000025733a253032583a96
:101e8c00253032583a253032580000004c414e383b
:101e9c00363578004d4348505f4c414e38363578d6
:101eac00000000003139322e3136382e3130302ed0
:101ebc00313100003235352e3235352e3235352e56
:101ecc00300000003139322e3136382e3130302e80
:101edc0031000000302e302e302e300066756c6cc8
:101eec0000000000433a2f776f726b2f7074702fc5
:101efc00636865636b332f6e65745f313062617339
:101f0c00655f7431732f617070732f7463706970b7
:101f1c005f69706572665f6c616e383635782f66f6
:101f2c0069726d776172652f7372632f636f6e6662
:101f3c0069672f64656661756c742f6c6962726178
:101f4c0072792f74637069702f7372632f646e7360
:101f5c002e6300002d7478006970657266733a20e8
:101f6c0073697a652072616e6765206572726f7233
:101f7c00210d0a002d7278002d2d696e6465780094
:101f8c006970657266733a20696e64657820726157
:101f9c006e6765206572726f72210d0a0000000079
:101fac0055736167653a20697065726673203c2dc4
:101fbc0074782073697a653e203c2d7278207369a1
:101fcc007a653e203c2d6920696e6465783e0d0a69
:101fdc00000000000d0a69706572663a20496e7641
:101fec00616c69642073657373696f6e206e756db7
:101ffc006265722e204d696e3a20302c204d61782e
:10200c003a2025640d0a00006970657266733a20e7
:10201c0030203c2073697a65203c203635353336c8
:10202c000d0a00006970657266733a204f4b2c20c4
:10203c00696e7374616e63652025642074782073f7
:10204c00697a652069732025640d0a0069706572d0
:10205c0066733a204f4b2c20696e7374616e636506
:10206c002025642072782073697a65206973202595
:10207c00640d0a0069706572666b3a205573696e5f
:10208c006720696e64657820300d0a00697065728e
:10209c00666b3a20696e6465782072616e676520a4
:1020ac006572726f72210d0a000000005573616732
:1020bc00653a2069706572666b203c2d6920696eeb
:1020cc006465783e0d0a00000d0a69706572662021
:1020dc0073657373696f6e3a206e6f7420737461dd
:1020ec0072746564210d0a000d0a69706572663a96
:1020fc0020747279696e6720746f2073746f70200e
:10210c00697065726620696e7374616e63652025f3
:10211c00642e2e2e0d0a000055736167653a2069f6
:10212c007065726669202d612061646472657373d9
:10213c00203c2d6920696e6465783e0d0a00000014
:10214c006970657266693a207573652061207661e5
:10215c006c69642049502061646472657373210d4d
:10216c000a0000006970657266693a20696e6465e0
:10217c00782072616e6765206572726f72210d0a2c
:10218c00000000006970657266693a20556e6b6ece
:10219c006f776e20706172616d657465720d0a00e7
:1021ac000d0a6970657266693a2063616e6e6f74b0
:1021bc00206368616e6765207468652069702061b2
:1021cc00646472657373207768696c6520736573da
:1021dc0073696f6e3a2025642072756e6e696e6736
:1021ec00210d0a006970657266693a204f4b2c20ec
:1021fc00736574207468652049502061646472654d
:10220c00737320746f20696e7374616e63653a200a
:10221c0025640d0a00000000202020202d205b25c5
:10222c00326c752d2025326c75207365635d20250d
:10223c00336c752f2025336c75202825326c752551
:10224c0025292020202025346c75204b6270730dbd
:10225c000a000000202020202d205b302e302d2065
:10226c00256c752e256c75207365635d2025336c8c
:10227c00752f2025336c75202825326c7525252962
:10228c002020202025346c75204b6270730d0a00c1
:10229c0069706572663a20696e7374616e6365204d
:1022ac00256420636f6d706c65746564202e2e2e12
:1022bc00000000000d0a69706572663a2057617261
:1022cc006e696e672c20544350207365727665726c
:1022dc0020646973636f6e6e6563742064657465e6
:1022ec00637465640d0a000069706572663a204675
:1022fc0061696c656420746f2067657420256420a7
:10230c00627974657320736f636b65742054582005
:10231c0073706163650d0a0069706572663a2053cb
:10232c006f636b65742073656e64206661696c65a0
:10233c00640d0a00697065726620696e7374616e53
:10234c0063652025643a20547820646f6e652e20d6
:10235c00536f636b657420636c6f7365642e0d0a29
:10236c000000000069706572663a20696e737461d2
:10237c006e636520256420636f6d706c6574656495
:10238c002e0d0a000d0a69706572663a20416c6c5c
:10239c0020696e7374616e63657320627573792e38
:1023ac00205265747279206c61746572210d0a007b
:1023bc002d2d736572766572000000002d2d7564ed
:1023cc00700000002d2d62616e6477696474680082
:1023dc000a476976656e20696e2042573a20256c53
:1023ec00752b256c753d256c750000002d2d786db9
:1023fc0069747261746500002d2d636c69656e746f
:10240c00000000002d2d74696d6500002d2d6e757a
:10241c006d0000002d5300002d2d746f7300000013
:10242c000a476976656e20544f532076616c75654a
:10243c002069732025642c206d547970654f665388
:10244c006572766963653a25640000002d4d0000c5
:10245c002d2d6d73730000002d6900002d2d696efc
:10246c0074657276616c00002d7000002d2d706ffc
:10247c00727400002d6c00002d2d6c656e00000038
:10248c0069706572663a20546865206d696e696d75
:10249c00756d20646174616772616d2073697a6512
:1024ac002069732025640d0a0000000069706572b4
:1024bc00663a205573696e6720746865206465669a
:1024cc0061756c7420696e74657266616365210d4b
:1024dc000a0000002d2d2d2d2d2d2d2d2d2d2d2dca
:1024ec002d2d2d2d2d2d2d2d2d2d2d2d2d2d2d2d10
:1024fc002d2d2d2d2d2d2d2d2d2d2d2d2d2d2d2d00
:10250c002d2d2d2d2d2d2d2d2d2d2d2d2d0d0a005f
:10251c0069706572663a20536572766572206c69d3
:10252c007374656e696e67206f6e200055445000a1
:10253c005443500020706f72742025640d0a000003
:10254c000d0a69706572663a205374617274696e13
:10255c00672073657373696f6e20696e7374616e37
:10256c0063652025640d0a000d0a69706572663a70
:10257c0020696e7374616e636520256420737461c9
:10258c0072746564202e2e2e0d0a0000202020204f
:10259c002d204c6f63616c202025752e25752e2502
:1025ac00752e257520706f727420257520636f6ee3
:1025bc006e656374656420776974680d0a000000a9
:1025cc00202020202d2052656d6f74652025752ede
:1025dc0025752e25752e257520706f727420257526
:1025ec000d0a0000202020202d2054617267657494
:1025fc002072617465203d20256c64206270732c00
:10260c0020706572696f64203d20256c64206d73a9
:10261c000d0a0000202020202d2d2d2d2d2d2d2daf
:10262c002d2d2d2d2d2d2d2d2d2d2d2d2d2d2d2dce
:10263c002d2d2d2d2d2d2d2d2d2d2d2d2d2d2d2dbe
:10264c002d0d0a0069706572663a20556e737570af
:10265c00706f7274656420436f6e66696775726122
:10266c0074696f6e0d0a000069706572663a2043da
:10267c0072656174652054435020736f636b65748d
:10268c00206661696c65640d0a00000069706572f2
:10269c00663a20536574206f662052582062756626
:1026ac006665722073697a65206661696c65640d74
:1026bc000a00000069706572663a204372656174a5
:1026cc00652055445020736f636b65742066616997
:1026dc006c65640d0a00000069706572663a2050e2
:1026ec00726f746f636f6c206572726f720d0a007b
:1026fc0069706572663a20554450204765742041d4
:10270c0072726179204661696c65640d0a00000083
:10271c000d0a69706572663a20696e7374616e6336
:10272c00652025642073657373696f6e2073746103
:10273c0072746564202e2e2e0d0a0000697065726d
:10274c00663a202d20466972737420706b74206970
:10275c0064203d20256c64202873686f756c6420a0
:10276c0062652030290d0a0069706572663a205244
:10277c00656376206475706c696361746564207040
:10278c006b740d0a0000000069706572663a205285
:10279c00782074696d6564206f75740d0a000000f3
:1027ac000d0a697065726620696e7374616e63657b
:1027bc002025643a20527820646f6e652e20536f6a
:1027cc00636b657420636c6f7365642e0d0a000077
:1027dc00697065726620696e7374616e636520251d
:1027ec00643a20526561647920666f722074686562
:1027fc00206e6578742073657373696f6e2e0d0a85
:10280c0000000000697065726620696e7374616ef9
:10281c0063652025643a20636f6d706c6574656424
:10282c002e0d0a0069706572663a20636c69656edc
:10283c00742073657373696f6e20636c6f7365645a
:10284c002e0d0a0069706572663a2041525020754f
:10285c006e61626c6520746f207265736f6c766547
:10286c0020746865204d4143206164647265737304
:10287c00206f662072656d6f746520736964652eb8
:10288c000d0a0000202020202d2052656d6f7465ec
:10289c004e6f6465204d41433a20257820257820e1
:1028ac0025782025782025782025780d0a00000031
:1028bc0069706572663a20536574206f66205458af
:1028cc00206275666665722073697a652066616937
:1028dc006c65640d0a00000069706572663a2053dd
:1028ec006574206f662054582071756575696e6724
:1028fc00206c696d6974206661696c65640d0a00f1
:10290c0069706572663a20436c69656e7420636ffa
:10291c006e6e656374696e6720746f2025752e2545
:10292c00752e25752e25752c2055445020706f72f0
:10293c00742025750d0a000069706572663a204393
:10294c006c69656e7420636f6e6e656374696e6717
:10295c0020746f2025752e25752e25752e25752c2a
:10296c002054435020706f72742025750d0a00009e
:10297c0069706572663a2054435020436c69656ee9
:10298c007420636f6e6e656374696f6e2074696d0d
:10299c00656f75740d0a00003a20697065726620c7
:1029ac00636f6d6d616e6473000000006970657219
:1029bc00660000003a20203c69706572663e207308
:1029cc007461727420636d6400000000697065723c
:1029dc00666b00003a203c69706572666b3e206b3a
:1029ec00696c6c20636d64006970657266690000c7
:1029fc003a203c6970657266692061646472657323
:102a0c00733e2020696e7465726661636520636d28
:102a1c006400000069706572667300003a203c69be
:102a2c0070657266732074782f72782073697a657a
:102a3c003e2074782f72782073697a6520636d64f8
:102a4c000000000049507634204173736572743a6b
:102a5c002025732c20696e206c696e653a202564e4
:102a6c002c200d0a000000004950763420496e6974
:102a7c00743a204661696c656420746f20696e69d4
:102a8c0074616c697a653a20256421200d0a000076
:102a9c00495076343a204661696c656420746f2025
:102aac00726567697374657220415250206e6f7441
:102abc00696669636174696f6e21200d0a000000fc
:102acc00495076343a2041525020656e74726965d3
:102adc007320706f6f6c20656d707479210d0a0016
:102aec00544350204e554c4c2064796e616d696393
:102afc0020616c6c6f636174696f6e2068616e64c9
:102b0c006c652f696e69742064617461000000004b
:102b1c00205443502044796e616d696320616c6c64
:102b2c006f636174696f6e206661696c6564000027
:102b3c0055736167653a206d6163696e666f200d30
:102b4c000a00000045783a206d6163696e666f205b
:102b5c000d0a0000496e746572666163653a202542
:102b6c00732044726976657220537461746973744e
:102b7c006963730d0a0000000d0a205265636569d4
:102b8c00766520537461746973746963730d0a00fc
:102b9c0009206e52784f6b5061636b6574733a20e9
:102bac0025640d0a09206e527850656e6442756674
:102bbc00666572733a2025640d0a09206e527853ab
:102bcc0063686564427566666572733a2025640da8
:102bdc000a00000009206e52784572726f725061c3
:102bec00636b6574733a2025640d0a09206e527864
:102bfc00467261676d656e744572726f72733a20be
:102c0c0025640d0a09206e5278427566664e6f7403
:102c1c00417661696c61626c653a2025640d0a002d
:102c2c000d0a205472616e736d6974205374617453
:102c3c006973746963730d0a0000000009206e54f7
:102c4c00784f6b5061636b6574733a2025640d0a81
:102c5c0009206e547850656e6442756666657273b1
:102c6c003a2025640d0a09206e54784572726f72f1
:102c7c005061636b6574733a2025640d0a09206eec
:102c8c005478517565756546756c6c3a2025640de4
:102c9c000a0d0a00096e6f7420737570706f727470
:102cac0065640d0a00000000496e7465726661630c
:102cbc00653a2025732048617264776172652052f1
:102ccc0065676973746572205374617475730d0a4a
:102cdc0000000000092025733a20307825780d0a71
:102cec000000000050696e673a20646f6e652e20fc
:102cfc0053656e74202564207265717565737473e9
:102d0c002c20726563656976656420256420726584
:102d1c00706c6965732e0d0a0000000050696e67b7
:102d2c002055736167653a2070696e67203c737437
:102d3c006f703e2f3c6e616d652f616464726573bc
:102d4c00733e203c6920696e746572666163653ef2
:102d5c00203c6e206e50696e67733e203c74206d73
:102d6c0073506572696f643e203c732073697a6599
:102d7c003e0d0a0073746f700000000050696e679e
:102d8c003a20636f6d6d616e6420696e2070726f96
:102d9c0067726573732e205265747279206c61743e
:102dac0065722e0d0a00000050696e673a20486f5c
:102dbc007374206e616d6520746f6f206c6f6e671d
:102dcc002e2052657472792e0d0a000050696e67c0
:102ddc003a20446174612073697a6520746f6f20a6
:102dec006269672e204d61783a2025642e20526549
:102dfc007472790d0a00000050696e673a20556ea6
:102e0c006b6e6f776e20706172616d657465720d9b
:102e1c000a00000050696e673a207265736f6c7619
:102e2c00696e6720686f73743a2025730d0a000071
:102e3c00556e6b6e6f776e2068656170207479705b
:102e4c00652e205573653a205b312c2025645d0d71
:102e5c000a0000004e6f206865617020696e666f15
:102e6c002065786973747320666f7220747970654d
:102e7c003a202573210d0a00486561702074797021
:102e8c00653a2025732e20496e697469616c206344
:102e9c0072656174656420686561702073697a6518
:102eac003a2025642042797465730d0a00000000f5
:102ebc00416c6c6f6361626c6520626c6f636b203c
:102ecc00686561702073697a653a202564204279bf
:102edc007465730d0a000000416c6c2061766169a9
:102eec006c61626c6520686561702073697a653a03
:102efc002025642042797465732c206869676820ea
:102f0c0077617465726d61726b3a2025640d0a00ed
:102f1c004c6173742068656170206572726f723acf
:102f2c0020307825780d0a004e6f2054726163654d
:102f3c0020696e666f206578697374732e0d0a00b4
:102f4c00537461636b207570206661696c65640de8
:102f5c000a000000537461636b20757020737563f5
:102f6c006365656465640d0a000000005573616754
:102f7c00653a20737461636b203c75702f646f77b6
:102f8c006e3e203c70726573657276653e0d0a006c
:102f9c0045783a20737461636b20646f776e207090
:102fac00726573657276650d0a0000005374616377
:102fbc006b20616c7265616479207570210d0a005b
:102fcc005475726e20537461636b20646f776e203e
:102fdc00616e64207468656e207570210d0a0000a6
:102fec0052657374617274696e67207468652073be
:102ffc007461636b207769746820256420696e7432
:10300c006572666163652873290d0a0053746163e8
:10301c006b20646f776e3a2063616e6e6f742067fd
:10302c006574206120737461636b2068616e646cdd
:10303c00650d0a00537461636b20646f776e2064b6
:10304c006f6e650d0a00000055736167653a206963
:10305c0066203c696e746572666163653e203c64f3
:10306c006f776e2f75703e200d0a000045783a2060
:10307c006966205049433332494e5420646f776e51
:10308c00200d0a00556e6b6e6f776e20696e74653d
:10309c007266616365207370656369666965642037
:1030ac000d0a00005468697320696e74657266615c
:1030bc00636520616c72656164792075700d0a001e
:1030cc004f7065726174696f6e206661696c6564be
:1030dc002e204e6f20636f6e66696775726174691e
:1030ec006f6e0d0a000000005468697320696e74dd
:1030fc0065726661636520616c72656164792064d8
:10310c006f776e0d0a00000057726f6e672070614a
:10311c0072616d657465722073706563696669654b
:10312c0064200d0a000000004f7065726174696fb5
:10313c006e207375636365737366756c210d0a007d
:10314c004f7065726174696f6e206661696c65643d
:10315c00210d0a0055736167653a207365746d61c2
:10316c0063203c696e746572666163653e203c78d1
:10317c003a783a783a783a783a783e200d0a000054
:10318c0045783a207365746d61632050494333323e
:10319c00494e542061613a62623a63633a64643a1c
:1031ac0065653a6666200d0a00000000617267765c
:1031bc005b325d3a2025730d0a000000496e766182
:1031cc006c6964204d4143206164647265737320a3
:1031dc00737472696e67200d0a00000053657420c9
:1031ec004d41432061646472657373206661696c40
:1031fc0065640d0a000000005365742042494f536a
:10320c00204e616d65204f4b0d0a000053657420f4
:10321c0042494f53204e616d65206661696c65644f
:10322c000d0a000055736167653a20736574626915
:10323c006f73203c696e746572666163653e203cf9
:10324c00782e782e782e783e200d0a0045783a207c
:10325c0073657462696f73205049433332494e541d
:10326c00204d434850424f4152445f3239200d0aa1
:10327c0000000000536574206761746577617920e4
:10328c0061646472657373204f4b0d0a000000007b
:10329c005365742067617465776179206164647229
:1032ac00657373206661696c65640d0a000000002b
:1032bc0055736167653a207365746777203c696e56
:1032cc00746572666163653e203c697076342f3696
:1032dc0020616464726573733e203c76616c696432
:1032ec0054696d653e200d0a0000000045783a20b7
:1032fc007365746777205049433332494e542031fb
:10330c0039322e3136382e302e31200d0a00000085
:10331c00496e76616c696420495020616464726501
:10332c00737320737472696e67200d0a00000000bd
:10333c005365742069702061646472657373204fe7
:10334c004b0d0a00536574206970206164647265ca
:10335c007373206661696c65640d0a00557361674f
:10336c00653a207365746970203c696e7465726689
:10337c006163653e203c697076342f36206164644d
:10338c00726573733e203c697076346d61736b2f7c
:10339c006970763620707265666978206c656e3e51
:1033ac000d0a000045783a20736574697020504905
:1033bc00433332494e54203139322e3136382e3087
:1033cc002e38203235352e3235352e3235352e30dd
:1033dc00200d0a004e6f207375636820696e74654a
:1033ec0072666163652069732075700d0a000000b8
:1033fc00416e2061646472657373207365727669c3
:10340c00636520697320616c7265616479207275e3
:10341c006e6e696e672e2053746f70204448435053
:10342c002c205a434c4c2c206574632e20666972f8
:10343c0073740d0a00000000496e76616c6964209b
:10344c004950206d61736b20737472696e67200d27
:10345c000a000000737563636573730055736167cd
:10346c00653a20736574646e7334206966206164f8
:10347c0064203c312f323e0d0a00000045783a2082
:10348c00736574646e73342065746830203139321e
:10349c002e3136382e312e310d0a0000556e6b6ee2
:1034ac006f776e20696e74657266616365207370e8
:1034bc00656369666965640d0a000000496e766192
:1034cc006c6964204950763420616464726573734e
:1034dc0020737472696e670d0a000000556e6b6e76
:1034ec006f776e20444e5320696e6465780d0a0028
:1034fc0053657420444e53202564206164647265c6
:10350c0073732025730d0a0073756363657373669b
:10351c00756c00006661696c656421004e6f6e65a8
:10352c000000000044656661756c7420696e7465fa
:10353c007266616365207365742025730d0a000043
:10354c0044656661756c7420696e7465726661633e
:10355c00652069733a2025730d0a00005573616765
:10356c00653a206465666e6574207365742f6765b3
:10357c0074203c696e746572666163653e0d0a0069
:10358c0045783a206465666e6574207365742065b1
:10359c007468300d0a00000055500000444f574e1f
:1035ac00000000004e6f74205265616479000000c9
:1035bc00556e6b6e6f776e20696e746572666163a3
:1035cc00650d0a002d2d2d2d2d2d2d2d2d2d204948
:1035dc006e74657266616365203c25732f25733e9e
:1035ec0028256429202d2d2d2d2d2d2d2d2d2d0d06
:1035fc000a000000496e7465726661636520697328
:10360c0020646f776e0d0a00486f7374204e616de5
:10361c00653a202573202d204e424e532064697349
:10362c0061626c6564200d0a00000000495076341c
:10363c0020416464726573733a2025730d0a00008f
:10364c004d61736b3a2025730d0a00004761746558
:10365c007761793a2025730d0a000000444e5331ee
:10366c003a2025730d0a0000444e53323a2025733c
:10367c000d0a00004d414320416464726573733a36
:10368c002025730d0a00000064656661756c74205a
:10369c00495020616464726573730000257320695e
:1036ac0073204f4e0d0a00004c696e6b206973201d
:1036bc0025730d0a000000005374617475733a2071
:1036cc0025730d0a0000000050696e673a2077726e
:1036dc006f6e67207265706c7920726563656976b0
:1036ec0065642e204d61736b3a2030782532780d4d
:1036fc000a00000050696e673a207265706c795b45
:10370c0025645d2066726f6d2025733a2074696d97
:10371c0065203d2025646d730d0a000050696e67ad
:10372c003a20444e53206661696c75726520666f51
:10373c00722025730d0a0000444e53204c6f6f6ba2
:10374c0075703a20444e53206661696c7572652021
:10375c00666f722025732c206572723a2025640dd9
:10376c000a000000444e53204c6f6f6b75703a206a
:10377c00726571756573742074696d656f75742edf
:10378c000d0a00004c6f6f6b757020416e7377657e
:10379c00723a0d0a2d2d2d2d2d2d2d2d2d2d2d2d3e
:1037ac002d2d2d2d2d2d2d2d2d2d0d0a0000000034
:1037bc004e6f204c6f6f6b757020656e7472792034
:1037cc00666f72205b25735d0d0a00005b25735dcf
:1037dc002041204950763420416464726573733af9
:1037ec002025642e25642e25642e25640d0a0000e8
:1037fc005b25735d20414141412049507636204183
:10380c006464726573733a2025730d0a000000001e
:10381c00656e61626c65000064697361626c650061
:10382c006e6f6e650000000055736167653a206429
:10383c006e7363203c64656c2f696e666f2f6f6ec0
:10384c002f6f66662f6c6f6f6b75703e200d0a00c4
:10385c0055736167653a202573203c6f6e2f6f6638
:10386c00663e203c696e746572666163653e203c01
:10387c007374726963742f707265663e2f3c636c4f
:10388c006561723e200d0a0045783a202573206f41
:10389c006e20657468300d0a000000007374726944
:1038ac00637400007072656600000000636c6561f3
:1038bc0072000000556e6b6e6f776e206f707469be
:1038cc006f6e0d0a0000000025732025730d0a0091
:1038dc004661696c656420746f2025732025730d17
:1038ec000a00000055736167653a20646e736320ab
:1038fc006c6f6f6b7570203c747970653e203c6802
:10390c006f73744e616d653e200d0a0048656c70d6
:10391c003a203c686f73744e616d653e2855524c6d
:10392c0029202d206c6f6f6b20757020666f7220b4
:10393c00686f73746e616d650d0a000048656c707c
:10394c003a203c747970653e203a2061206f7220d9
:10395c004120666f72204950763420616464726530
:10396c007373206c6f6f6b75700d0a0048656c700b
:10397c003a203c747970653e203a20616161612087
:10398c006f72204141414120666f7220495076365a
:10399c002061646472657373206c6f6f6b75700d4e
:1039ac000a00000048656c703a203c747970653ee2
:1039bc00203a20616e7920666f7220626f746820e5
:1039cc004950763420616e6420495076362061640b
:1039dc006472657373206c6f6f6b75700d0a0000e9
:1039ec00646e7363206c6f6f6b75703a20636f6dd0
:1039fc006d616e6420696e2070726f67726573738f
:103a0c002e205265747279206c617465722e0d0ac9
:103a1c000000000041414141000000006161616112
:103a2c0000000000414e5900616e7900646e7363b2
:103a3c00206c6f6f6b75703a205b25735d204c6f3b
:103a4c006f6b75702054797065206e6f7420737570
:103a5c0070706f727465642e0d0a0000646e73636f
:103a6c00206c6f6f6b75703a20486f7374206e61a9
:103a7c006d6520746f6f206c6f6e672e20526574ad
:103a8c0072792e0d0a000000646e7363206c6f6fe8
:103a9c006b75703a207265736f6c76696e6720680f
:103aac006f73743a20257320666f72207479706579
:103abc003a202573200d0a0055736167653a20641e
:103acc006e73632064656c203c686f73744e616d1b
:103adc00653e7c616c6c200d0a00000048656c70c2
:103aec003a203c686f73744e616d653e2855524c9c
:103afc0029202d2052656d6f7665207468652065d0
:103b0c006e74727920696620657869737473200d00
:103b1c000a00000048656c703a20616c6c202d2006
:103b2c0052656d6f766520616c6c207468652072cf
:103b3c0065736f6c76656420656e747279200d0afe
:103b4c0000000000616c6c005b25735d206e6f746f
:103b5c002070617274206f662074686520444e5327
:103b6c0020436163686520656e747279200d0a00cc
:103b7c00496e636f6d706c65746520636f6d6d61fc
:103b8c006e64200d0a00000055736167653a20646d
:103b9c006e736320696e666f200d0a0048656c7049
:103bac003a20646973706c61792074686520444ea6
:103bbc005320636163686520656e74727920646557
:103bcc007461696c73200d0a00000000444e532090
:103bdc00436c69656e7420697320646f776e210d78
:103bec000a000000444e5320436c69656e742049f2
:103bfc0046202d205374726963743a2025732c204f
:103c0c005072656665727265643a2025730d0a0000
:103c1c00444e5320436c69656e74202d2074696d7d
:103c2c00653a2025642c2070656e64696e673a20b5
:103c3c0025642c2063757272656e743a2025642c91
:103c4c0020746f74616c3a2025640d0a000000002a
:103c5c00486f73746e616d65203d202573200d0acd
:103c6c0054696d656f7574203d202564200d0a0024
:103c7c0049507634203d25730d0a00002d2d2d2d35
:103c8c002d2d2d2d2d2d2d2d2d2d2d2d2d2d2d2d58
:103c9c002d2d2d2d2d2d2d2d2d2d2d2d2d2d2d2d48
:103cac002d2d2d2d2d2d2d2d2d2d2d2d2d2d2d2d38
:103cbc000d0a000049507636203d2025730d0a0070
:103ccc004e6f20444e5320436c69656e74204361e3
:103cdc0063686520656e7472696573200d0a000057
:103cec00496e76616c696420496e70757420436fff
:103cfc006d6d616e64203a5b202573205d200d0a8a
:103d0c000000000055736167653a202573203c69fb
:103d1c006e746572666163653e203c6f6e2f6f66d4
:103d2c00663e200d0a00000045783a20257320508d
:103d3c0049433332494e54206f6e200d0a00000067
:103d4c00556e6b6e6f776e20736572766963652046
:103d5c0025730d0a000000003a20737461636b2018
:103d6c00636f6d6d616e6473000000007463706945
:103d7c00700000004661696c656420746f2063728a
:103d8c006561746520544350495020436f6d6d61db
:103d9c006e64730d0a000000544350495020636f49
:103dac006d6d616e6473207461736b2072656769ed
:103dbc007374726174696f6e206661696c65640df1
:103dcc000a000000696e7465726e616c0000000080
:103ddc00706f6f6c0000000065787465726e616cba
:103dec000000000064656c006c6f6f6b75700000f8
:103dfc006e6574696e666f003a20476574206e6557
:103e0c0074776f726b20696e666f726d6174696f17
:103e1c006e0000006465666e657400003a205365a0
:103e2c00742f4765742064656661756c7420696ec7
:103e3c0074657266616365007a636c6c00000000e7
:103e4c003a205475726e205a434c4c206f6e2f6f73
:103e5c0066660000736574646e7334003a205365b3
:103e6c007420444e5320495076342061646472654a
:103e7c007373000073657469700000003a20536519
:103e8c0074204950206164647265737320616e64a0
:103e9c00206d61736b000000736574677700000020
:103eac003a205365742047617465776179206164a9
:103ebc00647265737300000073657462696f7300dc
:103ecc003a2053657420686f73742773204e6574a1
:103edc0042494f53206e616d650000007365746d2f
:103eec00616300003a20536574204d4143206164a6
:103efc006472657373000000696600003a204272b8
:103f0c00696e6720616e20696e74657266616365a7
:103f1c002075702f646f776e0000000073746163fe
:103f2c006b0000003a20537461636b207475726ee1
:103f3c00206f6e2f6f66660068656170696e666fc4
:103f4c00000000003a20436865636b20686561706f
:103f5c00207374617475730070696e6700000000e3
:103f6c003a2050696e6720616e204950206164646c
:103f7c007265737300000000646e736300000000d0
:103f8c003a20444e5320636c69656e7420636f6de8
:103f9c006d616e64730000006d6163696e666f0025
:103fac003a20436865636b204d4143207374617400
:103fbc006973746963730000433a2f776f726b2fc8
:103fcc007074702f636865636b332f6e65745f312b
:103fdc0030626173655f7431732f617070732f740d
:103fec00637069705f69706572665f6c616e38369c
:103ffc0035782f6669726d776172652f7372632fd6
:10400c00636f6e6669672f64656661756c742f6c7f
:10401c006962726172792f74637069702f73726345
:10402c002f74637069705f68656c706572735f7014
:10403c007269766174652e6800000000433a2f7730
:10404c006f726b2f7074702f636865636b332f6e98
:10405c0065745f3130626173655f7431732f6170a9
:10406c0070732f74637069705f69706572665f6cd2
:10407c00616e383635782f6669726d776172652f8f
:10408c007372632f636f6e6669672f646566617503
:10409c006c742f6c6962726172792f7463706970c1
:1040ac002f7372632f74637069705f68656c7065d1
:1040bc0072732e630000000025642e25642e256487
:1040cc002e256400252e32783a252e32783a252e6c
:1040dc0032783a252e32783a252e32783a252e32fd
:1040ec00780000006c6f7700544350495020537493
:1040fc0061636b204173736572743a20696e20663c
:10410c00696c653a2025732c2066756e633a202500
:10411c00732c206c696e653a2025642c200d0a00e6
:10412c005443502f495020537461636b3a202573cc
:10413c00204d414320696e697469616c697a6174c0
:10414c00696f6e206661696c65640d0a0000000081
:10415c005443502f495020537461636b3a2025739c
:10416c00204d4143204f70656e206661696c65641b
:10417c000d0a00005443502f495020537461636b57
:10418c003a204d6f64756c65206e6f3a2025642063
:10419c00496e697469616c697a6174696f6e2066c5
:1041ac0061696c65640d0a005443502f49502053cb
:1041bc007461636b3a202573204d4143206576650d
:1041cc006e74206e6f74696669636174696f6e20ba
:1041dc0073657474696e67206661696c65640d0a39
:1041ec0000000000544350495020537461636b200d
:1041fc00436f6e643a20696e2066696c653a2025bf
:10420c00732c2066756e633a2025732c206c696eb6
:10421c00653a2025642c200d0a0000005443502fd1
:10422c00495020537461636b3a2048656170206378
:10423c0072656174696f6e206661696c65642c20af
:10424c00747970653a2025640d0a00005443502f90
:10425c00495020537461636b3a204e6574776f72ca
:10426c006b20636f6e66696775726174696f6e201f
:10427c00616c6c6f636174696f6e206661696c65eb
:10428c00643a20256c750d0a000000005443502f31
:10429c00495020537461636b3a205061636b6574b1
:1042ac0020696e697469616c697a6174696f6e20da
:1042bc006661696c65643a20307825780d0a0000d7
:1042cc005443502f495020537461636b3a2044651a
:1042dc006661756c7420466c617368204e657477ea
:1042ec006f726b20636f6e66696775726174696f4c
:1042fc006e206c6f6164206661696c656420257a40
:10430c00750d0a005443502f495020537461636b50
:10431c003a204e6574776f726b20636f6e666967b7
:10432c0075726174696f6e20696e697469616c690c
:10433c007a6174696f6e206661696c65643a2025d8
:10434c00640d0a005443502f495020537461636b21
:10435c003a204e6574776f726b20636f6e66696777
:10436c0075726174696f6e3a20416c696173657323
:10437c00206e6f7420737570706f727465643a2060
:10438c0025640d0a000000005443502f495020535f
:10439c007461636b3a204e6574776f726b20636f38
:1043ac006e66696775726174696f6e3a20696e76b4
:1043bc00616c696420495020616464726573733a5e
:1043cc002030782538780d0a000000002573257af6
:1043dc00750000005443502f495020537461636b97
:1043ec003a20506f776572204d6f646520696e6955
:1043fc007469616c697a6174696f6e206661696c4d
:10440c003a2025640d0a00005443502f4950205384
:10441c007461636b3a2044796e616d6963206d65dc
:10442c006d6f7279206973206c6f773a20256c75eb
:10443c000d0a00005443502f495020537461636b94
:10444c003a20496e697469616c697a6174696f6e3e
:10445c00206661696c6564202564202d2041626fa3
:10446c007274696e6721200d0a0000005443502fae
:10447c00495020537461636b3a20496e69746961c9
:10448c006c697a6174696f6e2053746172746564bf
:10449c00200d0a005443502f495020537461636b14
:1044ac003a204e6574776f726b20636f6e66696726
:1044bc0075726174696f6e206c6f616420666169de
:1044cc006c65643a2025640d0a0000005443502f9b
:1044dc00495020537461636b3a205469636b2072aa
:1044ec006567697374726174696f6e206661696c5b
:1044fc0065643a2025640d0a000000005443502fd7
:10450c00495020537461636b3a20496e6974696138
:10451c006c697a6174696f6e2053595320544d52f3
:10452c00206661696c65643a202564202d20416207
:10453c006f7274696e6721200d0a00005443502f6e
:10454c00495020537461636b3a20496e69746961f8
:10455c006c697a6174696f6e20456e646564202d98
:10456c002073756363657373200d0a005443502fd9
:10457c00495020537461636b3a20496e74657266be
:10458c0061636520496e697469616c697a617469eb
:10459c006f6e206661696c65643a203078257820ee
:1045ac002d2041626f7274696e6721200d0a000024
:1045bc00433a2f776f726b2f7074702f636865633b
:1045cc006b332f6e65745f3130626173655f74316c
:1045dc00732f617070732f74637069705f6970658d
:1045ec0072665f6c616e383635782f6669726d77de
:1045fc006172652f7372632f636f6e6669672f64c8
:10460c00656661756c742f6c6962726172792f7456
:10461c00637069702f7372632f74637069705f6d50
:10462c00616e616765722e6300000000756e6b0031
:10463c0065746800776c616e00000000707070002b
:10464c0067336164700000005061636b65742041d6
:10465c00636b3a206f727068616e207061636b657a
:10466c007421200d0a000000554450204e554c4c2e
:10467c002064796e616d696320616c6c6f63617429
:10468c00696f6e2068616e646c6500005544502043
:10469c0044796e616d696320616c6c6f63617469e0
:1046ac006f6e206661696c65640000000d0a2d2d2b
:1046bc002d2d2d2d2d20537570706f727465642007
:1046cc00636f6d6d616e642067726f757073202df2
:1046dc002d2d2d2d2d0000000d0a202a2a2a200018
:1046ec00202a2a2a000000000d0a2d2d2d2d2d2dfb
:1046fc002d2d2d2d204275696c7420696e20636ff1
:10470c006d6d616e6473202d2d2d2d2d2d2d2d2d68
:10471c002d0000000d0a556e6b6e6f776e20636f67
:10472c006d6d616e642067726f75702e2054727996
:10473c002068656c700d0a00082008000800000055
:10474c000d0a3e001b5b2564430000001b5b2564c7
:10475c00440000000d0a202a2a2a2051756974741d
:10476c00696e672074686520436f6d6d616e64209f
:10477c0050726f636573736f722e20427965202ab5
:10478c002a2a0d0a000000000d0a202a2a2a20538a
:10479c00797374656d205265626f6f74202a2a2ab2
:1047ac000d0a000020092c004661696c65642074b8
:1047bc006f206372656174652074686520436f6e49
:1047cc00736f6c65204150490d0a0000202a2a2a7b
:1047dc0020436f6d6d616e642050726f63657373ef
:1047ec006f723a20506c6561736520747970652026
:1047fc00696e206120636f6d6d616e642a2a2a0dcb
:10480c000a000000202a2a2a20436f6d6d616e6415
:10481c002050726f636573736f723a20756e6b6e96
:10482c006f776e20636f6d6d616e642e202a2a2a5d
:10483c000d0a00000a0d20546f6f206d616e7920f7
:10484c00617267756d656e74732e204d6178696d3c
:10485c00756d206172677320737570706f727465fb
:10486c00643a202564210d0a000000003e0000007f
:10487c00081b5b4b25731b5b25644400081b5b4bbf
:10488c00000000001b5b4b25731b5b256444000080
:10489c00202a2a2a20436f6d6d616e642050726f3e
:1048ac00636573736f7220627566666572206578d6
:1048bc006365656465642e2052657472792e202ab6
:1048cc002a2a0d0a000000003a20526573657420f4
:1048dc00686f737400000000710000003a2071755d
:1048ec00697420636f6d6d616e642070726f6365a7
:1048fc0073736f720000000068656c70000000003c
:10490c003a2068656c7000001b5b41001b5b420029
:10491c001b5b43001b5b44001b5b317e00000000f3
:10492c001b5b347e000000002530326c753a25305c
:10493c00326c753a2530326c752e2530396c750019
:10494c00757074696d653d256c6c756d7300000038
:10495c005b25732025735d25730000005b5054505c
:10496c002d474d5d00000000474d20202000000029
:10497c005b49504552465d00495045524600000087
:10498c005b44454d4f5d000044454d4f20000000f9
:10499c005b4150505d000000415050202000000051
:1049ac005b464f4c5d000000464f4c202000000041
:1049bc005b5054505d00000050545020200000000b
:1049cc005b434c4b5d000000434c4b20200000002f
:1049dc006c6f6f705f73746174733a20737562736c
:1049ec00797374656d2020206d61785f757320205c
:1049fc0020206176675f7573202020636f756e745d
:104a0c000d0a000020202573202025376c752020ee
:104a1c0025376c75202025376c750d0a00000000b9
:104a2c005359535f434d44202000000054435049d8
:104a3c0050202020200000004c4f475f464c55531f
:104a4c004800000041505020202020202000000071
:104a5c00544f54414c202020200000007074705f93
:104a6c006f66667365745f64756d703a20737461fc
:104a7c00727420636f756e743d256c75206f76654e
:104a8c00727772697465733d256c75206361706112
:104a9c00636974793d256c750d0a0000256c6420e2
:104aac0025750d0a000000007074705f6f666673e8
:104abc0065745f64756d703a20656e640d0a000054
:104acc005b53572d4e54505d206d6173746572208d
:104adc006c697374656e696e67206f6e20554450f7
:104aec0020706f72742025750d0a00005b53572dd2
:104afc004e54505d20666f6c6c6f7765723a206e09
:104b0c006f206d6173746572204950207365740d4c
:104b1c000a0000005b53572d4e54505d20666f6c9d
:104b2c006c6f77657220746172676574696e67204b
:104b3c0025752e25752e25752e25753a25750d0a8c
:104b4c00000000005b53572d4e54502d4d5d2054ea
:104b5c0058206275666665722066756c6c2c2064d4
:104b6c00726f7070696e67207365713d25750d0ae3
:104b7c00000000005b53572d4e54502d4d5d20729c
:104b8c00657370207365713d25752074323d256cfd
:104b9c006c642074333d256c6c640d0a00000000bd
:104bac005b53572d4e54502d465d207374616c65cc
:104bbc002072657370207365713d25752065787062
:104bcc0065637465643d25750d0a00005b53572db4
:104bdc004e54502d465d2072657370207365713d87
:104bec0025752074313d256c6c642074323d256c28
:104bfc006c642074333d256c6c642074343d256cde
:104c0c006c64206f66667365743d256c6c642072f1
:104c1c0074743d256c6c640d0a0000005b53572db9
:104c2c004e54502d465d2074696d656f75742073fc
:104c3c0065713d25750d0a005b53572d4e54502d53
:104c4c00465d2072657120207365713d2575207459
:104c5c00313d256c6c640d0a0000000073775f6eab
:104c6c0074705f6f66667365745f64756d703a20ff
:104c7c00737461727420636f756e743d256c75204e
:104c8c006f7665727772697465733d256c752063f8
:104c9c00617061636974793d256c750d0a000000c3
:104cac00256c6c642025750d0a00000073775f6e0f
:104cbc0074705f6f66667365745f64756d703a20af
:104ccc00656e640d0a000000746675747572655f1c
:104cdc0064756d703a20737461727420636f756eb5
:104cec00743d256c75206f76657277726974657387
:104cfc003d256c752063617061636974793d256c29
:104d0c00750d0a00256c6c7520256c6c7520256c56
:104d1c006c640d0a00000000746675747572655f32
:104d2c0064756d703a20656e640d0a005573616789
:104d3c00653a206c616e5f7772697465203c6164c2
:104d4c0064726573735f6865783e203c76616c7540
:104d5c00655f6865783e0a0d000000004578616d5e
:104d6c00706c653a206c616e5f7772697465203087
:104d7c007830303034303030302030783132333499
:104d8c00353637380a0d00004552524f523a2050f2
:104d9c00726576696f7573204c414e206f70657229
:104dac006174696f6e207374696c6c20696e20700d
:104dbc00726f67726573730a0d000000557361673b
:104dcc00653a206c616e5f72656164203c6164645d
:104ddc00726573735f6865783e0a0d004578616d86
:104dec00706c653a206c616e5f726561642030781e
:104dfc0030303034303030300a0d00003a204c4125
:104e0c004e38363558207265676973746572206147
:104e1c0063636573730000004c414e38363558009f
:104e2c004c414e38363558205265616420666169b4
:104e3c006c656420746f2073746172743a207265af
:104e4c0073756c743d25640a0d0000004c414e389e
:104e5c0036355820526561642074696d656f7574c0
:104e6c0020666f7220616464723d3078253038584a
:104e7c000a0d00004c414e3836355820526561649d
:104e8c00204f4b3a20416464723d307825303858bd
:104e9c002056616c75653d3078253038580a0d0008
:104eac004c414e3836355820526561642066616934
:104ebc006c656420666f7220616464723d30782585
:104ecc003038580a0d0000004c414e383635582009
:104edc005772697465206661696c656420746f2013
:104eec0073746172743a20726573756c743d2564c9
:104efc000a0d00004c414e383635582057726974f3
:104f0c00652074696d656f757420666f72206164bd
:104f1c0064723d3078253038580a0d004c414e38bb
:104f2c00363558205772697465204f4b3a204164ce
:104f3c0064723d3078253038582056616c75653d6b
:104f4c003078253038580a0d000000004c414e389e
:104f5c00363558205772697465206661696c6564d2
:104f6c0020666f7220616464723d30782530385849
:104f7c000a0d00006c616e5f7265616400000000d8
:104f8c003a2072656164204c414e38363558207297
:104f9c006567697374657220286c616e5f726561f8
:104fac0064203c616464725f6865783e290000008f
:104fbc006c616e5f77726974650000003a207772dd
:104fcc00697465204c414e383635582072656769d6
:104fdc007374657220286c616e5f777269746520da
:104fec003c616464725f6865783e203c76616c75e8
:104ffc00655f6865783e2900757074696d653a2047
:10500c00256c7564202530326c7568202530326c27
:10501c00756d202530326c7573202028256c6c75cd
:10502c0020732c20256c6c75207469636b73290daf
:10503c000a0000004f4e00004f464600636c6b5f49
:10504c006a756d705f6c6f673a2025732020286439
:10505c00656661756c74204f46463b2075736167bd
:10506c00653a20636c6b5f6a756d705f6c6f67205f
:10507c006f6e7c6f6666290d0a000000636c6b5fb7
:10508c006a756d705f6c6f673a2062616420617243
:10509c006720272573272028757365206f6e7c6f1a
:1050ac006666290d0a000000636c6b5f6a756d7093
:1050bc005f6c6f673a206e6f772025730d0a0000c6
:1050cc0064726966745f6969725f72657365743a5c
:1050dc00207761726d2d75702072616d7020726514
:1050ec002d61726d6564202873616d706c65733d04
:1050fc0030290d0a000000007074705f6f666673d3
:10510c0065743a2072657365740d0a0062726f6182
:10511c0064636173740000006d756c746963617312
:10512c0074000000505450206473743a2025730da1
:10513c000a0000005054502064737420736574206e
:10514c00746f2062726f6164636173740d0a000086
:10515c00505450206473742073657420746f206de8
:10516c00756c7469636173740d0a00005573616723
:10517c00653a207074705f647374205b6d756c7429
:10518c0069636173747c62726f6164636173745d73
:10519c000d0a000050545020666f6c6c6f7765726e
:1051ac0020736572766f2072657365740d0a00004a
:1051bc004f66667365743a20256c64206e732020ec
:1051cc00286162733a20256c75206e73290d0a00d4
:1051dc00505450206d6f64652020203a2025730dab
:1051ec000a000000666f6c6c6f776572000000003f
:1051fc004f6666736574206e7320203a20256c64ac
:10520c000d0a0000416273206f6666206e73203aaf
:10521c0020256c750d0a00004d65616e2064656c6f
:10522c006179203a20256c64206e730d0a00000011
:10523c006d61737465720000474d2073796e6373f2
:10524c002020203a20256c750d0a0000474d207354
:10525c00746174652020203a20256c750d0a0000bd
:10526c00447374206d6f64652020203a2025730de3
:10527c000a000000505450206d6173746572205305
:10528c00544152544544202876696120434c492ca2
:10529c0020766572626f73652900000050545020af
:1052ac006d617374657220535441525445442028e7
:1052bc0076696120434c492900000000505450206d
:1052cc00666f6c6c6f776572205354415254454431
:1052dc00202876696120434c492c20766572626fd8
:1052ec007365290050545020666f6c6c6f77657233
:1052fc002053544152544544202876696120434c34
:10530c0049290000505450206d6f64653a20257374
:10531c000d0a0000505450206d6173746572205357
:10532c00544f50504544202876696120434c4929fc
:10533c00000000005b44454d4f5d2025730d0a00b5
:10534c0050545020666f6c6c6f7765722053544fbd
:10535c0050504544202876696120434c492900006f
:10536c005054502064697361626c656420287761c5
:10537c007320616c7265616479206f66662c20768f
:10538c00696120434c492900736c6176650000000b
:10539c0055736167653a207074705f6d6f6465203a
:1053ac005b6f66667c6d6173746572205b765d7c89
:1053bc00666f6c6c6f776572205b765d5d0d0a00b5
:1053cc0064726966745f6969725f6e3a20637572a4
:1053dc0072656e74203d20256c64202028646566ff
:1053ec0061756c74203132382c2072616e676520c7
:1053fc00382e2e34303936290d0a000020206c61ed
:10540c0072676572204e202d3e206c6f776572207e
:10541c006a697474657220666c6f6f722028312f04
:10542c0073717274284e29292062757420736c6f05
:10543c007765720d0a2020636f6e76657267656ef4
:10544c006365202868616c662d6c696665207e201a
:10545c00302e372a4e2073616d706c6573202a20b4
:10546c00313235206d732053796e6320696e74650b
:10547c007276616c290d0a0064726966745f6969e1
:10548c00725f6e2073657420746f20256c640d0a36
:10549c0000000000636c6b5f7365745f6472696617
:1054ac00743a2063757272656e74206472696674e6
:1054bc005f707062203d20252b6c640d0a0000008b
:1054cc00636c6b5f7365745f64726966743a2064b5
:1054dc00726966745f70706220666f7263656420b7
:1054ec00746f20252b6c640d0a0000007074705fc3
:1054fc00676d5f64656c61793a20256c6c64206e15
:10550c00730d0a007074705f676d5f64656c617910
:10551c002073657420746f20256c6c64206e730d81
:10552c000a000000636c6b5f6765743a206e6f74e1
:10553c002076616c69640d0a00000000636c6b5f7f
:10554c006765743a20256c6c75206e73202064722c
:10555c006966743d252b6c647070620d0a00000046
:10556c007074705f74696d653a206e6f742076612b
:10557c006c696420286e6f205054502073796e63d0
:10558c0020796574290d0a007074705f74696d65fb
:10559c003a202530326c753a2530326c753a25300c
:1055ac00326c752e2530396c7520206472696674e6
:1055bc003d252b6c647070620d0a00005573616799
:1055cc00653a20636c6b5f736574203c6e733e0da3
:1055dc000a000000636c6b5f736574206f6b3a207c
:1055ec00256c6c75206e730d0a0000005573616795
:1055fc00653a207074705f7472616365205b6f6ec6
:10560c007c6f66665d0d0a0055736167653a2070a4
:10561c0074705f696e74657276616c203c6d733e5c
:10562c0020202872616e67653a2031302e2e313081
:10563c00303030290d0a000053796e6320696e7486
:10564c00657276616c2073657420746f20256c759f
:10565c00206d730d0a0000003a2050545020636fe7
:10566c006d6d616e64730000505450007074705f07
:10567c006d6f6465000000003a207365742f6765d8
:10568c007420505450206d6f646520287074705fc6
:10569c006d6f6465205b6f66667c6d61737465729b
:1056ac007c666f6c6c6f7765725d29007074705fcf
:1056bc0073746174757300003a2073686f772050af
:1056cc005450207374617475730000007074705fb3
:1056dc0074696d65000000003a2073686f77207361
:1056ec006f667477617265205054502077616c6cd2
:1056fc00636c6f636b2074696d6500007074705f10
:10570c00696e74657276616c000000003a207365f6
:10571c007420474d2053796e6320696e74657276e0
:10572c00616c20287074705f696e74657276616c40
:10573c00203c6d733e2900007074705f6f66667359
:10574c00657400003a2073686f7720666f6c6c6f1d
:10575c0077657220636c6f636b206f66667365741c
:10576c0020696e206e7300007074705f72657365d3
:10577c00740000003a20726573657420666f6c6c5f
:10578c006f77657220736572766f20746f20554e3b
:10579c00494e4954000000007074705f747261636c
:1057ac00650000003a20656e61626c652f64697358
:1057bc0061626c65205054502044656c6179207492
:1057cc007261636520287074705f74726163652008
:1057dc005b6f6e7c6f66665d290000007074705f95
:1057ec00647374003a207365742f67657420505489
:1057fc00502064657374696e6174696f6e204d41dd
:10580c004320287074705f647374205b6d756c74c6
:10581c0069636173747c62726f6164636173745ddc
:10582c0029000000636c6b5f736574003a2073652c
:10583c007420736f66747761726520636c6f636b31
:10584c0020746f203c6e733e2c207265736574203f
:10585c0064726966742028636c6b5f736574203c9a
:10586c006e733e2900000000636c6b5f676574000b
:10587c003a20726561642063757272656e74207370
:10588c006f66747761726520636c6f636b207661f1
:10589c006c756520696e206e730000007074705f0b
:1058ac006f66667365745f726573657400000000e3
:1058bc003a20636c65617220505450206f66667399
:1058cc0065742072696e6720627566666572000089
:1058dc007074705f6f66667365745f64756d70006d
:1058ec003a2064756d7020616c6c207265636f7208
:1058fc00646564206f66667365747320286f6e65cb
:10590c0020706572206c696e652c203c6e733e2095
:10591c003c7374617475733e290000007074705f81
:10592c00676d5f64656c6179000000003a20646902
:10593c0061676e6f737469633a2073657420657860
:10594c00747261206e7320616464656420746f20ce
:10595c00474d20616e63686f725f776320287074a7
:10596c00705f676d5f64656c6179205b3c6e733e44
:10597c005d290000636c6b5f7365745f64726966ac
:10598c00740000003a20646961676e6f7374696318
:10599c003a206d616e75616c6c7920736574205062
:1059ac0054505f434c4f434b2064726966745f7074
:1059bc0070622028636c6b5f7365745f64726966d8
:1059cc0074205b3c7070623e5d29000064726966f5
:1059dc00745f6969725f6e003a206765742f736536
:1059ec0074205054505f434c4f434b206472696693
:1059fc0074204949522077696e646f77204e2028b5
:105a0c0064726966745f6969725f6e205b3c382ee4
:105a1c002e343039363e5d29000000006472696610
:105a2c00745f6969725f7265736574003a207265a0
:105a3c002d61726d206164617074697665204949cd
:105a4c0052207761726d2d757020286661737420f9
:105a5c00636f6e76657267656e63652077697468cf
:105a6c00206c6f77206a697474657220666c6f6f36
:105a7c0072290000636c6b5f6a756d705f6c6f6789
:105a8c00000000003a2064696167206c6f67206633
:105a9c006f7220616e63686f722d4a554d50207283
:105aac00656a656374696f6e732028636c6b5f6adb
:105abc00756d705f6c6f67205b6f6e7c6f66665d7b
